{
  "_format": "hh-sol-artifact-1",
  "contractName": "BlipProfile",
  "sourceName": "contracts/BlipProfile.sol",
  "abi": [
    {
      "inputs": [],
      "stateMutability": "nonpayable",
      "type": "constructor"
    },
    {
      "anonymous": false,
      "inputs": [
        {
          "indexed": false,
          "internalType": "string",
          "name": "text",
          "type": "string"
        }
      ],
      "name": "AdminPostAdded",
      "type": "event"
    },
    {
      "anonymous": false,
      "inputs": [
        {
          "indexed": true,
          "internalType": "address",
          "name": "user",
          "type": "address"
        },
        {
          "indexed": false,
          "internalType": "string",
          "name": "newBio",
          "type": "string"
        }
      ],
      "name": "BioUpdated",
      "type": "event"
    },
    {
      "anonymous": false,
      "inputs": [
        {
          "indexed": true,
          "internalType": "address",
          "name": "by",
          "type": "address"
        },
        {
          "indexed": true,
          "internalType": "address",
          "name": "newFriend",
          "type": "address"
        }
      ],
      "name": "FriendAdded",
      "type": "event"
    },
    {
      "anonymous": false,
      "inputs": [
        {
          "indexed": true,
          "internalType": "address",
          "name": "by",
          "type": "address"
        },
        {
          "indexed": true,
          "internalType": "address",
          "name": "exFriend",
          "type": "address"
        }
      ],
      "name": "FriendRemoved",
      "type": "event"
    },
    {
      "anonymous": false,
      "inputs": [
        {
          "indexed": true,
          "internalType": "address",
          "name": "user",
          "type": "address"
        },
        {
          "indexed": false,
          "internalType": "string",
          "name": "newName",
          "type": "string"
        }
      ],
      "name": "NameUpdated",
      "type": "event"
    },
    {
      "anonymous": false,
      "inputs": [
        {
          "indexed": true,
          "internalType": "address",
          "name": "user",
          "type": "address"
        },
        {
          "indexed": false,
          "internalType": "string",
          "name": "text",
          "type": "string"
        },
        {
          "indexed": false,
          "internalType": "bool",
          "name": "isPublic",
          "type": "bool"
        }
      ],
      "name": "PostAdded",
      "type": "event"
    },
    {
      "inputs": [
        {
          "internalType": "address",
          "name": "newFriend",
          "type": "address"
        }
      ],
      "name": "addFriend",
      "outputs": [],
      "stateMutability": "nonpayable",
      "type": "function"
    },
    {
      "inputs": [
        {
          "internalType": "string",
          "name": "text",
          "type": "string"
        },
        {
          "internalType": "bool",
          "name": "isPublic",
          "type": "bool"
        }
      ],
      "name": "addPost",
      "outputs": [],
      "stateMutability": "nonpayable",
      "type": "function"
    },
    {
      "inputs": [],
      "name": "admin",
      "outputs": [
        {
          "internalType": "address",
          "name": "",
          "type": "address"
        }
      ],
      "stateMutability": "view",
      "type": "function"
    },
    {
      "inputs": [
        {
          "internalType": "uint256",
          "name": "",
          "type": "uint256"
        }
      ],
      "name": "adminPosts",
      "outputs": [
        {
          "internalType": "string",
          "name": "text",
          "type": "string"
        },
        {
          "internalType": "uint256",
          "name": "timestamp",
          "type": "uint256"
        },
        {
          "internalType": "bool",
          "name": "isPublic",
          "type": "bool"
        }
      ],
      "stateMutability": "view",
      "type": "function"
    },
    {
      "inputs": [
        {
          "internalType": "string",
          "name": "name",
          "type": "string"
        },
        {
          "internalType": "string",
          "name": "email",
          "type": "string"
        },
        {
          "internalType": "string",
          "name": "bio",
          "type": "string"
        }
      ],
      "name": "createProfile",
      "outputs": [],
      "stateMutability": "nonpayable",
      "type": "function"
    },
    {
      "inputs": [
        {
          "internalType": "string",
          "name": "email",
          "type": "string"
        }
      ],
      "name": "emailExists",
      "outputs": [
        {
          "internalType": "bool",
          "name": "",
          "type": "bool"
        }
      ],
      "stateMutability": "view",
      "type": "function"
    },
    {
      "inputs": [],
      "name": "getAdminPosts",
      "outputs": [
        {
          "components": [
            {
              "internalType": "string",
              "name": "text",
              "type": "string"
            },
            {
              "internalType": "uint256",
              "name": "timestamp",
              "type": "uint256"
            },
            {
              "internalType": "bool",
              "name": "isPublic",
              "type": "bool"
            }
          ],
          "internalType": "struct BlipProfile.Post[]",
          "name": "",
          "type": "tuple[]"
        }
      ],
      "stateMutability": "view",
      "type": "function"
    },
    {
      "inputs": [
        {
          "internalType": "address",
          "name": "user",
          "type": "address"
        }
      ],
      "name": "getFriends",
      "outputs": [
        {
          "internalType": "address[]",
          "name": "",
          "type": "address[]"
        }
      ],
      "stateMutability": "view",
      "type": "function"
    },
    {
      "inputs": [
        {
          "internalType": "address",
          "name": "user",
          "type": "address"
        }
      ],
      "name": "getPosts",
      "outputs": [
        {
          "components": [
            {
              "internalType": "string",
              "name": "text",
              "type": "string"
            },
            {
              "internalType": "uint256",
              "name": "timestamp",
              "type": "uint256"
            },
            {
              "internalType": "bool",
              "name": "isPublic",
              "type": "bool"
            }
          ],
          "internalType": "struct BlipProfile.Post[]",
          "name": "",
          "type": "tuple[]"
        }
      ],
      "stateMutability": "view",
      "type": "function"
    },
    {
      "inputs": [
        {
          "internalType": "address",
          "name": "user",
          "type": "address"
        }
      ],
      "name": "getProfile",
      "outputs": [
        {
          "internalType": "string",
          "name": "name",
          "type": "string"
        },
        {
          "internalType": "string",
          "name": "email",
          "type": "string"
        },
        {
          "internalType": "string",
          "name": "bio",
          "type": "string"
        },
        {
          "internalType": "address",
          "name": "wallet",
          "type": "address"
        },
        {
          "internalType": "uint256",
          "name": "createdAt",
          "type": "uint256"
        },
        {
          "components": [
            {
              "internalType": "string",
              "name": "text",
              "type": "string"
            },
            {
              "internalType": "uint256",
              "name": "timestamp",
              "type": "uint256"
            },
            {
              "internalType": "bool",
              "name": "isPublic",
              "type": "bool"
            }
          ],
          "internalType": "struct BlipProfile.Post[]",
          "name": "posts",
          "type": "tuple[]"
        }
      ],
      "stateMutability": "view",
      "type": "function"
    },
    {
      "inputs": [
        {
          "internalType": "string",
          "name": "email",
          "type": "string"
        }
      ],
      "name": "getProfileByEmail",
      "outputs": [
        {
          "internalType": "string",
          "name": "name",
          "type": "string"
        },
        {
          "internalType": "string",
          "name": "emailOut",
          "type": "string"
        },
        {
          "internalType": "string",
          "name": "bio",
          "type": "string"
        },
        {
          "internalType": "address",
          "name": "wallet",
          "type": "address"
        },
        {
          "internalType": "uint256",
          "name": "createdAt",
          "type": "uint256"
        },
        {
          "components": [
            {
              "internalType": "string",
              "name": "text",
              "type": "string"
            },
            {
              "internalType": "uint256",
              "name": "timestamp",
              "type": "uint256"
            },
            {
              "internalType": "bool",
              "name": "isPublic",
              "type": "bool"
            }
          ],
          "internalType": "struct BlipProfile.Post[]",
          "name": "posts",
          "type": "tuple[]"
        }
      ],
      "stateMutability": "view",
      "type": "function"
    },
    {
      "inputs": [
        {
          "internalType": "string",
          "name": "email",
          "type": "string"
        }
      ],
      "name": "getWalletByEmail",
      "outputs": [
        {
          "internalType": "address",
          "name": "",
          "type": "address"
        }
      ],
      "stateMutability": "view",
      "type": "function"
    },
    {
      "inputs": [
        {
          "internalType": "address",
          "name": "user1",
          "type": "address"
        },
        {
          "internalType": "address",
          "name": "user2",
          "type": "address"
        }
      ],
      "name": "isFriend",
      "outputs": [
        {
          "internalType": "bool",
          "name": "",
          "type": "bool"
        }
      ],
      "stateMutability": "view",
      "type": "function"
    },
    {
      "inputs": [
        {
          "internalType": "address",
          "name": "exFriend",
          "type": "address"
        }
      ],
      "name": "removeFriend",
      "outputs": [],
      "stateMutability": "nonpayable",
      "type": "function"
    },
    {
      "inputs": [
        {
          "internalType": "string",
          "name": "newBio",
          "type": "string"
        }
      ],
      "name": "updateBio",
      "outputs": [],
      "stateMutability": "nonpayable",
      "type": "function"
    },
    {
      "inputs": [
        {
          "internalType": "string",
          "name": "newName",
          "type": "string"
        }
      ],
      "name": "updateName",
      "outputs": [],
      "stateMutability": "nonpayable",
      "type": "function"
    }
  ],
  "bytecode": "0x6080604052348015600f57600080fd5b50336000806101000a81548173ffffffffffffffffffffffffffffffffffffffff021916908373ffffffffffffffffffffffffffffffffffffffff160217905550612fbe8061005f6000396000f3fe608060405234801561001057600080fd5b50600436106101005760003560e01c806380cee8a511610097578063c6426f5d11610066578063c6426f5d146102e8578063d7a1cfe114610306578063f851a44014610322578063f8f5698c1461034057610100565b806380cee8a51461026257806383d57b081461027e57806384da92a7146102b05780639841c82c146102cc57610100565b80634caf9d0b116100d35780634caf9d0b146101b65780635cbb7caa146101e65780636c2eec281461021657806376487b381461024657610100565b80630f53a470146101055780631da6e17c1461013a5780632be46c3c146101565780632da5d42e14610186575b600080fd5b61011f600480360381019061011a9190612236565b610375565b604051610131969594939291906124a1565b60405180910390f35b610154600480360381019061014f919061267f565b61074d565b005b610170600480360381019061016b91906126db565b610a29565b60405161017d9190612733565b60405180910390f35b6101a0600480360381019061019b919061274e565b610aa0565b6040516101ad9190612733565b60405180910390f35b6101d060048036038101906101cb9190612236565b610b37565b6040516101dd919061278e565b60405180910390f35b61020060048036038101906101fb9190612236565b610d16565b60405161020d919061286e565b60405180910390f35b610230600480360381019061022b91906126db565b610e6d565b60405161023d9190612890565b60405180910390f35b610260600480360381019061025b91906126db565b610eb5565b005b61027c60048036038101906102779190612236565b610fdd565b005b610298600480360381019061029391906128d7565b611344565b6040516102a793929190612904565b60405180910390f35b6102ca60048036038101906102c591906126db565b611413565b005b6102e660048036038101906102e19190612942565b61153b565b005b6102f06117da565b6040516102fd919061278e565b60405180910390f35b610320600480360381019061031b9190612236565b6118f0565b005b61032a611d9c565b6040516103379190612890565b60405180910390f35b61035a600480360381019061035591906126db565b611dc0565b60405161036c969594939291906124a1565b60405180910390f35b60608060606000806060866000600160008373ffffffffffffffffffffffffffffffffffffffff1673ffffffffffffffffffffffffffffffffffffffff1681526020019081526020016000206003015403610405576040517f08c379a00000000000000000000000000000000000000000000000000000000081526004016103fc90612a35565b60405180910390fd5b6000600160008a73ffffffffffffffffffffffffffffffffffffffff1673ffffffffffffffffffffffffffffffffffffffff16815260200190815260200160002090508060000181600101826002018360040160009054906101000a900473ffffffffffffffffffffffffffffffffffffffff1684600301548560050185805461048e90612a84565b80601f01602080910402602001604051908101604052809291908181526020018280546104ba90612a84565b80156105075780601f106104dc57610100808354040283529160200191610507565b820191906000526020600020905b8154815290600101906020018083116104ea57829003601f168201915b5050505050955084805461051a90612a84565b80601f016020809104026020016040519081016040528092919081815260200182805461054690612a84565b80156105935780601f1061056857610100808354040283529160200191610593565b820191906000526020600020905b81548152906001019060200180831161057657829003601f168201915b505050505094508380546105a690612a84565b80601f01602080910402602001604051908101604052809291908181526020018280546105d290612a84565b801561061f5780601f106105f45761010080835404028352916020019161061f565b820191906000526020600020905b81548152906001019060200180831161060257829003601f168201915b5050505050935080805480602002602001604051908101604052809291908181526020016000905b82821015610730578382906000526020600020906003020160405180606001604052908160008201805461067a90612a84565b80601f01602080910402602001604051908101604052809291908181526020018280546106a690612a84565b80156106f35780601f106106c8576101008083540402835291602001916106f3565b820191906000526020600020905b8154815290600101906020018083116106d657829003601f168201915b50505050508152602001600182015481526020016002820160009054906101000a900460ff16151515158152505081526020019060010190610647565b505050509050975097509750975097509750505091939550919395565b336000600160008373ffffffffffffffffffffffffffffffffffffffff1673ffffffffffffffffffffffffffffffffffffffff16815260200190815260200160002060030154036107d3576040517f08c379a00000000000000000000000000000000000000000000000000000000081526004016107ca90612a35565b60405180910390fd5b6000600160003373ffffffffffffffffffffffffffffffffffffffff1673ffffffffffffffffffffffffffffffffffffffff1681526020019081526020016000206003015403610858576040517f08c379a000000000000000000000000000000000000000000000000000000000815260040161084f90612a35565b60405180910390fd5b600060405180606001604052808581526020014281526020018415158152509050600160003373ffffffffffffffffffffffffffffffffffffffff1673ffffffffffffffffffffffffffffffffffffffff16815260200190815260200160002060050181908060018154018082558091505060019003906000526020600020906003020160009091909190915060008201518160000190816108fa9190612c61565b506020820151816001015560408201518160020160006101000a81548160ff02191690831515021790555050503373ffffffffffffffffffffffffffffffffffffffff167f264ef7c88299d51aa830b1899ba849e40fab5e415251f79c047b86b7b1c542d2858560405161096f929190612d33565b60405180910390a28215610a2357600381908060018154018082558091505060019003906000526020600020906003020160009091909190915060008201518160000190816109be9190612c61565b506020820151816001015560408201518160020160006101000a81548160ff02191690831515021790555050507f54b05475d2da7cc5efb2aaef2203d1a4226aa08d7ecb76c2bb50b1501b0c19c184604051610a1a9190612d63565b60405180910390a15b50505050565b60008073ffffffffffffffffffffffffffffffffffffffff16600283604051610a529190612dc1565b908152602001604051809103902060009054906101000a900473ffffffffffffffffffffffffffffffffffffffff1673ffffffffffffffffffffffffffffffffffffffff1614159050919050565b6000600160008473ffffffffffffffffffffffffffffffffffffffff1673ffffffffffffffffffffffffffffffffffffffff16815260200190815260200160002060060160008373ffffffffffffffffffffffffffffffffffffffff1673ffffffffffffffffffffffffffffffffffffffff16815260200190815260200160002060009054906101000a900460ff16905092915050565b6060816000600160008373ffffffffffffffffffffffffffffffffffffffff1673ffffffffffffffffffffffffffffffffffffffff1681526020019081526020016000206003015403610bbf576040517f08c379a0000000000000000000000000000000000000000000000000000000008152600401610bb690612a35565b60405180910390fd5b600160008473ffffffffffffffffffffffffffffffffffffffff1673ffffffffffffffffffffffffffffffffffffffff168152602001908152602001600020600501805480602002602001604051908101604052809291908181526020016000905b82821015610d0a5783829060005260206000209060030201604051806060016040529081600082018054610c5490612a84565b80601f0160208091040260200160405190810160405280929190818152602001828054610c8090612a84565b8015610ccd5780601f10610ca257610100808354040283529160200191610ccd565b820191906000526020600020905b815481529060010190602001808311610cb057829003601f168201915b50505050508152602001600182015481526020016002820160009054906101000a900460ff16151515158152505081526020019060010190610c21565b50505050915050919050565b6060816000600160008373ffffffffffffffffffffffffffffffffffffffff1673ffffffffffffffffffffffffffffffffffffffff1681526020019081526020016000206003015403610d9e576040517f08c379a0000000000000000000000000000000000000000000000000000000008152600401610d9590612a35565b60405180910390fd5b600160008473ffffffffffffffffffffffffffffffffffffffff1673ffffffffffffffffffffffffffffffffffffffff168152602001908152602001600020600701805480602002602001604051908101604052809291908181526020018280548015610e6057602002820191906000526020600020905b8160009054906101000a900473ffffffffffffffffffffffffffffffffffffffff1673ffffffffffffffffffffffffffffffffffffffff1681526020019060010190808311610e16575b5050505050915050919050565b6000600282604051610e7f9190612dc1565b908152602001604051809103902060009054906101000a900473ffffffffffffffffffffffffffffffffffffffff169050919050565b336000600160008373ffffffffffffffffffffffffffffffffffffffff1673ffffffffffffffffffffffffffffffffffffffff1681526020019081526020016000206003015403610f3b576040517f08c379a0000000000000000000000000000000000000000000000000000000008152600401610f3290612a35565b60405180910390fd5b81600160003373ffffffffffffffffffffffffffffffffffffffff1673ffffffffffffffffffffffffffffffffffffffff1681526020019081526020016000206002019081610f8a9190612c61565b503373ffffffffffffffffffffffffffffffffffffffff167f3f838a7d0889a59b2445af5389196b3948170278848eb90d8d256ab14aaf4cf083604051610fd19190612d63565b60405180910390a25050565b336000600160008373ffffffffffffffffffffffffffffffffffffffff1673ffffffffffffffffffffffffffffffffffffffff1681526020019081526020016000206003015403611063576040517f08c379a000000000000000000000000000000000000000000000000000000000815260040161105a90612a35565b60405180910390fd5b816000600160008373ffffffffffffffffffffffffffffffffffffffff1673ffffffffffffffffffffffffffffffffffffffff16815260200190815260200160002060030154036110e9576040517f08c379a00000000000000000000000000000000000000000000000000000000081526004016110e090612a35565b60405180910390fd5b600160003373ffffffffffffffffffffffffffffffffffffffff1673ffffffffffffffffffffffffffffffffffffffff16815260200190815260200160002060060160008473ffffffffffffffffffffffffffffffffffffffff1673ffffffffffffffffffffffffffffffffffffffff16815260200190815260200160002060009054906101000a900460ff166111b5576040517f08c379a00000000000000000000000000000000000000000000000000000000081526004016111ac90612e24565b60405180910390fd5b6000600160003373ffffffffffffffffffffffffffffffffffffffff1673ffffffffffffffffffffffffffffffffffffffff16815260200190815260200160002060060160008573ffffffffffffffffffffffffffffffffffffffff1673ffffffffffffffffffffffffffffffffffffffff16815260200190815260200160002060006101000a81548160ff0219169083151502179055506000600160008573ffffffffffffffffffffffffffffffffffffffff1673ffffffffffffffffffffffffffffffffffffffff16815260200190815260200160002060060160003373ffffffffffffffffffffffffffffffffffffffff1673ffffffffffffffffffffffffffffffffffffffff16815260200190815260200160002060006101000a81548160ff0219169083151502179055508273ffffffffffffffffffffffffffffffffffffffff163373ffffffffffffffffffffffffffffffffffffffff167fa8e30f48064c886d284e961fb10cf21ed57c5f0b0b414f6bc390008552a15f9060405160405180910390a3505050565b6003818154811061135457600080fd5b906000526020600020906003020160009150905080600001805461137790612a84565b80601f01602080910402602001604051908101604052809291908181526020018280546113a390612a84565b80156113f05780601f106113c5576101008083540402835291602001916113f0565b820191906000526020600020905b8154815290600101906020018083116113d357829003601f168201915b5050505050908060010154908060020160009054906101000a900460ff16905083565b336000600160008373ffffffffffffffffffffffffffffffffffffffff1673ffffffffffffffffffffffffffffffffffffffff1681526020019081526020016000206003015403611499576040517f08c379a000000000000000000000000000000000000000000000000000000000815260040161149090612a35565b60405180910390fd5b81600160003373ffffffffffffffffffffffffffffffffffffffff1673ffffffffffffffffffffffffffffffffffffffff16815260200190815260200160002060000190816114e89190612c61565b503373ffffffffffffffffffffffffffffffffffffffff167f74321da206c1b9fa34367f7ece59ca49371dcd13820b9a5c3767ae1ecceed51a8360405161152f9190612d63565b60405180910390a25050565b6000600160003373ffffffffffffffffffffffffffffffffffffffff1673ffffffffffffffffffffffffffffffffffffffff16815260200190815260200160002060030154146115c0576040517f08c379a00000000000000000000000000000000000000000000000000000000081526004016115b790612e90565b60405180910390fd5b82600160003373ffffffffffffffffffffffffffffffffffffffff1673ffffffffffffffffffffffffffffffffffffffff168152602001908152602001600020600001908161160f9190612c61565b5081600160003373ffffffffffffffffffffffffffffffffffffffff1673ffffffffffffffffffffffffffffffffffffffff168152602001908152602001600020600101908161165f9190612c61565b5080600160003373ffffffffffffffffffffffffffffffffffffffff1673ffffffffffffffffffffffffffffffffffffffff16815260200190815260200160002060020190816116af9190612c61565b5033600160003373ffffffffffffffffffffffffffffffffffffffff1673ffffffffffffffffffffffffffffffffffffffff16815260200190815260200160002060040160006101000a81548173ffffffffffffffffffffffffffffffffffffffff021916908373ffffffffffffffffffffffffffffffffffffffff16021790555042600160003373ffffffffffffffffffffffffffffffffffffffff1673ffffffffffffffffffffffffffffffffffffffff16815260200190815260200160002060030181905550336002836040516117899190612dc1565b908152602001604051809103902060006101000a81548173ffffffffffffffffffffffffffffffffffffffff021916908373ffffffffffffffffffffffffffffffffffffffff160217905550505050565b60606003805480602002602001604051908101604052809291908181526020016000905b828210156118e7578382906000526020600020906003020160405180606001604052908160008201805461183190612a84565b80601f016020809104026020016040519081016040528092919081815260200182805461185d90612a84565b80156118aa5780601f1061187f576101008083540402835291602001916118aa565b820191906000526020600020905b81548152906001019060200180831161188d57829003601f168201915b50505050508152602001600182015481526020016002820160009054906101000a900460ff161515151581525050815260200190600101906117fe565b50505050905090565b336000600160008373ffffffffffffffffffffffffffffffffffffffff1673ffffffffffffffffffffffffffffffffffffffff1681526020019081526020016000206003015403611976576040517f08c379a000000000000000000000000000000000000000000000000000000000815260040161196d90612a35565b60405180910390fd5b816000600160008373ffffffffffffffffffffffffffffffffffffffff1673ffffffffffffffffffffffffffffffffffffffff16815260200190815260200160002060030154036119fc576040517f08c379a00000000000000000000000000000000000000000000000000000000081526004016119f390612a35565b60405180910390fd5b600160003373ffffffffffffffffffffffffffffffffffffffff1673ffffffffffffffffffffffffffffffffffffffff16815260200190815260200160002060060160008473ffffffffffffffffffffffffffffffffffffffff1673ffffffffffffffffffffffffffffffffffffffff16815260200190815260200160002060009054906101000a900460ff1615611ac9576040517f08c379a0000000000000000000000000000000000000000000000000000000008152600401611ac090612efc565b60405180910390fd5b60018060003373ffffffffffffffffffffffffffffffffffffffff1673ffffffffffffffffffffffffffffffffffffffff16815260200190815260200160002060060160008573ffffffffffffffffffffffffffffffffffffffff1673ffffffffffffffffffffffffffffffffffffffff16815260200190815260200160002060006101000a81548160ff021916908315150217905550600160003373ffffffffffffffffffffffffffffffffffffffff1673ffffffffffffffffffffffffffffffffffffffff168152602001908152602001600020600701839080600181540180825580915050600190039060005260206000200160009091909190916101000a81548173ffffffffffffffffffffffffffffffffffffffff021916908373ffffffffffffffffffffffffffffffffffffffff16021790555060018060008573ffffffffffffffffffffffffffffffffffffffff1673ffffffffffffffffffffffffffffffffffffffff16815260200190815260200160002060060160003373ffffffffffffffffffffffffffffffffffffffff1673ffffffffffffffffffffffffffffffffffffffff16815260200190815260200160002060006101000a81548160ff021916908315150217905550600160008473ffffffffffffffffffffffffffffffffffffffff1673ffffffffffffffffffffffffffffffffffffffff168152602001908152602001600020600701339080600181540180825580915050600190039060005260206000200160009091909190916101000a81548173ffffffffffffffffffffffffffffffffffffffff021916908373ffffffffffffffffffffffffffffffffffffffff1602179055508273ffffffffffffffffffffffffffffffffffffffff163373ffffffffffffffffffffffffffffffffffffffff167f6cbc8134e69f02f9dbaa28d8f3d760a490876f55060afa4d6882a86c2590cc7b60405160405180910390a3505050565b60008054906101000a900473ffffffffffffffffffffffffffffffffffffffff1681565b606080606060008060606000600288604051611ddc9190612dc1565b908152602001604051809103902060009054906101000a900473ffffffffffffffffffffffffffffffffffffffff169050600073ffffffffffffffffffffffffffffffffffffffff168173ffffffffffffffffffffffffffffffffffffffff1603611e7c576040517f08c379a0000000000000000000000000000000000000000000000000000000008152600401611e7390612f68565b60405180910390fd5b6000600160008373ffffffffffffffffffffffffffffffffffffffff1673ffffffffffffffffffffffffffffffffffffffff16815260200190815260200160002090508060000181600101826002018360040160009054906101000a900473ffffffffffffffffffffffffffffffffffffffff16846003015485600501858054611f0590612a84565b80601f0160208091040260200160405190810160405280929190818152602001828054611f3190612a84565b8015611f7e5780601f10611f5357610100808354040283529160200191611f7e565b820191906000526020600020905b815481529060010190602001808311611f6157829003601f168201915b50505050509550848054611f9190612a84565b80601f0160208091040260200160405190810160405280929190818152602001828054611fbd90612a84565b801561200a5780601f10611fdf5761010080835404028352916020019161200a565b820191906000526020600020905b815481529060010190602001808311611fed57829003601f168201915b5050505050945083805461201d90612a84565b80601f016020809104026020016040519081016040528092919081815260200182805461204990612a84565b80156120965780601f1061206b57610100808354040283529160200191612096565b820191906000526020600020905b81548152906001019060200180831161207957829003601f168201915b5050505050935080805480602002602001604051908101604052809291908181526020016000905b828210156121a757838290600052602060002090600302016040518060600160405290816000820180546120f190612a84565b80601f016020809104026020016040519081016040528092919081815260200182805461211d90612a84565b801561216a5780601f1061213f5761010080835404028352916020019161216a565b820191906000526020600020905b81548152906001019060200180831161214d57829003601f168201915b50505050508152602001600182015481526020016002820160009054906101000a900460ff161515151581525050815260200190600101906120be565b505050509050975097509750975097509750505091939550919395565b6000604051905090565b600080fd5b600080fd5b600073ffffffffffffffffffffffffffffffffffffffff82169050919050565b6000612203826121d8565b9050919050565b612213816121f8565b811461221e57600080fd5b50565b6000813590506122308161220a565b92915050565b60006020828403121561224c5761224b6121ce565b5b600061225a84828501612221565b91505092915050565b600081519050919050565b600082825260208201905092915050565b60005b8381101561229d578082015181840152602081019050612282565b60008484015250505050565b6000601f19601f8301169050919050565b60006122c582612263565b6122cf818561226e565b93506122df81856020860161227f565b6122e8816122a9565b840191505092915050565b6122fc816121f8565b82525050565b6000819050919050565b61231581612302565b82525050565b600081519050919050565b600082825260208201905092915050565b6000819050602082019050919050565b600082825260208201905092915050565b600061236382612263565b61236d8185612347565b935061237d81856020860161227f565b612386816122a9565b840191505092915050565b61239a81612302565b82525050565b60008115159050919050565b6123b5816123a0565b82525050565b600060608301600083015184820360008601526123d88282612358565b91505060208301516123ed6020860182612391565b50604083015161240060408601826123ac565b508091505092915050565b600061241783836123bb565b905092915050565b6000602082019050919050565b60006124378261231b565b6124418185612326565b93508360208202850161245385612337565b8060005b8581101561248f5784840389528151612470858261240b565b945061247b8361241f565b925060208a01995050600181019050612457565b50829750879550505050505092915050565b600060c08201905081810360008301526124bb81896122ba565b905081810360208301526124cf81886122ba565b905081810360408301526124e381876122ba565b90506124f260608301866122f3565b6124ff608083018561230c565b81810360a0830152612511818461242c565b9050979650505050505050565b600080fd5b600080fd5b7f4e487b7100000000000000000000000000000000000000000000000000000000600052604160045260246000fd5b612560826122a9565b810181811067ffffffffffffffff8211171561257f5761257e612528565b5b80604052505050565b60006125926121c4565b905061259e8282612557565b919050565b600067ffffffffffffffff8211156125be576125bd612528565b5b6125c7826122a9565b9050602081019050919050565b82818337600083830152505050565b60006125f66125f1846125a3565b612588565b90508281526020810184848401111561261257612611612523565b5b61261d8482856125d4565b509392505050565b600082601f83011261263a5761263961251e565b5b813561264a8482602086016125e3565b91505092915050565b61265c816123a0565b811461266757600080fd5b50565b60008135905061267981612653565b92915050565b60008060408385031215612696576126956121ce565b5b600083013567ffffffffffffffff8111156126b4576126b36121d3565b5b6126c085828601612625565b92505060206126d18582860161266a565b9150509250929050565b6000602082840312156126f1576126f06121ce565b5b600082013567ffffffffffffffff81111561270f5761270e6121d3565b5b61271b84828501612625565b91505092915050565b61272d816123a0565b82525050565b60006020820190506127486000830184612724565b92915050565b60008060408385031215612765576127646121ce565b5b600061277385828601612221565b925050602061278485828601612221565b9150509250929050565b600060208201905081810360008301526127a8818461242c565b905092915050565b600081519050919050565b600082825260208201905092915050565b6000819050602082019050919050565b6127e5816121f8565b82525050565b60006127f783836127dc565b60208301905092915050565b6000602082019050919050565b600061281b826127b0565b61282581856127bb565b9350612830836127cc565b8060005b8381101561286157815161284888826127eb565b975061285383612803565b925050600181019050612834565b5085935050505092915050565b600060208201905081810360008301526128888184612810565b905092915050565b60006020820190506128a560008301846122f3565b92915050565b6128b481612302565b81146128bf57600080fd5b50565b6000813590506128d1816128ab565b92915050565b6000602082840312156128ed576128ec6121ce565b5b60006128fb848285016128c2565b91505092915050565b6000606082019050818103600083015261291e81866122ba565b905061292d602083018561230c565b61293a6040830184612724565b949350505050565b60008060006060848603121561295b5761295a6121ce565b5b600084013567ffffffffffffffff811115612979576129786121d3565b5b61298586828701612625565b935050602084013567ffffffffffffffff8111156129a6576129a56121d3565b5b6129b286828701612625565b925050604084013567ffffffffffffffff8111156129d3576129d26121d3565b5b6129df86828701612625565b9150509250925092565b7f50726f66696c6520646f65736e27742065786973740000000000000000000000600082015250565b6000612a1f60158361226e565b9150612a2a826129e9565b602082019050919050565b60006020820190508181036000830152612a4e81612a12565b9050919050565b7f4e487b7100000000000000000000000000000000000000000000000000000000600052602260045260246000fd5b60006002820490506001821680612a9c57607f821691505b602082108103612aaf57612aae612a55565b5b50919050565b60008190508160005260206000209050919050565b60006020601f8301049050919050565b600082821b905092915050565b600060088302612b177fffffffffffffffffffffffffffffffffffffffffffffffffffffffffffffffff82612ada565b612b218683612ada565b95508019841693508086168417925050509392505050565b6000819050919050565b6000612b5e612b59612b5484612302565b612b39565b612302565b9050919050565b6000819050919050565b612b7883612b43565b612b8c612b8482612b65565b848454612ae7565b825550505050565b600090565b612ba1612b94565b612bac818484612b6f565b505050565b5b81811015612bd057612bc5600082612b99565b600181019050612bb2565b5050565b601f821115612c1557612be681612ab5565b612bef84612aca565b81016020851015612bfe578190505b612c12612c0a85612aca565b830182612bb1565b50505b505050565b600082821c905092915050565b6000612c3860001984600802612c1a565b1980831691505092915050565b6000612c518383612c27565b9150826002028217905092915050565b612c6a82612263565b67ffffffffffffffff811115612c8357612c82612528565b5b612c8d8254612a84565b612c98828285612bd4565b600060209050601f831160018114612ccb5760008415612cb9578287015190505b612cc38582612c45565b865550612d2b565b601f198416612cd986612ab5565b60005b82811015612d0157848901518255600182019150602085019450602081019050612cdc565b86831015612d1e5784890151612d1a601f891682612c27565b8355505b6001600288020188555050505b505050505050565b60006040820190508181036000830152612d4d81856122ba565b9050612d5c6020830184612724565b9392505050565b60006020820190508181036000830152612d7d81846122ba565b905092915050565b600081905092915050565b6000612d9b82612263565b612da58185612d85565b9350612db581856020860161227f565b80840191505092915050565b6000612dcd8284612d90565b915081905092915050565b7f4e6f7420667269656e6473000000000000000000000000000000000000000000600082015250565b6000612e0e600b8361226e565b9150612e1982612dd8565b602082019050919050565b60006020820190508181036000830152612e3d81612e01565b9050919050565b7f50726f66696c6520616c72656164792065786973747300000000000000000000600082015250565b6000612e7a60168361226e565b9150612e8582612e44565b602082019050919050565b60006020820190508181036000830152612ea981612e6d565b9050919050565b7f416c726561647920667269656e64730000000000000000000000000000000000600082015250565b6000612ee6600f8361226e565b9150612ef182612eb0565b602082019050919050565b60006020820190508181036000830152612f1581612ed9565b9050919050565b7f456d61696c206e6f742072656769737465726564000000000000000000000000600082015250565b6000612f5260148361226e565b9150612f5d82612f1c565b602082019050919050565b60006020820190508181036000830152612f8181612f45565b905091905056fea26469706673582212206cef052a014b18a1527accd1ae6f5b4d24c883038f8f33406747c77eb88059aa64736f6c634300081c0033",
  "linkReferences": {},
  "deployedLinkReferences": {}
}