{
  "_format": "hh-sol-artifact-1",
  "contractName": "BlipAuth",
  "sourceName": "contracts/BlipAuth.sol",
  "abi": [
    {
      "anonymous": false,
      "inputs": [
        {
          "indexed": false,
          "internalType": "string",
          "name": "email",
          "type": "string"
        },
        {
          "indexed": false,
          "internalType": "address",
          "name": "wallet",
          "type": "address"
        }
      ],
      "name": "UserLoggedIn",
      "type": "event"
    },
    {
      "anonymous": false,
      "inputs": [
        {
          "indexed": false,
          "internalType": "string",
          "name": "email",
          "type": "string"
        },
        {
          "indexed": false,
          "internalType": "address",
          "name": "wallet",
          "type": "address"
        }
      ],
      "name": "UserSignedUp",
      "type": "event"
    },
    {
      "inputs": [
        {
          "internalType": "string",
          "name": "email",
          "type": "string"
        }
      ],
      "name": "getWallet",
      "outputs": [
        {
          "internalType": "address",
          "name": "",
          "type": "address"
        }
      ],
      "stateMutability": "view",
      "type": "function"
    },
    {
      "inputs": [
        {
          "internalType": "string",
          "name": "email",
          "type": "string"
        },
        {
          "internalType": "string",
          "name": "password",
          "type": "string"
        }
      ],
      "name": "login",
      "outputs": [
        {
          "internalType": "bool",
          "name": "",
          "type": "bool"
        }
      ],
      "stateMutability": "view",
      "type": "function"
    },
    {
      "inputs": [
        {
          "internalType": "string",
          "name": "email",
          "type": "string"
        },
        {
          "internalType": "string",
          "name": "password",
          "type": "string"
        }
      ],
      "name": "signup",
      "outputs": [],
      "stateMutability": "nonpayable",
      "type": "function"
    }
  ],
  "bytecode": "0x6080604052348015600f57600080fd5b50610b1f8061001f6000396000f3fe608060405234801561001057600080fd5b50600436106100415760003560e01c806347e70e641461004657806358467dbc14610062578063a4e2df6614610092575b600080fd5b610060600480360381019061005b9190610652565b6100c2565b005b61007c60048036038101906100779190610652565b6102fb565b60405161008991906106e5565b60405180910390f35b6100ac60048036038101906100a79190610700565b6103fe565b6040516100b9919061078a565b60405180910390f35b6000825111610106576040517f08c379a00000000000000000000000000000000000000000000000000000000081526004016100fd90610802565b60405180910390fd5b60088151101561014b576040517f08c379a000000000000000000000000000000000000000000000000000000000815260040161014290610894565b60405180910390fd5b600073ffffffffffffffffffffffffffffffffffffffff166000836040516101739190610925565b908152602001604051809103902060000160009054906101000a900473ffffffffffffffffffffffffffffffffffffffff1673ffffffffffffffffffffffffffffffffffffffff16146101fb576040517f08c379a00000000000000000000000000000000000000000000000000000000081526004016101f290610988565b60405180910390fd5b60405180604001604052803373ffffffffffffffffffffffffffffffffffffffff168152602001826040516020016102339190610925565b6040516020818303038152906040528051906020012081525060008360405161025c9190610925565b908152602001604051809103902060008201518160000160006101000a81548173ffffffffffffffffffffffffffffffffffffffff021916908373ffffffffffffffffffffffffffffffffffffffff160217905550602082015181600101559050507fc51e897c3d117eedabb0c4d146900ec7f3f2fb8bfda6bad5d6763f0b0e3cf2f182336040516102ef9291906109e1565b60405180910390a15050565b60008073ffffffffffffffffffffffffffffffffffffffff166000846040516103249190610925565b908152602001604051809103902060000160009054906101000a900473ffffffffffffffffffffffffffffffffffffffff1673ffffffffffffffffffffffffffffffffffffffff16036103ac576040517f08c379a00000000000000000000000000000000000000000000000000000000081526004016103a390610a5d565b60405180910390fd5b816040516020016103bd9190610925565b604051602081830303815290604052805190602001206000846040516103e39190610925565b90815260200160405180910390206001015414905092915050565b60008073ffffffffffffffffffffffffffffffffffffffff166000836040516104279190610925565b908152602001604051809103902060000160009054906101000a900473ffffffffffffffffffffffffffffffffffffffff1673ffffffffffffffffffffffffffffffffffffffff16036104af576040517f08c379a00000000000000000000000000000000000000000000000000000000081526004016104a690610ac9565b60405180910390fd5b6000826040516104bf9190610925565b908152602001604051809103902060000160009054906101000a900473ffffffffffffffffffffffffffffffffffffffff169050919050565b6000604051905090565b600080fd5b600080fd5b600080fd5b600080fd5b6000601f19601f8301169050919050565b7f4e487b7100000000000000000000000000000000000000000000000000000000600052604160045260246000fd5b61055f82610516565b810181811067ffffffffffffffff8211171561057e5761057d610527565b5b80604052505050565b60006105916104f8565b905061059d8282610556565b919050565b600067ffffffffffffffff8211156105bd576105bc610527565b5b6105c682610516565b9050602081019050919050565b82818337600083830152505050565b60006105f56105f0846105a2565b610587565b90508281526020810184848401111561061157610610610511565b5b61061c8482856105d3565b509392505050565b600082601f8301126106395761063861050c565b5b81356106498482602086016105e2565b91505092915050565b6000806040838503121561066957610668610502565b5b600083013567ffffffffffffffff81111561068757610686610507565b5b61069385828601610624565b925050602083013567ffffffffffffffff8111156106b4576106b3610507565b5b6106c085828601610624565b9150509250929050565b60008115159050919050565b6106df816106ca565b82525050565b60006020820190506106fa60008301846106d6565b92915050565b60006020828403121561071657610715610502565b5b600082013567ffffffffffffffff81111561073457610733610507565b5b61074084828501610624565b91505092915050565b600073ffffffffffffffffffffffffffffffffffffffff82169050919050565b600061077482610749565b9050919050565b61078481610769565b82525050565b600060208201905061079f600083018461077b565b92915050565b600082825260208201905092915050565b7f456d61696c206973207265717569726564000000000000000000000000000000600082015250565b60006107ec6011836107a5565b91506107f7826107b6565b602082019050919050565b6000602082019050818103600083015261081b816107df565b9050919050565b7f50617373776f7264206d757374206265206174206c656173742038206368617260008201527f6163746572730000000000000000000000000000000000000000000000000000602082015250565b600061087e6026836107a5565b915061088982610822565b604082019050919050565b600060208201905081810360008301526108ad81610871565b9050919050565b600081519050919050565b600081905092915050565b60005b838110156108e85780820151818401526020810190506108cd565b60008484015250505050565b60006108ff826108b4565b61090981856108bf565b93506109198185602086016108ca565b80840191505092915050565b600061093182846108f4565b915081905092915050565b7f456d61696c20616c726561647920726567697374657265640000000000000000600082015250565b60006109726018836107a5565b915061097d8261093c565b602082019050919050565b600060208201905081810360008301526109a181610965565b9050919050565b60006109b3826108b4565b6109bd81856107a5565b93506109cd8185602086016108ca565b6109d681610516565b840191505092915050565b600060408201905081810360008301526109fb81856109a8565b9050610a0a602083018461077b565b9392505050565b7f456d61696c206e6f742072656769737465726564000000000000000000000000600082015250565b6000610a476014836107a5565b9150610a5282610a11565b602082019050919050565b60006020820190508181036000830152610a7681610a3a565b9050919050565b7f456d61696c206e6f7420666f756e640000000000000000000000000000000000600082015250565b6000610ab3600f836107a5565b9150610abe82610a7d565b602082019050919050565b60006020820190508181036000830152610ae281610aa6565b905091905056fea2646970667358221220a3d2a9af7c5a86e714961d0b2675b6e07818bcfcca3e9ed619bc3a7cd4e256a564736f6c634300081c0033",
  "linkReferences": {},
  "deployedLinkReferences": {}
}