{
  "_format": "hh-sol-artifact-1",
  "contractName": "BlipProfile",
  "sourceName": "contracts/BlipProfile.sol",
  "abi": [
    {
      "anonymous": false,
      "inputs": [
        {
          "indexed": true,
          "internalType": "address",
          "name": "user",
          "type": "address"
        },
        {
          "indexed": false,
          "internalType": "string",
          "name": "avatar",
          "type": "string"
        }
      ],
      "name": "AvatarUpdated",
      "type": "event"
    },
    {
      "anonymous": false,
      "inputs": [
        {
          "indexed": true,
          "internalType": "address",
          "name": "user",
          "type": "address"
        },
        {
          "indexed": false,
          "internalType": "string",
          "name": "bio",
          "type": "string"
        }
      ],
      "name": "BioUpdated",
      "type": "event"
    },
    {
      "anonymous": false,
      "inputs": [
        {
          "indexed": true,
          "internalType": "address",
          "name": "by",
          "type": "address"
        },
        {
          "indexed": true,
          "internalType": "address",
          "name": "to",
          "type": "address"
        }
      ],
      "name": "Blipped",
      "type": "event"
    },
    {
      "anonymous": false,
      "inputs": [
        {
          "indexed": true,
          "internalType": "address",
          "name": "user",
          "type": "address"
        },
        {
          "indexed": false,
          "internalType": "string",
          "name": "newName",
          "type": "string"
        }
      ],
      "name": "NameUpdated",
      "type": "event"
    },
    {
      "anonymous": false,
      "inputs": [
        {
          "indexed": true,
          "internalType": "address",
          "name": "user",
          "type": "address"
        },
        {
          "indexed": false,
          "internalType": "address",
          "name": "postContract",
          "type": "address"
        }
      ],
      "name": "PostAdded",
      "type": "event"
    },
    {
      "anonymous": false,
      "inputs": [
        {
          "indexed": true,
          "internalType": "address",
          "name": "user",
          "type": "address"
        },
        {
          "indexed": false,
          "internalType": "string",
          "name": "name",
          "type": "string"
        },
        {
          "indexed": false,
          "internalType": "string",
          "name": "email",
          "type": "string"
        }
      ],
      "name": "ProfileCreated",
      "type": "event"
    },
    {
      "anonymous": false,
      "inputs": [
        {
          "indexed": true,
          "internalType": "address",
          "name": "by",
          "type": "address"
        },
        {
          "indexed": true,
          "internalType": "address",
          "name": "to",
          "type": "address"
        }
      ],
      "name": "Unblipped",
      "type": "event"
    },
    {
      "inputs": [
        {
          "internalType": "address",
          "name": "postAddress",
          "type": "address"
        }
      ],
      "name": "addPost",
      "outputs": [],
      "stateMutability": "nonpayable",
      "type": "function"
    },
    {
      "inputs": [
        {
          "internalType": "address",
          "name": "userToBlip",
          "type": "address"
        }
      ],
      "name": "blip",
      "outputs": [],
      "stateMutability": "nonpayable",
      "type": "function"
    },
    {
      "inputs": [
        {
          "internalType": "string",
          "name": "name",
          "type": "string"
        },
        {
          "internalType": "string",
          "name": "email",
          "type": "string"
        },
        {
          "internalType": "string",
          "name": "avatar",
          "type": "string"
        },
        {
          "internalType": "string",
          "name": "bio",
          "type": "string"
        }
      ],
      "name": "createProfile",
      "outputs": [],
      "stateMutability": "nonpayable",
      "type": "function"
    },
    {
      "inputs": [
        {
          "internalType": "address",
          "name": "user",
          "type": "address"
        }
      ],
      "name": "getProfile",
      "outputs": [
        {
          "internalType": "string",
          "name": "name",
          "type": "string"
        },
        {
          "internalType": "string",
          "name": "email",
          "type": "string"
        },
        {
          "internalType": "string",
          "name": "avatar",
          "type": "string"
        },
        {
          "internalType": "string",
          "name": "bio",
          "type": "string"
        },
        {
          "internalType": "address",
          "name": "wallet",
          "type": "address"
        },
        {
          "internalType": "uint256",
          "name": "createdAt",
          "type": "uint256"
        },
        {
          "internalType": "address[]",
          "name": "posts",
          "type": "address[]"
        },
        {
          "internalType": "address[]",
          "name": "blippers",
          "type": "address[]"
        },
        {
          "internalType": "address[]",
          "name": "bliping",
          "type": "address[]"
        }
      ],
      "stateMutability": "view",
      "type": "function"
    },
    {
      "inputs": [
        {
          "internalType": "address",
          "name": "from",
          "type": "address"
        },
        {
          "internalType": "address",
          "name": "to",
          "type": "address"
        }
      ],
      "name": "isUserBlipping",
      "outputs": [
        {
          "internalType": "bool",
          "name": "",
          "type": "bool"
        }
      ],
      "stateMutability": "view",
      "type": "function"
    },
    {
      "inputs": [
        {
          "internalType": "address",
          "name": "user",
          "type": "address"
        }
      ],
      "name": "profileExistsFor",
      "outputs": [
        {
          "internalType": "bool",
          "name": "",
          "type": "bool"
        }
      ],
      "stateMutability": "view",
      "type": "function"
    },
    {
      "inputs": [
        {
          "internalType": "address",
          "name": "userToUnblip",
          "type": "address"
        }
      ],
      "name": "unblip",
      "outputs": [],
      "stateMutability": "nonpayable",
      "type": "function"
    },
    {
      "inputs": [
        {
          "internalType": "string",
          "name": "newAvatar",
          "type": "string"
        }
      ],
      "name": "updateAvatar",
      "outputs": [],
      "stateMutability": "nonpayable",
      "type": "function"
    },
    {
      "inputs": [
        {
          "internalType": "string",
          "name": "newBio",
          "type": "string"
        }
      ],
      "name": "updateBio",
      "outputs": [],
      "stateMutability": "nonpayable",
      "type": "function"
    },
    {
      "inputs": [
        {
          "internalType": "string",
          "name": "newName",
          "type": "string"
        }
      ],
      "name": "updateName",
      "outputs": [],
      "stateMutability": "nonpayable",
      "type": "function"
    }
  ],
  "bytecode": "0x6080604052348015600f57600080fd5b5061252b8061001f6000396000f3fe608060405234801561001057600080fd5b506004361061009e5760003560e01c806384da92a71161006657806384da92a7146101735780639fe958b91461018f578063b0c0647f146101ab578063b30df0c6146101c7578063c404816d146101e35761009e565b80630f53a470146100a35780633ff75442146100db57806376487b38146100f7578063780e2142146101135780637c77183814610143575b600080fd5b6100bd60048036038101906100b8919061192e565b6101ff565b6040516100d299989796959493929190611ad1565b60405180910390f35b6100f560048036038101906100f0919061192e565b61067d565b005b610111600480360381019061010c9190611cc4565b6107f6565b005b61012d6004803603810190610128919061192e565b61091a565b60405161013a9190611d28565b60405180910390f35b61015d60048036038101906101589190611d43565b610968565b60405161016a9190611d28565b60405180910390f35b61018d60048036038101906101889190611cc4565b6109fe565b005b6101a960048036038101906101a49190611cc4565b610b22565b005b6101c560048036038101906101c09190611d83565b610c46565b005b6101e160048036038101906101dc919061192e565b610eb3565b005b6101fd60048036038101906101f8919061192e565b611212565b005b606080606080600080606080606060008060008c73ffffffffffffffffffffffffffffffffffffffff1673ffffffffffffffffffffffffffffffffffffffff1681526020019081526020016000209050806000018160010182600201836003018460050160009054906101000a900473ffffffffffffffffffffffffffffffffffffffff1685600401548660060187600701886008018880546102a190611e89565b80601f01602080910402602001604051908101604052809291908181526020018280546102cd90611e89565b801561031a5780601f106102ef5761010080835404028352916020019161031a565b820191906000526020600020905b8154815290600101906020018083116102fd57829003601f168201915b5050505050985087805461032d90611e89565b80601f016020809104026020016040519081016040528092919081815260200182805461035990611e89565b80156103a65780601f1061037b576101008083540402835291602001916103a6565b820191906000526020600020905b81548152906001019060200180831161038957829003601f168201915b505050505097508680546103b990611e89565b80601f01602080910402602001604051908101604052809291908181526020018280546103e590611e89565b80156104325780601f1061040757610100808354040283529160200191610432565b820191906000526020600020905b81548152906001019060200180831161041557829003601f168201915b5050505050965085805461044590611e89565b80601f016020809104026020016040519081016040528092919081815260200182805461047190611e89565b80156104be5780601f10610493576101008083540402835291602001916104be565b820191906000526020600020905b8154815290600101906020018083116104a157829003601f168201915b505050505095508280548060200260200160405190810160405280929190818152602001828054801561054657602002820191906000526020600020905b8160009054906101000a900473ffffffffffffffffffffffffffffffffffffffff1673ffffffffffffffffffffffffffffffffffffffff16815260200190600101908083116104fc575b50505050509250818054806020026020016040519081016040528092919081815260200182805480156105ce57602002820191906000526020600020905b8160009054906101000a900473ffffffffffffffffffffffffffffffffffffffff1673ffffffffffffffffffffffffffffffffffffffff1681526020019060010190808311610584575b505050505091508080548060200260200160405190810160405280929190818152602001828054801561065657602002820191906000526020600020905b8160009054906101000a900473ffffffffffffffffffffffffffffffffffffffff1673ffffffffffffffffffffffffffffffffffffffff168152602001906001019080831161060c575b50505050509050995099509950995099509950995099509950509193959799909294969850565b3360008060008373ffffffffffffffffffffffffffffffffffffffff1673ffffffffffffffffffffffffffffffffffffffff1681526020019081526020016000206004015403610702576040517f08c379a00000000000000000000000000000000000000000000000000000000081526004016106f990611f06565b60405180910390fd5b6000803373ffffffffffffffffffffffffffffffffffffffff1673ffffffffffffffffffffffffffffffffffffffff168152602001908152602001600020600601829080600181540180825580915050600190039060005260206000200160009091909190916101000a81548173ffffffffffffffffffffffffffffffffffffffff021916908373ffffffffffffffffffffffffffffffffffffffff1602179055503373ffffffffffffffffffffffffffffffffffffffff167fe458e9a73810983caae654001d2766b2ddf9c679d7631cb53e5a543095fc4ab8836040516107ea9190611f26565b60405180910390a25050565b60008060003373ffffffffffffffffffffffffffffffffffffffff1673ffffffffffffffffffffffffffffffffffffffff168152602001908152602001600020600401540361087a576040517f08c379a000000000000000000000000000000000000000000000000000000000815260040161087190611f06565b60405180910390fd5b806000803373ffffffffffffffffffffffffffffffffffffffff1673ffffffffffffffffffffffffffffffffffffffff16815260200190815260200160002060030190816108c891906120ed565b503373ffffffffffffffffffffffffffffffffffffffff167f3f838a7d0889a59b2445af5389196b3948170278848eb90d8d256ab14aaf4cf08260405161090f91906121bf565b60405180910390a250565b6000806000808473ffffffffffffffffffffffffffffffffffffffff1673ffffffffffffffffffffffffffffffffffffffff1681526020019081526020016000206004015414159050919050565b60008060008473ffffffffffffffffffffffffffffffffffffffff1673ffffffffffffffffffffffffffffffffffffffff16815260200190815260200160002060090160008373ffffffffffffffffffffffffffffffffffffffff1673ffffffffffffffffffffffffffffffffffffffff16815260200190815260200160002060009054906101000a900460ff16905092915050565b60008060003373ffffffffffffffffffffffffffffffffffffffff1673ffffffffffffffffffffffffffffffffffffffff1681526020019081526020016000206004015403610a82576040517f08c379a0000000000000000000000000000000000000000000000000000000008152600401610a7990611f06565b60405180910390fd5b806000803373ffffffffffffffffffffffffffffffffffffffff1673ffffffffffffffffffffffffffffffffffffffff1681526020019081526020016000206000019081610ad091906120ed565b503373ffffffffffffffffffffffffffffffffffffffff167f74321da206c1b9fa34367f7ece59ca49371dcd13820b9a5c3767ae1ecceed51a82604051610b1791906121bf565b60405180910390a250565b60008060003373ffffffffffffffffffffffffffffffffffffffff1673ffffffffffffffffffffffffffffffffffffffff1681526020019081526020016000206004015403610ba6576040517f08c379a0000000000000000000000000000000000000000000000000000000008152600401610b9d90611f06565b60405180910390fd5b806000803373ffffffffffffffffffffffffffffffffffffffff1673ffffffffffffffffffffffffffffffffffffffff1681526020019081526020016000206002019081610bf491906120ed565b503373ffffffffffffffffffffffffffffffffffffffff167fed6fbee54fb754678a908527ed51cf00840e56cca6b00760c99382dccf6866f982604051610c3b91906121bf565b60405180910390a250565b3273ffffffffffffffffffffffffffffffffffffffff163373ffffffffffffffffffffffffffffffffffffffff1614610cb4576040517f08c379a0000000000000000000000000000000000000000000000000000000008152600401610cab9061222d565b60405180910390fd5b60008060003373ffffffffffffffffffffffffffffffffffffffff1673ffffffffffffffffffffffffffffffffffffffff1681526020019081526020016000206004015414610d38576040517f08c379a0000000000000000000000000000000000000000000000000000000008152600401610d2f90612299565b60405180910390fd5b606060008060003373ffffffffffffffffffffffffffffffffffffffff1673ffffffffffffffffffffffffffffffffffffffff168152602001908152602001600020905085816000019081610d8d91906120ed565b5084816001019081610d9f91906120ed565b5083816002019081610db191906120ed565b5082816003019081610dc391906120ed565b50338160050160006101000a81548173ffffffffffffffffffffffffffffffffffffffff021916908373ffffffffffffffffffffffffffffffffffffffff16021790555042816004018190555081816006019080519060200190610e28929190611815565b5081816007019080519060200190610e41929190611815565b5081816008019080519060200190610e5a929190611815565b503373ffffffffffffffffffffffffffffffffffffffff167f6b4494367229a908b0585b361e2871a21f8eb4cd852c02f55c9e06989f4bb2aa8787604051610ea39291906122b9565b60405180910390a2505050505050565b3360008060008373ffffffffffffffffffffffffffffffffffffffff1673ffffffffffffffffffffffffffffffffffffffff1681526020019081526020016000206004015403610f38576040517f08c379a0000000000000000000000000000000000000000000000000000000008152600401610f2f90611f06565b60405180910390fd5b8160008060008373ffffffffffffffffffffffffffffffffffffffff1673ffffffffffffffffffffffffffffffffffffffff1681526020019081526020016000206004015403610fbd576040517f08c379a0000000000000000000000000000000000000000000000000000000008152600401610fb490611f06565b60405180910390fd5b6000803373ffffffffffffffffffffffffffffffffffffffff1673ffffffffffffffffffffffffffffffffffffffff16815260200190815260200160002060090160008473ffffffffffffffffffffffffffffffffffffffff1673ffffffffffffffffffffffffffffffffffffffff16815260200190815260200160002060009054906101000a900460ff16611088576040517f08c379a000000000000000000000000000000000000000000000000000000000815260040161107f9061233c565b60405180910390fd5b6110d26000803373ffffffffffffffffffffffffffffffffffffffff1673ffffffffffffffffffffffffffffffffffffffff16815260200190815260200160002060080184611690565b61111c6000808573ffffffffffffffffffffffffffffffffffffffff1673ffffffffffffffffffffffffffffffffffffffff16815260200190815260200160002060070133611690565b60008060003373ffffffffffffffffffffffffffffffffffffffff1673ffffffffffffffffffffffffffffffffffffffff16815260200190815260200160002060090160008573ffffffffffffffffffffffffffffffffffffffff1673ffffffffffffffffffffffffffffffffffffffff16815260200190815260200160002060006101000a81548160ff0219169083151502179055508273ffffffffffffffffffffffffffffffffffffffff163373ffffffffffffffffffffffffffffffffffffffff167f419121623423a48065b2f8c9b4afa46275109387f6844162586a76ec73772bd160405160405180910390a3505050565b3360008060008373ffffffffffffffffffffffffffffffffffffffff1673ffffffffffffffffffffffffffffffffffffffff1681526020019081526020016000206004015403611297576040517f08c379a000000000000000000000000000000000000000000000000000000000815260040161128e90611f06565b60405180910390fd5b8160008060008373ffffffffffffffffffffffffffffffffffffffff1673ffffffffffffffffffffffffffffffffffffffff168152602001908152602001600020600401540361131c576040517f08c379a000000000000000000000000000000000000000000000000000000000815260040161131390611f06565b60405180910390fd5b3373ffffffffffffffffffffffffffffffffffffffff168373ffffffffffffffffffffffffffffffffffffffff160361138a576040517f08c379a0000000000000000000000000000000000000000000000000000000008152600401611381906123a8565b60405180910390fd5b6000803373ffffffffffffffffffffffffffffffffffffffff1673ffffffffffffffffffffffffffffffffffffffff16815260200190815260200160002060090160008473ffffffffffffffffffffffffffffffffffffffff1673ffffffffffffffffffffffffffffffffffffffff16815260200190815260200160002060009054906101000a900460ff1615611456576040517f08c379a000000000000000000000000000000000000000000000000000000000815260040161144d90612414565b60405180910390fd5b6000803373ffffffffffffffffffffffffffffffffffffffff1673ffffffffffffffffffffffffffffffffffffffff168152602001908152602001600020600801839080600181540180825580915050600190039060005260206000200160009091909190916101000a81548173ffffffffffffffffffffffffffffffffffffffff021916908373ffffffffffffffffffffffffffffffffffffffff1602179055506000808473ffffffffffffffffffffffffffffffffffffffff1673ffffffffffffffffffffffffffffffffffffffff168152602001908152602001600020600701339080600181540180825580915050600190039060005260206000200160009091909190916101000a81548173ffffffffffffffffffffffffffffffffffffffff021916908373ffffffffffffffffffffffffffffffffffffffff16021790555060016000803373ffffffffffffffffffffffffffffffffffffffff1673ffffffffffffffffffffffffffffffffffffffff16815260200190815260200160002060090160008573ffffffffffffffffffffffffffffffffffffffff1673ffffffffffffffffffffffffffffffffffffffff16815260200190815260200160002060006101000a81548160ff0219169083151502179055508273ffffffffffffffffffffffffffffffffffffffff163373ffffffffffffffffffffffffffffffffffffffff167f647af55bc68e3d0a06d9c3f1607d0521daa8df957d1a9d47db70c9955a1e186a60405160405180910390a3505050565b60008280549050905060005b8181101561180f578273ffffffffffffffffffffffffffffffffffffffff168482815481106116ce576116cd612434565b5b9060005260206000200160009054906101000a900473ffffffffffffffffffffffffffffffffffffffff1673ffffffffffffffffffffffffffffffffffffffff160361180457836001836117229190612492565b8154811061173357611732612434565b5b9060005260206000200160009054906101000a900473ffffffffffffffffffffffffffffffffffffffff1684828154811061177157611770612434565b5b9060005260206000200160006101000a81548173ffffffffffffffffffffffffffffffffffffffff021916908373ffffffffffffffffffffffffffffffffffffffff160217905550838054806117ca576117c96124c6565b5b6001900381819060005260206000200160006101000a81549073ffffffffffffffffffffffffffffffffffffffff0219169055905561180f565b80600101905061169c565b50505050565b82805482825590600052602060002090810192821561188e579160200282015b8281111561188d5782518260006101000a81548173ffffffffffffffffffffffffffffffffffffffff021916908373ffffffffffffffffffffffffffffffffffffffff16021790555091602001919060010190611835565b5b50905061189b919061189f565b5090565b5b808211156118b85760008160009055506001016118a0565b5090565b6000604051905090565b600080fd5b600080fd5b600073ffffffffffffffffffffffffffffffffffffffff82169050919050565b60006118fb826118d0565b9050919050565b61190b816118f0565b811461191657600080fd5b50565b60008135905061192881611902565b92915050565b600060208284031215611944576119436118c6565b5b600061195284828501611919565b91505092915050565b600081519050919050565b600082825260208201905092915050565b60005b8381101561199557808201518184015260208101905061197a565b60008484015250505050565b6000601f19601f8301169050919050565b60006119bd8261195b565b6119c78185611966565b93506119d7818560208601611977565b6119e0816119a1565b840191505092915050565b6119f4816118f0565b82525050565b6000819050919050565b611a0d816119fa565b82525050565b600081519050919050565b600082825260208201905092915050565b6000819050602082019050919050565b611a48816118f0565b82525050565b6000611a5a8383611a3f565b60208301905092915050565b6000602082019050919050565b6000611a7e82611a13565b611a888185611a1e565b9350611a9383611a2f565b8060005b83811015611ac4578151611aab8882611a4e565b9750611ab683611a66565b925050600181019050611a97565b5085935050505092915050565b6000610120820190508181036000830152611aec818c6119b2565b90508181036020830152611b00818b6119b2565b90508181036040830152611b14818a6119b2565b90508181036060830152611b2881896119b2565b9050611b3760808301886119eb565b611b4460a0830187611a04565b81810360c0830152611b568186611a73565b905081810360e0830152611b6a8185611a73565b9050818103610100830152611b7f8184611a73565b90509a9950505050505050505050565b600080fd5b600080fd5b7f4e487b7100000000000000000000000000000000000000000000000000000000600052604160045260246000fd5b611bd1826119a1565b810181811067ffffffffffffffff82111715611bf057611bef611b99565b5b80604052505050565b6000611c036118bc565b9050611c0f8282611bc8565b919050565b600067ffffffffffffffff821115611c2f57611c2e611b99565b5b611c38826119a1565b9050602081019050919050565b82818337600083830152505050565b6000611c67611c6284611c14565b611bf9565b905082815260208101848484011115611c8357611c82611b94565b5b611c8e848285611c45565b509392505050565b600082601f830112611cab57611caa611b8f565b5b8135611cbb848260208601611c54565b91505092915050565b600060208284031215611cda57611cd96118c6565b5b600082013567ffffffffffffffff811115611cf857611cf76118cb565b5b611d0484828501611c96565b91505092915050565b60008115159050919050565b611d2281611d0d565b82525050565b6000602082019050611d3d6000830184611d19565b92915050565b60008060408385031215611d5a57611d596118c6565b5b6000611d6885828601611919565b9250506020611d7985828601611919565b9150509250929050565b60008060008060808587031215611d9d57611d9c6118c6565b5b600085013567ffffffffffffffff811115611dbb57611dba6118cb565b5b611dc787828801611c96565b945050602085013567ffffffffffffffff811115611de857611de76118cb565b5b611df487828801611c96565b935050604085013567ffffffffffffffff811115611e1557611e146118cb565b5b611e2187828801611c96565b925050606085013567ffffffffffffffff811115611e4257611e416118cb565b5b611e4e87828801611c96565b91505092959194509250565b7f4e487b7100000000000000000000000000000000000000000000000000000000600052602260045260246000fd5b60006002820490506001821680611ea157607f821691505b602082108103611eb457611eb3611e5a565b5b50919050565b7f50726f66696c6520646f65736e27742065786973740000000000000000000000600082015250565b6000611ef0601583611966565b9150611efb82611eba565b602082019050919050565b60006020820190508181036000830152611f1f81611ee3565b9050919050565b6000602082019050611f3b60008301846119eb565b92915050565b60008190508160005260206000209050919050565b60006020601f8301049050919050565b600082821b905092915050565b600060088302611fa37fffffffffffffffffffffffffffffffffffffffffffffffffffffffffffffffff82611f66565b611fad8683611f66565b95508019841693508086168417925050509392505050565b6000819050919050565b6000611fea611fe5611fe0846119fa565b611fc5565b6119fa565b9050919050565b6000819050919050565b61200483611fcf565b61201861201082611ff1565b848454611f73565b825550505050565b600090565b61202d612020565b612038818484611ffb565b505050565b5b8181101561205c57612051600082612025565b60018101905061203e565b5050565b601f8211156120a15761207281611f41565b61207b84611f56565b8101602085101561208a578190505b61209e61209685611f56565b83018261203d565b50505b505050565b600082821c905092915050565b60006120c4600019846008026120a6565b1980831691505092915050565b60006120dd83836120b3565b9150826002028217905092915050565b6120f68261195b565b67ffffffffffffffff81111561210f5761210e611b99565b5b6121198254611e89565b612124828285612060565b600060209050601f8311600181146121575760008415612145578287015190505b61214f85826120d1565b8655506121b7565b601f19841661216586611f41565b60005b8281101561218d57848901518255600182019150602085019450602081019050612168565b868310156121aa57848901516121a6601f8916826120b3565b8355505b6001600288020188555050505b505050505050565b600060208201905081810360008301526121d981846119b2565b905092915050565b7f4e6f20636f6e74726163747320616c6c6f776564000000000000000000000000600082015250565b6000612217601483611966565b9150612222826121e1565b602082019050919050565b600060208201905081810360008301526122468161220a565b9050919050565b7f50726f66696c6520616c72656164792065786973747300000000000000000000600082015250565b6000612283601683611966565b915061228e8261224d565b602082019050919050565b600060208201905081810360008301526122b281612276565b9050919050565b600060408201905081810360008301526122d381856119b2565b905081810360208301526122e781846119b2565b90509392505050565b7f4e6f7420626c697070696e672074686973207573657200000000000000000000600082015250565b6000612326601683611966565b9150612331826122f0565b602082019050919050565b6000602082019050818103600083015261235581612319565b9050919050565b7f43616e6e6f7420626c697020796f757273656c66000000000000000000000000600082015250565b6000612392601483611966565b915061239d8261235c565b602082019050919050565b600060208201905081810360008301526123c181612385565b9050919050565b7f416c726561647920626c697070696e6720746869732075736572000000000000600082015250565b60006123fe601a83611966565b9150612409826123c8565b602082019050919050565b6000602082019050818103600083015261242d816123f1565b9050919050565b7f4e487b7100000000000000000000000000000000000000000000000000000000600052603260045260246000fd5b7f4e487b7100000000000000000000000000000000000000000000000000000000600052601160045260246000fd5b600061249d826119fa565b91506124a8836119fa565b92508282039050818111156124c0576124bf612463565b5b92915050565b7f4e487b7100000000000000000000000000000000000000000000000000000000600052603160045260246000fdfea26469706673582212204ecfed521874b6966efc00d0100e41d91c36aaf47198051db950042864d2b50c64736f6c634300081c0033",
  "linkReferences": {},
  "deployedLinkReferences": {}
}