{
  "_format": "hh-sol-artifact-1",
  "contractName": "BlipProfile",
  "sourceName": "contracts/BlipProfile.sol",
  "abi": [
    {
      "anonymous": false,
      "inputs": [
        {
          "indexed": true,
          "internalType": "address",
          "name": "user",
          "type": "address"
        },
        {
          "indexed": false,
          "internalType": "string",
          "name": "newBio",
          "type": "string"
        }
      ],
      "name": "BioUpdated",
      "type": "event"
    },
    {
      "anonymous": false,
      "inputs": [
        {
          "indexed": true,
          "internalType": "address",
          "name": "by",
          "type": "address"
        },
        {
          "indexed": true,
          "internalType": "address",
          "name": "newFriend",
          "type": "address"
        }
      ],
      "name": "FriendAdded",
      "type": "event"
    },
    {
      "anonymous": false,
      "inputs": [
        {
          "indexed": true,
          "internalType": "address",
          "name": "by",
          "type": "address"
        },
        {
          "indexed": true,
          "internalType": "address",
          "name": "exFriend",
          "type": "address"
        }
      ],
      "name": "FriendRemoved",
      "type": "event"
    },
    {
      "anonymous": false,
      "inputs": [
        {
          "indexed": true,
          "internalType": "address",
          "name": "user",
          "type": "address"
        },
        {
          "indexed": false,
          "internalType": "string",
          "name": "newName",
          "type": "string"
        }
      ],
      "name": "NameUpdated",
      "type": "event"
    },
    {
      "anonymous": false,
      "inputs": [
        {
          "indexed": true,
          "internalType": "address",
          "name": "user",
          "type": "address"
        },
        {
          "indexed": false,
          "internalType": "string",
          "name": "text",
          "type": "string"
        },
        {
          "indexed": false,
          "internalType": "bool",
          "name": "isPublic",
          "type": "bool"
        }
      ],
      "name": "PostAdded",
      "type": "event"
    },
    {
      "inputs": [
        {
          "internalType": "address",
          "name": "newFriend",
          "type": "address"
        }
      ],
      "name": "addFriend",
      "outputs": [],
      "stateMutability": "nonpayable",
      "type": "function"
    },
    {
      "inputs": [
        {
          "internalType": "string",
          "name": "text",
          "type": "string"
        },
        {
          "internalType": "bool",
          "name": "isPublic",
          "type": "bool"
        }
      ],
      "name": "addPost",
      "outputs": [],
      "stateMutability": "nonpayable",
      "type": "function"
    },
    {
      "inputs": [
        {
          "internalType": "string",
          "name": "name",
          "type": "string"
        },
        {
          "internalType": "string",
          "name": "email",
          "type": "string"
        },
        {
          "internalType": "string",
          "name": "bio",
          "type": "string"
        }
      ],
      "name": "createProfile",
      "outputs": [],
      "stateMutability": "nonpayable",
      "type": "function"
    },
    {
      "inputs": [
        {
          "internalType": "string",
          "name": "email",
          "type": "string"
        }
      ],
      "name": "emailExists",
      "outputs": [
        {
          "internalType": "bool",
          "name": "",
          "type": "bool"
        }
      ],
      "stateMutability": "view",
      "type": "function"
    },
    {
      "inputs": [
        {
          "internalType": "address",
          "name": "user",
          "type": "address"
        }
      ],
      "name": "getFriends",
      "outputs": [
        {
          "internalType": "address[]",
          "name": "",
          "type": "address[]"
        }
      ],
      "stateMutability": "view",
      "type": "function"
    },
    {
      "inputs": [
        {
          "internalType": "address",
          "name": "user",
          "type": "address"
        }
      ],
      "name": "getPosts",
      "outputs": [
        {
          "components": [
            {
              "internalType": "string",
              "name": "text",
              "type": "string"
            },
            {
              "internalType": "uint256",
              "name": "timestamp",
              "type": "uint256"
            },
            {
              "internalType": "bool",
              "name": "isPublic",
              "type": "bool"
            }
          ],
          "internalType": "struct BlipProfile.Post[]",
          "name": "",
          "type": "tuple[]"
        }
      ],
      "stateMutability": "view",
      "type": "function"
    },
    {
      "inputs": [
        {
          "internalType": "address",
          "name": "user",
          "type": "address"
        }
      ],
      "name": "getProfile",
      "outputs": [
        {
          "internalType": "string",
          "name": "name",
          "type": "string"
        },
        {
          "internalType": "string",
          "name": "email",
          "type": "string"
        },
        {
          "internalType": "string",
          "name": "bio",
          "type": "string"
        },
        {
          "internalType": "address",
          "name": "wallet",
          "type": "address"
        },
        {
          "internalType": "uint256",
          "name": "createdAt",
          "type": "uint256"
        },
        {
          "components": [
            {
              "internalType": "string",
              "name": "text",
              "type": "string"
            },
            {
              "internalType": "uint256",
              "name": "timestamp",
              "type": "uint256"
            },
            {
              "internalType": "bool",
              "name": "isPublic",
              "type": "bool"
            }
          ],
          "internalType": "struct BlipProfile.Post[]",
          "name": "posts",
          "type": "tuple[]"
        }
      ],
      "stateMutability": "view",
      "type": "function"
    },
    {
      "inputs": [
        {
          "internalType": "string",
          "name": "email",
          "type": "string"
        }
      ],
      "name": "getProfileByEmail",
      "outputs": [
        {
          "internalType": "string",
          "name": "name",
          "type": "string"
        },
        {
          "internalType": "string",
          "name": "emailOut",
          "type": "string"
        },
        {
          "internalType": "string",
          "name": "bio",
          "type": "string"
        },
        {
          "internalType": "address",
          "name": "wallet",
          "type": "address"
        },
        {
          "internalType": "uint256",
          "name": "createdAt",
          "type": "uint256"
        },
        {
          "components": [
            {
              "internalType": "string",
              "name": "text",
              "type": "string"
            },
            {
              "internalType": "uint256",
              "name": "timestamp",
              "type": "uint256"
            },
            {
              "internalType": "bool",
              "name": "isPublic",
              "type": "bool"
            }
          ],
          "internalType": "struct BlipProfile.Post[]",
          "name": "posts",
          "type": "tuple[]"
        }
      ],
      "stateMutability": "view",
      "type": "function"
    },
    {
      "inputs": [
        {
          "internalType": "string",
          "name": "email",
          "type": "string"
        }
      ],
      "name": "getWalletByEmail",
      "outputs": [
        {
          "internalType": "address",
          "name": "",
          "type": "address"
        }
      ],
      "stateMutability": "view",
      "type": "function"
    },
    {
      "inputs": [
        {
          "internalType": "address",
          "name": "user1",
          "type": "address"
        },
        {
          "internalType": "address",
          "name": "user2",
          "type": "address"
        }
      ],
      "name": "isFriend",
      "outputs": [
        {
          "internalType": "bool",
          "name": "",
          "type": "bool"
        }
      ],
      "stateMutability": "view",
      "type": "function"
    },
    {
      "inputs": [
        {
          "internalType": "address",
          "name": "exFriend",
          "type": "address"
        }
      ],
      "name": "removeFriend",
      "outputs": [],
      "stateMutability": "nonpayable",
      "type": "function"
    },
    {
      "inputs": [
        {
          "internalType": "string",
          "name": "newBio",
          "type": "string"
        }
      ],
      "name": "updateBio",
      "outputs": [],
      "stateMutability": "nonpayable",
      "type": "function"
    },
    {
      "inputs": [
        {
          "internalType": "string",
          "name": "newName",
          "type": "string"
        }
      ],
      "name": "updateName",
      "outputs": [],
      "stateMutability": "nonpayable",
      "type": "function"
    }
  ],
  "bytecode": "0x6080604052348015600f57600080fd5b50612b2a8061001f6000396000f3fe608060405234801561001057600080fd5b50600436106100cf5760003560e01c80636c2eec281161008c57806384da92a71161006657806384da92a71461024d5780639841c82c14610269578063d7a1cfe114610285578063f8f5698c146102a1576100cf565b80636c2eec28146101e557806376487b381461021557806380cee8a514610231576100cf565b80630f53a470146100d45780631da6e17c146101095780632be46c3c146101255780632da5d42e146101555780634caf9d0b146101855780635cbb7caa146101b5575b600080fd5b6100ee60048036038101906100e99190611e39565b6102d6565b604051610100969594939291906120a4565b60405180910390f35b610123600480360381019061011e9190612282565b6106ac565b005b61013f600480360381019061013a91906122de565b61084f565b60405161014c9190612336565b60405180910390f35b61016f600480360381019061016a9190612351565b6108c6565b60405161017c9190612336565b60405180910390f35b61019f600480360381019061019a9190611e39565b61095c565b6040516101ac9190612391565b60405180910390f35b6101cf60048036038101906101ca9190611e39565b610b39565b6040516101dc9190612471565b60405180910390f35b6101ff60048036038101906101fa91906122de565b610c8e565b60405161020c9190612493565b60405180910390f35b61022f600480360381019061022a91906122de565b610cd6565b005b61024b60048036038101906102469190611e39565b610dfc565b005b610267600480360381019061026291906122de565b61115e565b005b610283600480360381019061027e91906124ae565b611284565b005b61029f600480360381019061029a9190611e39565b61151d565b005b6102bb60048036038101906102b691906122de565b6119c4565b6040516102cd969594939291906120a4565b60405180910390f35b606080606060008060608660008060008373ffffffffffffffffffffffffffffffffffffffff1673ffffffffffffffffffffffffffffffffffffffff1681526020019081526020016000206003015403610365576040517f08c379a000000000000000000000000000000000000000000000000000000000815260040161035c906125a1565b60405180910390fd5b60008060008a73ffffffffffffffffffffffffffffffffffffffff1673ffffffffffffffffffffffffffffffffffffffff16815260200190815260200160002090508060000181600101826002018360040160009054906101000a900473ffffffffffffffffffffffffffffffffffffffff168460030154856005018580546103ed906125f0565b80601f0160208091040260200160405190810160405280929190818152602001828054610419906125f0565b80156104665780601f1061043b57610100808354040283529160200191610466565b820191906000526020600020905b81548152906001019060200180831161044957829003601f168201915b50505050509550848054610479906125f0565b80601f01602080910402602001604051908101604052809291908181526020018280546104a5906125f0565b80156104f25780601f106104c7576101008083540402835291602001916104f2565b820191906000526020600020905b8154815290600101906020018083116104d557829003601f168201915b50505050509450838054610505906125f0565b80601f0160208091040260200160405190810160405280929190818152602001828054610531906125f0565b801561057e5780601f106105535761010080835404028352916020019161057e565b820191906000526020600020905b81548152906001019060200180831161056157829003601f168201915b5050505050935080805480602002602001604051908101604052809291908181526020016000905b8282101561068f57838290600052602060002090600302016040518060600160405290816000820180546105d9906125f0565b80601f0160208091040260200160405190810160405280929190818152602001828054610605906125f0565b80156106525780601f1061062757610100808354040283529160200191610652565b820191906000526020600020905b81548152906001019060200180831161063557829003601f168201915b50505050508152602001600182015481526020016002820160009054906101000a900460ff161515151581525050815260200190600101906105a6565b505050509050975097509750975097509750505091939550919395565b3360008060008373ffffffffffffffffffffffffffffffffffffffff1673ffffffffffffffffffffffffffffffffffffffff1681526020019081526020016000206003015403610731576040517f08c379a0000000000000000000000000000000000000000000000000000000008152600401610728906125a1565b60405180910390fd5b6000803373ffffffffffffffffffffffffffffffffffffffff1673ffffffffffffffffffffffffffffffffffffffff1681526020019081526020016000206005016040518060600160405280858152602001428152602001841515815250908060018154018082558091505060019003906000526020600020906003020160009091909190915060008201518160000190816107cd91906127cd565b506020820151816001015560408201518160020160006101000a81548160ff02191690831515021790555050503373ffffffffffffffffffffffffffffffffffffffff167f264ef7c88299d51aa830b1899ba849e40fab5e415251f79c047b86b7b1c542d2848460405161084292919061289f565b60405180910390a2505050565b60008073ffffffffffffffffffffffffffffffffffffffff16600183604051610878919061290b565b908152602001604051809103902060009054906101000a900473ffffffffffffffffffffffffffffffffffffffff1673ffffffffffffffffffffffffffffffffffffffff1614159050919050565b60008060008473ffffffffffffffffffffffffffffffffffffffff1673ffffffffffffffffffffffffffffffffffffffff16815260200190815260200160002060060160008373ffffffffffffffffffffffffffffffffffffffff1673ffffffffffffffffffffffffffffffffffffffff16815260200190815260200160002060009054906101000a900460ff16905092915050565b60608160008060008373ffffffffffffffffffffffffffffffffffffffff1673ffffffffffffffffffffffffffffffffffffffff16815260200190815260200160002060030154036109e3576040517f08c379a00000000000000000000000000000000000000000000000000000000081526004016109da906125a1565b60405180910390fd5b6000808473ffffffffffffffffffffffffffffffffffffffff1673ffffffffffffffffffffffffffffffffffffffff168152602001908152602001600020600501805480602002602001604051908101604052809291908181526020016000905b82821015610b2d5783829060005260206000209060030201604051806060016040529081600082018054610a77906125f0565b80601f0160208091040260200160405190810160405280929190818152602001828054610aa3906125f0565b8015610af05780601f10610ac557610100808354040283529160200191610af0565b820191906000526020600020905b815481529060010190602001808311610ad357829003601f168201915b50505050508152602001600182015481526020016002820160009054906101000a900460ff16151515158152505081526020019060010190610a44565b50505050915050919050565b60608160008060008373ffffffffffffffffffffffffffffffffffffffff1673ffffffffffffffffffffffffffffffffffffffff1681526020019081526020016000206003015403610bc0576040517f08c379a0000000000000000000000000000000000000000000000000000000008152600401610bb7906125a1565b60405180910390fd5b6000808473ffffffffffffffffffffffffffffffffffffffff1673ffffffffffffffffffffffffffffffffffffffff168152602001908152602001600020600701805480602002602001604051908101604052809291908181526020018280548015610c8157602002820191906000526020600020905b8160009054906101000a900473ffffffffffffffffffffffffffffffffffffffff1673ffffffffffffffffffffffffffffffffffffffff1681526020019060010190808311610c37575b5050505050915050919050565b6000600182604051610ca0919061290b565b908152602001604051809103902060009054906101000a900473ffffffffffffffffffffffffffffffffffffffff169050919050565b3360008060008373ffffffffffffffffffffffffffffffffffffffff1673ffffffffffffffffffffffffffffffffffffffff1681526020019081526020016000206003015403610d5b576040517f08c379a0000000000000000000000000000000000000000000000000000000008152600401610d52906125a1565b60405180910390fd5b816000803373ffffffffffffffffffffffffffffffffffffffff1673ffffffffffffffffffffffffffffffffffffffff1681526020019081526020016000206002019081610da991906127cd565b503373ffffffffffffffffffffffffffffffffffffffff167f3f838a7d0889a59b2445af5389196b3948170278848eb90d8d256ab14aaf4cf083604051610df09190612922565b60405180910390a25050565b3360008060008373ffffffffffffffffffffffffffffffffffffffff1673ffffffffffffffffffffffffffffffffffffffff1681526020019081526020016000206003015403610e81576040517f08c379a0000000000000000000000000000000000000000000000000000000008152600401610e78906125a1565b60405180910390fd5b8160008060008373ffffffffffffffffffffffffffffffffffffffff1673ffffffffffffffffffffffffffffffffffffffff1681526020019081526020016000206003015403610f06576040517f08c379a0000000000000000000000000000000000000000000000000000000008152600401610efd906125a1565b60405180910390fd5b6000803373ffffffffffffffffffffffffffffffffffffffff1673ffffffffffffffffffffffffffffffffffffffff16815260200190815260200160002060060160008473ffffffffffffffffffffffffffffffffffffffff1673ffffffffffffffffffffffffffffffffffffffff16815260200190815260200160002060009054906101000a900460ff16610fd1576040517f08c379a0000000000000000000000000000000000000000000000000000000008152600401610fc890612990565b60405180910390fd5b60008060003373ffffffffffffffffffffffffffffffffffffffff1673ffffffffffffffffffffffffffffffffffffffff16815260200190815260200160002060060160008573ffffffffffffffffffffffffffffffffffffffff1673ffffffffffffffffffffffffffffffffffffffff16815260200190815260200160002060006101000a81548160ff02191690831515021790555060008060008573ffffffffffffffffffffffffffffffffffffffff1673ffffffffffffffffffffffffffffffffffffffff16815260200190815260200160002060060160003373ffffffffffffffffffffffffffffffffffffffff1673ffffffffffffffffffffffffffffffffffffffff16815260200190815260200160002060006101000a81548160ff0219169083151502179055508273ffffffffffffffffffffffffffffffffffffffff163373ffffffffffffffffffffffffffffffffffffffff167fa8e30f48064c886d284e961fb10cf21ed57c5f0b0b414f6bc390008552a15f9060405160405180910390a3505050565b3360008060008373ffffffffffffffffffffffffffffffffffffffff1673ffffffffffffffffffffffffffffffffffffffff16815260200190815260200160002060030154036111e3576040517f08c379a00000000000000000000000000000000000000000000000000000000081526004016111da906125a1565b60405180910390fd5b816000803373ffffffffffffffffffffffffffffffffffffffff1673ffffffffffffffffffffffffffffffffffffffff168152602001908152602001600020600001908161123191906127cd565b503373ffffffffffffffffffffffffffffffffffffffff167f74321da206c1b9fa34367f7ece59ca49371dcd13820b9a5c3767ae1ecceed51a836040516112789190612922565b60405180910390a25050565b60008060003373ffffffffffffffffffffffffffffffffffffffff1673ffffffffffffffffffffffffffffffffffffffff1681526020019081526020016000206003015414611308576040517f08c379a00000000000000000000000000000000000000000000000000000000081526004016112ff906129fc565b60405180910390fd5b826000803373ffffffffffffffffffffffffffffffffffffffff1673ffffffffffffffffffffffffffffffffffffffff168152602001908152602001600020600001908161135691906127cd565b50816000803373ffffffffffffffffffffffffffffffffffffffff1673ffffffffffffffffffffffffffffffffffffffff16815260200190815260200160002060010190816113a591906127cd565b50806000803373ffffffffffffffffffffffffffffffffffffffff1673ffffffffffffffffffffffffffffffffffffffff16815260200190815260200160002060020190816113f491906127cd565b50336000803373ffffffffffffffffffffffffffffffffffffffff1673ffffffffffffffffffffffffffffffffffffffff16815260200190815260200160002060040160006101000a81548173ffffffffffffffffffffffffffffffffffffffff021916908373ffffffffffffffffffffffffffffffffffffffff160217905550426000803373ffffffffffffffffffffffffffffffffffffffff1673ffffffffffffffffffffffffffffffffffffffff16815260200190815260200160002060030181905550336001836040516114cc919061290b565b908152602001604051809103902060006101000a81548173ffffffffffffffffffffffffffffffffffffffff021916908373ffffffffffffffffffffffffffffffffffffffff160217905550505050565b3360008060008373ffffffffffffffffffffffffffffffffffffffff1673ffffffffffffffffffffffffffffffffffffffff16815260200190815260200160002060030154036115a2576040517f08c379a0000000000000000000000000000000000000000000000000000000008152600401611599906125a1565b60405180910390fd5b8160008060008373ffffffffffffffffffffffffffffffffffffffff1673ffffffffffffffffffffffffffffffffffffffff1681526020019081526020016000206003015403611627576040517f08c379a000000000000000000000000000000000000000000000000000000000815260040161161e906125a1565b60405180910390fd5b6000803373ffffffffffffffffffffffffffffffffffffffff1673ffffffffffffffffffffffffffffffffffffffff16815260200190815260200160002060060160008473ffffffffffffffffffffffffffffffffffffffff1673ffffffffffffffffffffffffffffffffffffffff16815260200190815260200160002060009054906101000a900460ff16156116f3576040517f08c379a00000000000000000000000000000000000000000000000000000000081526004016116ea90612a68565b60405180910390fd5b60016000803373ffffffffffffffffffffffffffffffffffffffff1673ffffffffffffffffffffffffffffffffffffffff16815260200190815260200160002060060160008573ffffffffffffffffffffffffffffffffffffffff1673ffffffffffffffffffffffffffffffffffffffff16815260200190815260200160002060006101000a81548160ff0219169083151502179055506000803373ffffffffffffffffffffffffffffffffffffffff1673ffffffffffffffffffffffffffffffffffffffff168152602001908152602001600020600701839080600181540180825580915050600190039060005260206000200160009091909190916101000a81548173ffffffffffffffffffffffffffffffffffffffff021916908373ffffffffffffffffffffffffffffffffffffffff16021790555060016000808573ffffffffffffffffffffffffffffffffffffffff1673ffffffffffffffffffffffffffffffffffffffff16815260200190815260200160002060060160003373ffffffffffffffffffffffffffffffffffffffff1673ffffffffffffffffffffffffffffffffffffffff16815260200190815260200160002060006101000a81548160ff0219169083151502179055506000808473ffffffffffffffffffffffffffffffffffffffff1673ffffffffffffffffffffffffffffffffffffffff168152602001908152602001600020600701339080600181540180825580915050600190039060005260206000200160009091909190916101000a81548173ffffffffffffffffffffffffffffffffffffffff021916908373ffffffffffffffffffffffffffffffffffffffff1602179055508273ffffffffffffffffffffffffffffffffffffffff163373ffffffffffffffffffffffffffffffffffffffff167f6cbc8134e69f02f9dbaa28d8f3d760a490876f55060afa4d6882a86c2590cc7b60405160405180910390a3505050565b6060806060600080606060006001886040516119e0919061290b565b908152602001604051809103902060009054906101000a900473ffffffffffffffffffffffffffffffffffffffff169050600073ffffffffffffffffffffffffffffffffffffffff168173ffffffffffffffffffffffffffffffffffffffff1603611a80576040517f08c379a0000000000000000000000000000000000000000000000000000000008152600401611a7790612ad4565b60405180910390fd5b60008060008373ffffffffffffffffffffffffffffffffffffffff1673ffffffffffffffffffffffffffffffffffffffff16815260200190815260200160002090508060000181600101826002018360040160009054906101000a900473ffffffffffffffffffffffffffffffffffffffff16846003015485600501858054611b08906125f0565b80601f0160208091040260200160405190810160405280929190818152602001828054611b34906125f0565b8015611b815780601f10611b5657610100808354040283529160200191611b81565b820191906000526020600020905b815481529060010190602001808311611b6457829003601f168201915b50505050509550848054611b94906125f0565b80601f0160208091040260200160405190810160405280929190818152602001828054611bc0906125f0565b8015611c0d5780601f10611be257610100808354040283529160200191611c0d565b820191906000526020600020905b815481529060010190602001808311611bf057829003601f168201915b50505050509450838054611c20906125f0565b80601f0160208091040260200160405190810160405280929190818152602001828054611c4c906125f0565b8015611c995780601f10611c6e57610100808354040283529160200191611c99565b820191906000526020600020905b815481529060010190602001808311611c7c57829003601f168201915b5050505050935080805480602002602001604051908101604052809291908181526020016000905b82821015611daa5783829060005260206000209060030201604051806060016040529081600082018054611cf4906125f0565b80601f0160208091040260200160405190810160405280929190818152602001828054611d20906125f0565b8015611d6d5780601f10611d4257610100808354040283529160200191611d6d565b820191906000526020600020905b815481529060010190602001808311611d5057829003601f168201915b50505050508152602001600182015481526020016002820160009054906101000a900460ff16151515158152505081526020019060010190611cc1565b505050509050975097509750975097509750505091939550919395565b6000604051905090565b600080fd5b600080fd5b600073ffffffffffffffffffffffffffffffffffffffff82169050919050565b6000611e0682611ddb565b9050919050565b611e1681611dfb565b8114611e2157600080fd5b50565b600081359050611e3381611e0d565b92915050565b600060208284031215611e4f57611e4e611dd1565b5b6000611e5d84828501611e24565b91505092915050565b600081519050919050565b600082825260208201905092915050565b60005b83811015611ea0578082015181840152602081019050611e85565b60008484015250505050565b6000601f19601f8301169050919050565b6000611ec882611e66565b611ed28185611e71565b9350611ee2818560208601611e82565b611eeb81611eac565b840191505092915050565b611eff81611dfb565b82525050565b6000819050919050565b611f1881611f05565b82525050565b600081519050919050565b600082825260208201905092915050565b6000819050602082019050919050565b600082825260208201905092915050565b6000611f6682611e66565b611f708185611f4a565b9350611f80818560208601611e82565b611f8981611eac565b840191505092915050565b611f9d81611f05565b82525050565b60008115159050919050565b611fb881611fa3565b82525050565b60006060830160008301518482036000860152611fdb8282611f5b565b9150506020830151611ff06020860182611f94565b5060408301516120036040860182611faf565b508091505092915050565b600061201a8383611fbe565b905092915050565b6000602082019050919050565b600061203a82611f1e565b6120448185611f29565b93508360208202850161205685611f3a565b8060005b858110156120925784840389528151612073858261200e565b945061207e83612022565b925060208a0199505060018101905061205a565b50829750879550505050505092915050565b600060c08201905081810360008301526120be8189611ebd565b905081810360208301526120d28188611ebd565b905081810360408301526120e68187611ebd565b90506120f56060830186611ef6565b6121026080830185611f0f565b81810360a0830152612114818461202f565b9050979650505050505050565b600080fd5b600080fd5b7f4e487b7100000000000000000000000000000000000000000000000000000000600052604160045260246000fd5b61216382611eac565b810181811067ffffffffffffffff821117156121825761218161212b565b5b80604052505050565b6000612195611dc7565b90506121a1828261215a565b919050565b600067ffffffffffffffff8211156121c1576121c061212b565b5b6121ca82611eac565b9050602081019050919050565b82818337600083830152505050565b60006121f96121f4846121a6565b61218b565b90508281526020810184848401111561221557612214612126565b5b6122208482856121d7565b509392505050565b600082601f83011261223d5761223c612121565b5b813561224d8482602086016121e6565b91505092915050565b61225f81611fa3565b811461226a57600080fd5b50565b60008135905061227c81612256565b92915050565b6000806040838503121561229957612298611dd1565b5b600083013567ffffffffffffffff8111156122b7576122b6611dd6565b5b6122c385828601612228565b92505060206122d48582860161226d565b9150509250929050565b6000602082840312156122f4576122f3611dd1565b5b600082013567ffffffffffffffff81111561231257612311611dd6565b5b61231e84828501612228565b91505092915050565b61233081611fa3565b82525050565b600060208201905061234b6000830184612327565b92915050565b6000806040838503121561236857612367611dd1565b5b600061237685828601611e24565b925050602061238785828601611e24565b9150509250929050565b600060208201905081810360008301526123ab818461202f565b905092915050565b600081519050919050565b600082825260208201905092915050565b6000819050602082019050919050565b6123e881611dfb565b82525050565b60006123fa83836123df565b60208301905092915050565b6000602082019050919050565b600061241e826123b3565b61242881856123be565b9350612433836123cf565b8060005b8381101561246457815161244b88826123ee565b975061245683612406565b925050600181019050612437565b5085935050505092915050565b6000602082019050818103600083015261248b8184612413565b905092915050565b60006020820190506124a86000830184611ef6565b92915050565b6000806000606084860312156124c7576124c6611dd1565b5b600084013567ffffffffffffffff8111156124e5576124e4611dd6565b5b6124f186828701612228565b935050602084013567ffffffffffffffff81111561251257612511611dd6565b5b61251e86828701612228565b925050604084013567ffffffffffffffff81111561253f5761253e611dd6565b5b61254b86828701612228565b9150509250925092565b7f50726f66696c6520646f65736e27742065786973740000000000000000000000600082015250565b600061258b601583611e71565b915061259682612555565b602082019050919050565b600060208201905081810360008301526125ba8161257e565b9050919050565b7f4e487b7100000000000000000000000000000000000000000000000000000000600052602260045260246000fd5b6000600282049050600182168061260857607f821691505b60208210810361261b5761261a6125c1565b5b50919050565b60008190508160005260206000209050919050565b60006020601f8301049050919050565b600082821b905092915050565b6000600883026126837fffffffffffffffffffffffffffffffffffffffffffffffffffffffffffffffff82612646565b61268d8683612646565b95508019841693508086168417925050509392505050565b6000819050919050565b60006126ca6126c56126c084611f05565b6126a5565b611f05565b9050919050565b6000819050919050565b6126e4836126af565b6126f86126f0826126d1565b848454612653565b825550505050565b600090565b61270d612700565b6127188184846126db565b505050565b5b8181101561273c57612731600082612705565b60018101905061271e565b5050565b601f8211156127815761275281612621565b61275b84612636565b8101602085101561276a578190505b61277e61277685612636565b83018261271d565b50505b505050565b600082821c905092915050565b60006127a460001984600802612786565b1980831691505092915050565b60006127bd8383612793565b9150826002028217905092915050565b6127d682611e66565b67ffffffffffffffff8111156127ef576127ee61212b565b5b6127f982546125f0565b612804828285612740565b600060209050601f8311600181146128375760008415612825578287015190505b61282f85826127b1565b865550612897565b601f19841661284586612621565b60005b8281101561286d57848901518255600182019150602085019450602081019050612848565b8683101561288a5784890151612886601f891682612793565b8355505b6001600288020188555050505b505050505050565b600060408201905081810360008301526128b98185611ebd565b90506128c86020830184612327565b9392505050565b600081905092915050565b60006128e582611e66565b6128ef81856128cf565b93506128ff818560208601611e82565b80840191505092915050565b600061291782846128da565b915081905092915050565b6000602082019050818103600083015261293c8184611ebd565b905092915050565b7f4e6f7420667269656e6473000000000000000000000000000000000000000000600082015250565b600061297a600b83611e71565b915061298582612944565b602082019050919050565b600060208201905081810360008301526129a98161296d565b9050919050565b7f50726f66696c6520616c72656164792065786973747300000000000000000000600082015250565b60006129e6601683611e71565b91506129f1826129b0565b602082019050919050565b60006020820190508181036000830152612a15816129d9565b9050919050565b7f416c726561647920667269656e64730000000000000000000000000000000000600082015250565b6000612a52600f83611e71565b9150612a5d82612a1c565b602082019050919050565b60006020820190508181036000830152612a8181612a45565b9050919050565b7f456d61696c206e6f742072656769737465726564000000000000000000000000600082015250565b6000612abe601483611e71565b9150612ac982612a88565b602082019050919050565b60006020820190508181036000830152612aed81612ab1565b905091905056fea2646970667358221220be60eb0a9a1cae4d75030985424ddb21c383bfbe6f7de1536b846457b4b1f51564736f6c634300081c0033",
  "linkReferences": {},
  "deployedLinkReferences": {}
}