{
  "_format": "hh-sol-artifact-1",
  "contractName": "BlipPosts",
  "sourceName": "contracts/BlipPosts.sol",
  "abi": [
    {
      "anonymous": false,
      "inputs": [
        {
          "indexed": true,
          "internalType": "uint256",
          "name": "postId",
          "type": "uint256"
        },
        {
          "indexed": true,
          "internalType": "address",
          "name": "user",
          "type": "address"
        },
        {
          "indexed": false,
          "internalType": "string",
          "name": "comment",
          "type": "string"
        }
      ],
      "name": "CommentAdded",
      "type": "event"
    },
    {
      "anonymous": false,
      "inputs": [
        {
          "indexed": true,
          "internalType": "uint256",
          "name": "postId",
          "type": "uint256"
        },
        {
          "indexed": true,
          "internalType": "address",
          "name": "owner",
          "type": "address"
        },
        {
          "indexed": false,
          "internalType": "string",
          "name": "text",
          "type": "string"
        },
        {
          "indexed": false,
          "internalType": "bool",
          "name": "isPublic",
          "type": "bool"
        }
      ],
      "name": "PostCreated",
      "type": "event"
    },
    {
      "anonymous": false,
      "inputs": [
        {
          "indexed": true,
          "internalType": "uint256",
          "name": "postId",
          "type": "uint256"
        },
        {
          "indexed": true,
          "internalType": "address",
          "name": "user",
          "type": "address"
        }
      ],
      "name": "PostLiked",
      "type": "event"
    },
    {
      "anonymous": false,
      "inputs": [
        {
          "indexed": true,
          "internalType": "uint256",
          "name": "postId",
          "type": "uint256"
        },
        {
          "indexed": true,
          "internalType": "address",
          "name": "user",
          "type": "address"
        }
      ],
      "name": "PostShared",
      "type": "event"
    },
    {
      "inputs": [
        {
          "internalType": "uint256",
          "name": "postId",
          "type": "uint256"
        },
        {
          "internalType": "string",
          "name": "comment",
          "type": "string"
        }
      ],
      "name": "commentOnPost",
      "outputs": [],
      "stateMutability": "nonpayable",
      "type": "function"
    },
    {
      "inputs": [
        {
          "internalType": "string",
          "name": "text",
          "type": "string"
        },
        {
          "internalType": "bool",
          "name": "isPublic",
          "type": "bool"
        }
      ],
      "name": "createPost",
      "outputs": [],
      "stateMutability": "nonpayable",
      "type": "function"
    },
    {
      "inputs": [
        {
          "internalType": "uint256",
          "name": "postId",
          "type": "uint256"
        }
      ],
      "name": "getComments",
      "outputs": [
        {
          "components": [
            {
              "internalType": "address",
              "name": "commenter",
              "type": "address"
            },
            {
              "internalType": "string",
              "name": "text",
              "type": "string"
            },
            {
              "internalType": "uint256",
              "name": "timestamp",
              "type": "uint256"
            }
          ],
          "internalType": "struct BlipPosts.Comment[]",
          "name": "",
          "type": "tuple[]"
        }
      ],
      "stateMutability": "view",
      "type": "function"
    },
    {
      "inputs": [
        {
          "internalType": "uint256",
          "name": "postId",
          "type": "uint256"
        }
      ],
      "name": "getLikes",
      "outputs": [
        {
          "internalType": "address[]",
          "name": "",
          "type": "address[]"
        }
      ],
      "stateMutability": "view",
      "type": "function"
    },
    {
      "inputs": [
        {
          "internalType": "address",
          "name": "user",
          "type": "address"
        }
      ],
      "name": "getUserPosts",
      "outputs": [
        {
          "internalType": "uint256[]",
          "name": "",
          "type": "uint256[]"
        }
      ],
      "stateMutability": "view",
      "type": "function"
    },
    {
      "inputs": [
        {
          "internalType": "uint256",
          "name": "postId",
          "type": "uint256"
        }
      ],
      "name": "likePost",
      "outputs": [],
      "stateMutability": "nonpayable",
      "type": "function"
    },
    {
      "inputs": [
        {
          "internalType": "uint256",
          "name": "",
          "type": "uint256"
        },
        {
          "internalType": "uint256",
          "name": "",
          "type": "uint256"
        }
      ],
      "name": "postComments",
      "outputs": [
        {
          "internalType": "address",
          "name": "commenter",
          "type": "address"
        },
        {
          "internalType": "string",
          "name": "text",
          "type": "string"
        },
        {
          "internalType": "uint256",
          "name": "timestamp",
          "type": "uint256"
        }
      ],
      "stateMutability": "view",
      "type": "function"
    },
    {
      "inputs": [
        {
          "internalType": "uint256",
          "name": "",
          "type": "uint256"
        },
        {
          "internalType": "uint256",
          "name": "",
          "type": "uint256"
        }
      ],
      "name": "postLikes",
      "outputs": [
        {
          "internalType": "address",
          "name": "",
          "type": "address"
        }
      ],
      "stateMutability": "view",
      "type": "function"
    },
    {
      "inputs": [
        {
          "internalType": "uint256",
          "name": "",
          "type": "uint256"
        }
      ],
      "name": "posts",
      "outputs": [
        {
          "internalType": "uint256",
          "name": "id",
          "type": "uint256"
        },
        {
          "internalType": "address",
          "name": "owner",
          "type": "address"
        },
        {
          "internalType": "string",
          "name": "text",
          "type": "string"
        },
        {
          "internalType": "bool",
          "name": "isPublic",
          "type": "bool"
        },
        {
          "internalType": "uint256",
          "name": "timestamp",
          "type": "uint256"
        },
        {
          "internalType": "uint256",
          "name": "likeCount",
          "type": "uint256"
        },
        {
          "internalType": "uint256",
          "name": "shareCount",
          "type": "uint256"
        }
      ],
      "stateMutability": "view",
      "type": "function"
    },
    {
      "inputs": [
        {
          "internalType": "uint256",
          "name": "postId",
          "type": "uint256"
        }
      ],
      "name": "sharePost",
      "outputs": [],
      "stateMutability": "nonpayable",
      "type": "function"
    },
    {
      "inputs": [
        {
          "internalType": "address",
          "name": "",
          "type": "address"
        },
        {
          "internalType": "uint256",
          "name": "",
          "type": "uint256"
        }
      ],
      "name": "userPosts",
      "outputs": [
        {
          "internalType": "uint256",
          "name": "",
          "type": "uint256"
        }
      ],
      "stateMutability": "view",
      "type": "function"
    }
  ],
  "bytecode": "0x6080604052348015600f57600080fd5b50611cd48061001f6000396000f3fe608060405234801561001057600080fd5b50600436106100a95760003560e01c8063725009d311610071578063725009d3146101925780638064d149146101ae5780639a2194a9146101de5780639ef9fa3a1461020e578063a209081e1461022a578063f5d763201461025a576100a9565b80630b1e7f83146100ae5780630f449d80146100e457806323edf697146101145780635193c94c146101445780636473215414610176575b600080fd5b6100c860048036038101906100c39190610ed6565b610276565b6040516100db9796959493929190610ffe565b60405180910390f35b6100fe60048036038101906100f99190611074565b61036d565b60405161010b91906110b4565b60405180910390f35b61012e60048036038101906101299190610ed6565b6103bb565b60405161013b9190611249565b60405180910390f35b61015e60048036038101906101599190611074565b610565565b60405161016d9392919061126b565b60405180910390f35b610190600480360381019061018b91906113de565b610654565b005b6101ac60048036038101906101a79190610ed6565b610807565b005b6101c860048036038101906101c39190611466565b610a02565b6040516101d591906114a6565b60405180910390f35b6101f860048036038101906101f391906114c1565b610a33565b604051610205919061159d565b60405180910390f35b610228600480360381019061022391906115eb565b610aca565b005b610244600480360381019061023f9190610ed6565b610cec565b60405161025191906116f6565b60405180910390f35b610274600480360381019061026f9190610ed6565b610dd3565b005b60016020528060005260406000206000915090508060000154908060010160009054906101000a900473ffffffffffffffffffffffffffffffffffffffff16908060020180546102c590611747565b80601f01602080910402602001604051908101604052809291908181526020018280546102f190611747565b801561033e5780601f106103135761010080835404028352916020019161033e565b820191906000526020600020905b81548152906001019060200180831161032157829003601f168201915b5050505050908060030160009054906101000a900460ff16908060040154908060050154908060060154905087565b6003602052816000526040600020818154811061038957600080fd5b906000526020600020016000915091509054906101000a900473ffffffffffffffffffffffffffffffffffffffff1681565b6060816000811015610402576040517f08c379a00000000000000000000000000000000000000000000000000000000081526004016103f9906117c4565b60405180910390fd5b60046000848152602001908152602001600020805480602002602001604051908101604052809291908181526020016000905b8282101561055957838290600052602060002090600302016040518060600160405290816000820160009054906101000a900473ffffffffffffffffffffffffffffffffffffffff1673ffffffffffffffffffffffffffffffffffffffff1673ffffffffffffffffffffffffffffffffffffffff1681526020016001820180546104be90611747565b80601f01602080910402602001604051908101604052809291908181526020018280546104ea90611747565b80156105375780601f1061050c57610100808354040283529160200191610537565b820191906000526020600020905b81548152906001019060200180831161051a57829003601f168201915b5050505050815260200160028201548152505081526020019060010190610435565b50505050915050919050565b6004602052816000526040600020818154811061058157600080fd5b9060005260206000209060030201600091509150508060000160009054906101000a900473ffffffffffffffffffffffffffffffffffffffff16908060010180546105cb90611747565b80601f01602080910402602001604051908101604052809291908181526020018280546105f790611747565b80156106445780601f1061061957610100808354040283529160200191610644565b820191906000526020600020905b81548152906001019060200180831161062757829003601f168201915b5050505050908060020154905083565b816000811015610699576040517f08c379a0000000000000000000000000000000000000000000000000000000008152600401610690906117c4565b60405180910390fd5b60008251116106dd576040517f08c379a00000000000000000000000000000000000000000000000000000000081526004016106d490611830565b60405180910390fd5b6004600084815260200190815260200160002060405180606001604052803373ffffffffffffffffffffffffffffffffffffffff16815260200184815260200142815250908060018154018082558091505060019003906000526020600020906003020160009091909190915060008201518160000160006101000a81548173ffffffffffffffffffffffffffffffffffffffff021916908373ffffffffffffffffffffffffffffffffffffffff16021790555060208201518160010190816107a691906119fc565b506040820151816002015550503373ffffffffffffffffffffffffffffffffffffffff16837fcc2d7dd2085ae6644799a42c0174adf9afc10a43f26db5eac3ddd1f96d1d64be846040516107fa9190611ace565b60405180910390a3505050565b80600081101561084c576040517f08c379a0000000000000000000000000000000000000000000000000000000008152600401610843906117c4565b60405180910390fd5b600060036000848152602001908152602001600020905060005b818054905081101561092a573373ffffffffffffffffffffffffffffffffffffffff1682828154811061089c5761089b611af0565b5b9060005260206000200160009054906101000a900473ffffffffffffffffffffffffffffffffffffffff1673ffffffffffffffffffffffffffffffffffffffff160361091d576040517f08c379a000000000000000000000000000000000000000000000000000000000815260040161091490611b6b565b60405180910390fd5b8080600101915050610866565b5080339080600181540180825580915050600190039060005260206000200160009091909190916101000a81548173ffffffffffffffffffffffffffffffffffffffff021916908373ffffffffffffffffffffffffffffffffffffffff1602179055506001600084815260200190815260200160002060050160008154809291906109b490611bba565b91905055503373ffffffffffffffffffffffffffffffffffffffff16837fcf765d6f163c9b0d832e2a94f4c8e9bffd32a2c3ca5fdbb8cc67b5fe1441f41360405160405180910390a3505050565b60026020528160005260406000208181548110610a1e57600080fd5b90600052602060002001600091509150505481565b6060600260008373ffffffffffffffffffffffffffffffffffffffff1673ffffffffffffffffffffffffffffffffffffffff168152602001908152602001600020805480602002602001604051908101604052809291908181526020018280548015610abe57602002820191906000526020600020905b815481526020019060010190808311610aaa575b50505050509050919050565b6000825111610b0e576040517f08c379a0000000000000000000000000000000000000000000000000000000008152600401610b0590611c4e565b60405180910390fd5b6000806000815480929190610b2290611bba565b9190505590506040518060e001604052808281526020013373ffffffffffffffffffffffffffffffffffffffff1681526020018481526020018315158152602001428152602001600081526020016000815250600160008381526020019081526020016000206000820151816000015560208201518160010160006101000a81548173ffffffffffffffffffffffffffffffffffffffff021916908373ffffffffffffffffffffffffffffffffffffffff1602179055506040820151816002019081610bee91906119fc565b5060608201518160030160006101000a81548160ff0219169083151502179055506080820151816004015560a0820151816005015560c08201518160060155905050600260003373ffffffffffffffffffffffffffffffffffffffff1673ffffffffffffffffffffffffffffffffffffffff1681526020019081526020016000208190806001815401808255809150506001900390600052602060002001600090919091909150553373ffffffffffffffffffffffffffffffffffffffff16817fd29c05ce35227cd87e52d185ea77a88bf947eb152c22f5206a691fa5c64299d08585604051610cdf929190611c6e565b60405180910390a3505050565b6060816000811015610d33576040517f08c379a0000000000000000000000000000000000000000000000000000000008152600401610d2a906117c4565b60405180910390fd5b60036000848152602001908152602001600020805480602002602001604051908101604052809291908181526020018280548015610dc657602002820191906000526020600020905b8160009054906101000a900473ffffffffffffffffffffffffffffffffffffffff1673ffffffffffffffffffffffffffffffffffffffff1681526020019060010190808311610d7c575b5050505050915050919050565b806000811015610e18576040517f08c379a0000000000000000000000000000000000000000000000000000000008152600401610e0f906117c4565b60405180910390fd5b600160008381526020019081526020016000206006016000815480929190610e3f90611bba565b91905055503373ffffffffffffffffffffffffffffffffffffffff16827f9ad6b9c25fe64910aa38489f778ed1d1334a3f784d3aeedc050948b26115f86960405160405180910390a35050565b6000604051905090565b600080fd5b600080fd5b6000819050919050565b610eb381610ea0565b8114610ebe57600080fd5b50565b600081359050610ed081610eaa565b92915050565b600060208284031215610eec57610eeb610e96565b5b6000610efa84828501610ec1565b91505092915050565b610f0c81610ea0565b82525050565b600073ffffffffffffffffffffffffffffffffffffffff82169050919050565b6000610f3d82610f12565b9050919050565b610f4d81610f32565b82525050565b600081519050919050565b600082825260208201905092915050565b60005b83811015610f8d578082015181840152602081019050610f72565b60008484015250505050565b6000601f19601f8301169050919050565b6000610fb582610f53565b610fbf8185610f5e565b9350610fcf818560208601610f6f565b610fd881610f99565b840191505092915050565b60008115159050919050565b610ff881610fe3565b82525050565b600060e082019050611013600083018a610f03565b6110206020830189610f44565b81810360408301526110328188610faa565b90506110416060830187610fef565b61104e6080830186610f03565b61105b60a0830185610f03565b61106860c0830184610f03565b98975050505050505050565b6000806040838503121561108b5761108a610e96565b5b600061109985828601610ec1565b92505060206110aa85828601610ec1565b9150509250929050565b60006020820190506110c96000830184610f44565b92915050565b600081519050919050565b600082825260208201905092915050565b6000819050602082019050919050565b61110481610f32565b82525050565b600082825260208201905092915050565b600061112682610f53565b611130818561110a565b9350611140818560208601610f6f565b61114981610f99565b840191505092915050565b61115d81610ea0565b82525050565b600060608301600083015161117b60008601826110fb565b5060208301518482036020860152611193828261111b565b91505060408301516111a86040860182611154565b508091505092915050565b60006111bf8383611163565b905092915050565b6000602082019050919050565b60006111df826110cf565b6111e981856110da565b9350836020820285016111fb856110eb565b8060005b85811015611237578484038952815161121885826111b3565b9450611223836111c7565b925060208a019950506001810190506111ff565b50829750879550505050505092915050565b6000602082019050818103600083015261126381846111d4565b905092915050565b60006060820190506112806000830186610f44565b81810360208301526112928185610faa565b90506112a16040830184610f03565b949350505050565b600080fd5b600080fd5b7f4e487b7100000000000000000000000000000000000000000000000000000000600052604160045260246000fd5b6112eb82610f99565b810181811067ffffffffffffffff8211171561130a576113096112b3565b5b80604052505050565b600061131d610e8c565b905061132982826112e2565b919050565b600067ffffffffffffffff821115611349576113486112b3565b5b61135282610f99565b9050602081019050919050565b82818337600083830152505050565b600061138161137c8461132e565b611313565b90508281526020810184848401111561139d5761139c6112ae565b5b6113a884828561135f565b509392505050565b600082601f8301126113c5576113c46112a9565b5b81356113d584826020860161136e565b91505092915050565b600080604083850312156113f5576113f4610e96565b5b600061140385828601610ec1565b925050602083013567ffffffffffffffff81111561142457611423610e9b565b5b611430858286016113b0565b9150509250929050565b61144381610f32565b811461144e57600080fd5b50565b6000813590506114608161143a565b92915050565b6000806040838503121561147d5761147c610e96565b5b600061148b85828601611451565b925050602061149c85828601610ec1565b9150509250929050565b60006020820190506114bb6000830184610f03565b92915050565b6000602082840312156114d7576114d6610e96565b5b60006114e584828501611451565b91505092915050565b600081519050919050565b600082825260208201905092915050565b6000819050602082019050919050565b60006115268383611154565b60208301905092915050565b6000602082019050919050565b600061154a826114ee565b61155481856114f9565b935061155f8361150a565b8060005b83811015611590578151611577888261151a565b975061158283611532565b925050600181019050611563565b5085935050505092915050565b600060208201905081810360008301526115b7818461153f565b905092915050565b6115c881610fe3565b81146115d357600080fd5b50565b6000813590506115e5816115bf565b92915050565b6000806040838503121561160257611601610e96565b5b600083013567ffffffffffffffff8111156116205761161f610e9b565b5b61162c858286016113b0565b925050602061163d858286016115d6565b9150509250929050565b600081519050919050565b600082825260208201905092915050565b6000819050602082019050919050565b600061167f83836110fb565b60208301905092915050565b6000602082019050919050565b60006116a382611647565b6116ad8185611652565b93506116b883611663565b8060005b838110156116e95781516116d08882611673565b97506116db8361168b565b9250506001810190506116bc565b5085935050505092915050565b600060208201905081810360008301526117108184611698565b905092915050565b7f4e487b7100000000000000000000000000000000000000000000000000000000600052602260045260246000fd5b6000600282049050600182168061175f57607f821691505b60208210810361177257611771611718565b5b50919050565b7f496e76616c696420706f73742049440000000000000000000000000000000000600082015250565b60006117ae600f83610f5e565b91506117b982611778565b602082019050919050565b600060208201905081810360008301526117dd816117a1565b9050919050565b7f436f6d6d656e7420726571756972656400000000000000000000000000000000600082015250565b600061181a601083610f5e565b9150611825826117e4565b602082019050919050565b600060208201905081810360008301526118498161180d565b9050919050565b60008190508160005260206000209050919050565b60006020601f8301049050919050565b600082821b905092915050565b6000600883026118b27fffffffffffffffffffffffffffffffffffffffffffffffffffffffffffffffff82611875565b6118bc8683611875565b95508019841693508086168417925050509392505050565b6000819050919050565b60006118f96118f46118ef84610ea0565b6118d4565b610ea0565b9050919050565b6000819050919050565b611913836118de565b61192761191f82611900565b848454611882565b825550505050565b600090565b61193c61192f565b61194781848461190a565b505050565b5b8181101561196b57611960600082611934565b60018101905061194d565b5050565b601f8211156119b05761198181611850565b61198a84611865565b81016020851015611999578190505b6119ad6119a585611865565b83018261194c565b50505b505050565b600082821c905092915050565b60006119d3600019846008026119b5565b1980831691505092915050565b60006119ec83836119c2565b9150826002028217905092915050565b611a0582610f53565b67ffffffffffffffff811115611a1e57611a1d6112b3565b5b611a288254611747565b611a3382828561196f565b600060209050601f831160018114611a665760008415611a54578287015190505b611a5e85826119e0565b865550611ac6565b601f198416611a7486611850565b60005b82811015611a9c57848901518255600182019150602085019450602081019050611a77565b86831015611ab95784890151611ab5601f8916826119c2565b8355505b6001600288020188555050505b505050505050565b60006020820190508181036000830152611ae88184610faa565b905092915050565b7f4e487b7100000000000000000000000000000000000000000000000000000000600052603260045260246000fd5b7f416c7265616479206c696b656400000000000000000000000000000000000000600082015250565b6000611b55600d83610f5e565b9150611b6082611b1f565b602082019050919050565b60006020820190508181036000830152611b8481611b48565b9050919050565b7f4e487b7100000000000000000000000000000000000000000000000000000000600052601160045260246000fd5b6000611bc582610ea0565b91507fffffffffffffffffffffffffffffffffffffffffffffffffffffffffffffffff8203611bf757611bf6611b8b565b5b600182019050919050565b7f506f737420746578742072657175697265640000000000000000000000000000600082015250565b6000611c38601283610f5e565b9150611c4382611c02565b602082019050919050565b60006020820190508181036000830152611c6781611c2b565b9050919050565b60006040820190508181036000830152611c888185610faa565b9050611c976020830184610fef565b939250505056fea264697066735822122063d9a85de574dee72d3242e2831a0225d83c54e30ef9e5b0a032a0764901dcfc64736f6c634300081c0033",
  "linkReferences": {},
  "deployedLinkReferences": {}
}