{
  "_format": "hh-sol-artifact-1",
  "contractName": "BlipAuth",
  "sourceName": "contracts/BlipAuth.sol",
  "abi": [
    {
      "anonymous": false,
      "inputs": [
        {
          "indexed": false,
          "internalType": "string",
          "name": "email",
          "type": "string"
        },
        {
          "indexed": false,
          "internalType": "address",
          "name": "wallet",
          "type": "address"
        }
      ],
      "name": "UserLoggedIn",
      "type": "event"
    },
    {
      "anonymous": false,
      "inputs": [
        {
          "indexed": false,
          "internalType": "string",
          "name": "email",
          "type": "string"
        },
        {
          "indexed": false,
          "internalType": "address",
          "name": "wallet",
          "type": "address"
        }
      ],
      "name": "UserSignedUp",
      "type": "event"
    },
    {
      "inputs": [
        {
          "internalType": "bytes32",
          "name": "emailHash",
          "type": "bytes32"
        }
      ],
      "name": "getUserByEmailHash",
      "outputs": [
        {
          "internalType": "address",
          "name": "",
          "type": "address"
        }
      ],
      "stateMutability": "view",
      "type": "function"
    },
    {
      "inputs": [
        {
          "internalType": "string",
          "name": "email",
          "type": "string"
        }
      ],
      "name": "getWallet",
      "outputs": [
        {
          "internalType": "address",
          "name": "",
          "type": "address"
        }
      ],
      "stateMutability": "view",
      "type": "function"
    },
    {
      "inputs": [
        {
          "internalType": "string",
          "name": "email",
          "type": "string"
        },
        {
          "internalType": "string",
          "name": "password",
          "type": "string"
        }
      ],
      "name": "login",
      "outputs": [
        {
          "internalType": "bool",
          "name": "",
          "type": "bool"
        }
      ],
      "stateMutability": "view",
      "type": "function"
    },
    {
      "inputs": [
        {
          "internalType": "string",
          "name": "email",
          "type": "string"
        },
        {
          "internalType": "string",
          "name": "password",
          "type": "string"
        }
      ],
      "name": "signup",
      "outputs": [],
      "stateMutability": "nonpayable",
      "type": "function"
    },
    {
      "inputs": [
        {
          "internalType": "bytes32",
          "name": "",
          "type": "bytes32"
        }
      ],
      "name": "users",
      "outputs": [
        {
          "internalType": "address",
          "name": "wallet",
          "type": "address"
        },
        {
          "internalType": "bytes32",
          "name": "passwordHash",
          "type": "bytes32"
        }
      ],
      "stateMutability": "view",
      "type": "function"
    }
  ],
  "bytecode": "0x6080604052348015600f57600080fd5b5061126b8061001f6000396000f3fe608060405234801561001057600080fd5b50600436106100575760003560e01c806347e70e641461005c57806358467dbc14610078578063a4e2df66146100a8578063cea6ab98146100d8578063d30b11c414610109575b600080fd5b61007660048036038101906100719190610c30565b610139565b005b610092600480360381019061008d9190610c30565b61040d565b60405161009f9190610cc3565b60405180910390f35b6100c260048036038101906100bd9190610cde565b6105ef565b6040516100cf9190610d68565b60405180910390f35b6100f260048036038101906100ed9190610db9565b6106fd565b604051610100929190610df5565b60405180910390f35b610123600480360381019061011e9190610db9565b610741565b6040516101309190610d68565b60405180910390f35b600082511161017d576040517f08c379a000000000000000000000000000000000000000000000000000000000815260040161017490610e7b565b60405180910390fd5b6008815110156101c2576040517f08c379a00000000000000000000000000000000000000000000000000000000081526004016101b990610f0d565b60405180910390fd5b6000826040516020016101d59190610f9e565b604051602081830303815290604052805190602001209050600073ffffffffffffffffffffffffffffffffffffffff1660008083815260200190815260200160002060000160009054906101000a900473ffffffffffffffffffffffffffffffffffffffff1673ffffffffffffffffffffffffffffffffffffffff1614610291576040517f08c379a000000000000000000000000000000000000000000000000000000000815260040161028890611001565b60405180910390fd5b60405180604001604052803373ffffffffffffffffffffffffffffffffffffffff168152602001836040516020016102c99190610f9e565b6040516020818303038152906040528051906020012081525060008083815260200190815260200160002060008201518160000160006101000a81548173ffffffffffffffffffffffffffffffffffffffff021916908373ffffffffffffffffffffffffffffffffffffffff160217905550602082015181600101559050507fc51e897c3d117eedabb0c4d146900ec7f3f2fb8bfda6bad5d6763f0b0e3cf2f1833360405161037992919061105a565b60405180910390a16103c06040518060400160405280600f81526020017f5b5349474e55505d20456d61696c3a000000000000000000000000000000000081525084610780565b6103ff6040518060400160405280601081526020017f5b5349474e55505d2057616c6c65743a000000000000000000000000000000008152503361081c565b610408816108b8565b505050565b60008083604051602001610421919061108a565b6040516020818303038152906040528051906020012090506104786040518060400160405280600e81526020017f5b4c4f47494e5d20456d61696c3a00000000000000000000000000000000000081525085610780565b610481816108b8565b600073ffffffffffffffffffffffffffffffffffffffff1660008083815260200190815260200160002060000160009054906101000a900473ffffffffffffffffffffffffffffffffffffffff1673ffffffffffffffffffffffffffffffffffffffff1603610563576105286040518060400160405280601d81526020017f5b4c4f47494e5d20456d61696c206e6f7420726567697374657265642e000000815250610951565b6040517f08c379a000000000000000000000000000000000000000000000000000000000815260040161055a906110f8565b60405180910390fd5b6000836040516020016105769190610f9e565b60405160208183030381529060405280519060200120600080848152602001908152602001600020600101541490506105e46040518060400160405280601081526020017f5b4c4f47494e5d20697356616c69643a00000000000000000000000000000000815250826109ea565b809250505092915050565b60008082604051602001610603919061108a565b604051602081830303815290604052805190602001209050600073ffffffffffffffffffffffffffffffffffffffff1660008083815260200190815260200160002060000160009054906101000a900473ffffffffffffffffffffffffffffffffffffffff1673ffffffffffffffffffffffffffffffffffffffff16036106bf576040517f08c379a00000000000000000000000000000000000000000000000000000000081526004016106b690611164565b60405180910390fd5b60008082815260200190815260200160002060000160009054906101000a900473ffffffffffffffffffffffffffffffffffffffff16915050919050565b60006020528060005260406000206000915090508060000160009054906101000a900473ffffffffffffffffffffffffffffffffffffffff16908060010154905082565b600080600083815260200190815260200160002060000160009054906101000a900473ffffffffffffffffffffffffffffffffffffffff169050919050565b6108188282604051602401610796929190611184565b6040516020818303038152906040527f4b5c4277000000000000000000000000000000000000000000000000000000007bffffffffffffffffffffffffffffffffffffffffffffffffffffffff19166020820180517bffffffffffffffffffffffffffffffffffffffffffffffffffffffff8381831617835250505050610a86565b5050565b6108b4828260405160240161083292919061105a565b6040516020818303038152906040527f319af333000000000000000000000000000000000000000000000000000000007bffffffffffffffffffffffffffffffffffffffffffffffffffffffff19166020820180517bffffffffffffffffffffffffffffffffffffffffffffffffffffffff8381831617835250505050610a86565b5050565b61094e816040516024016108cc91906111bb565b6040516020818303038152906040527f27b7cf85000000000000000000000000000000000000000000000000000000007bffffffffffffffffffffffffffffffffffffffffffffffffffffffff19166020820180517bffffffffffffffffffffffffffffffffffffffffffffffffffffffff8381831617835250505050610a86565b50565b6109e781604051602401610965919061108a565b6040516020818303038152906040527f41304fac000000000000000000000000000000000000000000000000000000007bffffffffffffffffffffffffffffffffffffffffffffffffffffffff19166020820180517bffffffffffffffffffffffffffffffffffffffffffffffffffffffff8381831617835250505050610a86565b50565b610a828282604051602401610a009291906111d6565b6040516020818303038152906040527fc3b55635000000000000000000000000000000000000000000000000000000007bffffffffffffffffffffffffffffffffffffffffffffffffffffffff19166020820180517bffffffffffffffffffffffffffffffffffffffffffffffffffffffff8381831617835250505050610a86565b5050565b610a9d81610a95610aa0610ac1565b63ffffffff16565b50565b60006a636f6e736f6c652e6c6f679050600080835160208501845afa505050565b610acc819050919050565b610ad4611206565b565b6000604051905090565b600080fd5b600080fd5b600080fd5b600080fd5b6000601f19601f8301169050919050565b7f4e487b7100000000000000000000000000000000000000000000000000000000600052604160045260246000fd5b610b3d82610af4565b810181811067ffffffffffffffff82111715610b5c57610b5b610b05565b5b80604052505050565b6000610b6f610ad6565b9050610b7b8282610b34565b919050565b600067ffffffffffffffff821115610b9b57610b9a610b05565b5b610ba482610af4565b9050602081019050919050565b82818337600083830152505050565b6000610bd3610bce84610b80565b610b65565b905082815260208101848484011115610bef57610bee610aef565b5b610bfa848285610bb1565b509392505050565b600082601f830112610c1757610c16610aea565b5b8135610c27848260208601610bc0565b91505092915050565b60008060408385031215610c4757610c46610ae0565b5b600083013567ffffffffffffffff811115610c6557610c64610ae5565b5b610c7185828601610c02565b925050602083013567ffffffffffffffff811115610c9257610c91610ae5565b5b610c9e85828601610c02565b9150509250929050565b60008115159050919050565b610cbd81610ca8565b82525050565b6000602082019050610cd86000830184610cb4565b92915050565b600060208284031215610cf457610cf3610ae0565b5b600082013567ffffffffffffffff811115610d1257610d11610ae5565b5b610d1e84828501610c02565b91505092915050565b600073ffffffffffffffffffffffffffffffffffffffff82169050919050565b6000610d5282610d27565b9050919050565b610d6281610d47565b82525050565b6000602082019050610d7d6000830184610d59565b92915050565b6000819050919050565b610d9681610d83565b8114610da157600080fd5b50565b600081359050610db381610d8d565b92915050565b600060208284031215610dcf57610dce610ae0565b5b6000610ddd84828501610da4565b91505092915050565b610def81610d83565b82525050565b6000604082019050610e0a6000830185610d59565b610e176020830184610de6565b9392505050565b600082825260208201905092915050565b7f456d61696c206973207265717569726564000000000000000000000000000000600082015250565b6000610e65601183610e1e565b9150610e7082610e2f565b602082019050919050565b60006020820190508181036000830152610e9481610e58565b9050919050565b7f50617373776f7264206d757374206265206174206c656173742038206368617260008201527f6163746572730000000000000000000000000000000000000000000000000000602082015250565b6000610ef7602683610e1e565b9150610f0282610e9b565b604082019050919050565b60006020820190508181036000830152610f2681610eea565b9050919050565b600081519050919050565b600081905092915050565b60005b83811015610f61578082015181840152602081019050610f46565b60008484015250505050565b6000610f7882610f2d565b610f828185610f38565b9350610f92818560208601610f43565b80840191505092915050565b6000610faa8284610f6d565b915081905092915050565b7f456d61696c20616c726561647920726567697374657265640000000000000000600082015250565b6000610feb601883610e1e565b9150610ff682610fb5565b602082019050919050565b6000602082019050818103600083015261101a81610fde565b9050919050565b600061102c82610f2d565b6110368185610e1e565b9350611046818560208601610f43565b61104f81610af4565b840191505092915050565b600060408201905081810360008301526110748185611021565b90506110836020830184610d59565b9392505050565b600060208201905081810360008301526110a48184611021565b905092915050565b7f456d61696c206e6f742072656769737465726564000000000000000000000000600082015250565b60006110e2601483610e1e565b91506110ed826110ac565b602082019050919050565b60006020820190508181036000830152611111816110d5565b9050919050565b7f456d61696c206e6f7420666f756e640000000000000000000000000000000000600082015250565b600061114e600f83610e1e565b915061115982611118565b602082019050919050565b6000602082019050818103600083015261117d81611141565b9050919050565b6000604082019050818103600083015261119e8185611021565b905081810360208301526111b28184611021565b90509392505050565b60006020820190506111d06000830184610de6565b92915050565b600060408201905081810360008301526111f08185611021565b90506111ff6020830184610cb4565b9392505050565b7f4e487b7100000000000000000000000000000000000000000000000000000000600052605160045260246000fdfea26469706673582212206ef28f22dfce5cb36e42d9c8d6eba0a30923e64e6ffd8728d1e8ac2bb6943d8364736f6c634300081c0033",
  "linkReferences": {},
  "deployedLinkReferences": {}
}