{
  "_format": "hh-sol-artifact-1",
  "contractName": "BlipProfile",
  "sourceName": "contracts/BlipProfile.sol",
  "abi": [
    {
      "inputs": [],
      "stateMutability": "nonpayable",
      "type": "constructor"
    },
    {
      "anonymous": false,
      "inputs": [
        {
          "indexed": false,
          "internalType": "string",
          "name": "text",
          "type": "string"
        }
      ],
      "name": "AdminPostAdded",
      "type": "event"
    },
    {
      "anonymous": false,
      "inputs": [
        {
          "indexed": true,
          "internalType": "address",
          "name": "user",
          "type": "address"
        },
        {
          "indexed": false,
          "internalType": "string",
          "name": "newBio",
          "type": "string"
        }
      ],
      "name": "BioUpdated",
      "type": "event"
    },
    {
      "anonymous": false,
      "inputs": [
        {
          "indexed": true,
          "internalType": "address",
          "name": "by",
          "type": "address"
        },
        {
          "indexed": true,
          "internalType": "address",
          "name": "newFriend",
          "type": "address"
        }
      ],
      "name": "FriendAdded",
      "type": "event"
    },
    {
      "anonymous": false,
      "inputs": [
        {
          "indexed": true,
          "internalType": "address",
          "name": "by",
          "type": "address"
        },
        {
          "indexed": true,
          "internalType": "address",
          "name": "exFriend",
          "type": "address"
        }
      ],
      "name": "FriendRemoved",
      "type": "event"
    },
    {
      "anonymous": false,
      "inputs": [
        {
          "indexed": true,
          "internalType": "address",
          "name": "user",
          "type": "address"
        },
        {
          "indexed": false,
          "internalType": "string",
          "name": "newName",
          "type": "string"
        }
      ],
      "name": "NameUpdated",
      "type": "event"
    },
    {
      "anonymous": false,
      "inputs": [
        {
          "indexed": true,
          "internalType": "address",
          "name": "user",
          "type": "address"
        },
        {
          "indexed": false,
          "internalType": "string",
          "name": "text",
          "type": "string"
        },
        {
          "indexed": false,
          "internalType": "bool",
          "name": "isPublic",
          "type": "bool"
        }
      ],
      "name": "PostAdded",
      "type": "event"
    },
    {
      "inputs": [
        {
          "internalType": "address",
          "name": "newFriend",
          "type": "address"
        }
      ],
      "name": "addFriend",
      "outputs": [],
      "stateMutability": "nonpayable",
      "type": "function"
    },
    {
      "inputs": [
        {
          "internalType": "string",
          "name": "text",
          "type": "string"
        },
        {
          "internalType": "bool",
          "name": "isPublic",
          "type": "bool"
        }
      ],
      "name": "addPost",
      "outputs": [],
      "stateMutability": "nonpayable",
      "type": "function"
    },
    {
      "inputs": [],
      "name": "admin",
      "outputs": [
        {
          "internalType": "address",
          "name": "",
          "type": "address"
        }
      ],
      "stateMutability": "view",
      "type": "function"
    },
    {
      "inputs": [
        {
          "internalType": "uint256",
          "name": "",
          "type": "uint256"
        }
      ],
      "name": "adminPosts",
      "outputs": [
        {
          "internalType": "string",
          "name": "text",
          "type": "string"
        },
        {
          "internalType": "address",
          "name": "owner",
          "type": "address"
        },
        {
          "internalType": "uint256",
          "name": "timestamp",
          "type": "uint256"
        },
        {
          "internalType": "bool",
          "name": "isPublic",
          "type": "bool"
        }
      ],
      "stateMutability": "view",
      "type": "function"
    },
    {
      "inputs": [
        {
          "internalType": "string",
          "name": "name",
          "type": "string"
        },
        {
          "internalType": "string",
          "name": "email",
          "type": "string"
        },
        {
          "internalType": "string",
          "name": "bio",
          "type": "string"
        }
      ],
      "name": "createProfile",
      "outputs": [],
      "stateMutability": "nonpayable",
      "type": "function"
    },
    {
      "inputs": [
        {
          "internalType": "string",
          "name": "email",
          "type": "string"
        }
      ],
      "name": "emailExists",
      "outputs": [
        {
          "internalType": "bool",
          "name": "",
          "type": "bool"
        }
      ],
      "stateMutability": "view",
      "type": "function"
    },
    {
      "inputs": [],
      "name": "getAdminPosts",
      "outputs": [
        {
          "components": [
            {
              "internalType": "string",
              "name": "text",
              "type": "string"
            },
            {
              "internalType": "address",
              "name": "owner",
              "type": "address"
            },
            {
              "internalType": "uint256",
              "name": "timestamp",
              "type": "uint256"
            },
            {
              "internalType": "bool",
              "name": "isPublic",
              "type": "bool"
            }
          ],
          "internalType": "struct BlipProfile.Post[]",
          "name": "",
          "type": "tuple[]"
        }
      ],
      "stateMutability": "view",
      "type": "function"
    },
    {
      "inputs": [
        {
          "internalType": "address",
          "name": "user",
          "type": "address"
        }
      ],
      "name": "getFriends",
      "outputs": [
        {
          "internalType": "address[]",
          "name": "",
          "type": "address[]"
        }
      ],
      "stateMutability": "view",
      "type": "function"
    },
    {
      "inputs": [
        {
          "internalType": "address",
          "name": "user",
          "type": "address"
        }
      ],
      "name": "getPosts",
      "outputs": [
        {
          "components": [
            {
              "internalType": "string",
              "name": "text",
              "type": "string"
            },
            {
              "internalType": "address",
              "name": "owner",
              "type": "address"
            },
            {
              "internalType": "uint256",
              "name": "timestamp",
              "type": "uint256"
            },
            {
              "internalType": "bool",
              "name": "isPublic",
              "type": "bool"
            }
          ],
          "internalType": "struct BlipProfile.Post[]",
          "name": "",
          "type": "tuple[]"
        }
      ],
      "stateMutability": "view",
      "type": "function"
    },
    {
      "inputs": [
        {
          "internalType": "address",
          "name": "user",
          "type": "address"
        }
      ],
      "name": "getProfile",
      "outputs": [
        {
          "internalType": "string",
          "name": "name",
          "type": "string"
        },
        {
          "internalType": "string",
          "name": "email",
          "type": "string"
        },
        {
          "internalType": "string",
          "name": "bio",
          "type": "string"
        },
        {
          "internalType": "address",
          "name": "wallet",
          "type": "address"
        },
        {
          "internalType": "uint256",
          "name": "createdAt",
          "type": "uint256"
        },
        {
          "components": [
            {
              "internalType": "string",
              "name": "text",
              "type": "string"
            },
            {
              "internalType": "address",
              "name": "owner",
              "type": "address"
            },
            {
              "internalType": "uint256",
              "name": "timestamp",
              "type": "uint256"
            },
            {
              "internalType": "bool",
              "name": "isPublic",
              "type": "bool"
            }
          ],
          "internalType": "struct BlipProfile.Post[]",
          "name": "posts",
          "type": "tuple[]"
        }
      ],
      "stateMutability": "view",
      "type": "function"
    },
    {
      "inputs": [
        {
          "internalType": "string",
          "name": "email",
          "type": "string"
        }
      ],
      "name": "getProfileByEmail",
      "outputs": [
        {
          "internalType": "string",
          "name": "name",
          "type": "string"
        },
        {
          "internalType": "string",
          "name": "emailOut",
          "type": "string"
        },
        {
          "internalType": "string",
          "name": "bio",
          "type": "string"
        },
        {
          "internalType": "address",
          "name": "wallet",
          "type": "address"
        },
        {
          "internalType": "uint256",
          "name": "createdAt",
          "type": "uint256"
        },
        {
          "components": [
            {
              "internalType": "string",
              "name": "text",
              "type": "string"
            },
            {
              "internalType": "address",
              "name": "owner",
              "type": "address"
            },
            {
              "internalType": "uint256",
              "name": "timestamp",
              "type": "uint256"
            },
            {
              "internalType": "bool",
              "name": "isPublic",
              "type": "bool"
            }
          ],
          "internalType": "struct BlipProfile.Post[]",
          "name": "posts",
          "type": "tuple[]"
        }
      ],
      "stateMutability": "view",
      "type": "function"
    },
    {
      "inputs": [
        {
          "internalType": "string",
          "name": "email",
          "type": "string"
        }
      ],
      "name": "getWalletByEmail",
      "outputs": [
        {
          "internalType": "address",
          "name": "",
          "type": "address"
        }
      ],
      "stateMutability": "view",
      "type": "function"
    },
    {
      "inputs": [
        {
          "internalType": "address",
          "name": "user1",
          "type": "address"
        },
        {
          "internalType": "address",
          "name": "user2",
          "type": "address"
        }
      ],
      "name": "isFriend",
      "outputs": [
        {
          "internalType": "bool",
          "name": "",
          "type": "bool"
        }
      ],
      "stateMutability": "view",
      "type": "function"
    },
    {
      "inputs": [
        {
          "internalType": "address",
          "name": "exFriend",
          "type": "address"
        }
      ],
      "name": "removeFriend",
      "outputs": [],
      "stateMutability": "nonpayable",
      "type": "function"
    },
    {
      "inputs": [
        {
          "internalType": "string",
          "name": "newBio",
          "type": "string"
        }
      ],
      "name": "updateBio",
      "outputs": [],
      "stateMutability": "nonpayable",
      "type": "function"
    },
    {
      "inputs": [
        {
          "internalType": "string",
          "name": "newName",
          "type": "string"
        }
      ],
      "name": "updateName",
      "outputs": [],
      "stateMutability": "nonpayable",
      "type": "function"
    }
  ],
  "bytecode": "0x6080604052348015600f57600080fd5b50336000806101000a81548173ffffffffffffffffffffffffffffffffffffffff021916908373ffffffffffffffffffffffffffffffffffffffff1602179055506132088061005f6000396000f3fe608060405234801561001057600080fd5b50600436106101005760003560e01c806380cee8a511610097578063c6426f5d11610066578063c6426f5d146102e9578063d7a1cfe114610307578063f851a44014610323578063f8f5698c1461034157610100565b806380cee8a51461026257806383d57b081461027e57806384da92a7146102b15780639841c82c146102cd57610100565b80634caf9d0b116100d35780634caf9d0b146101b65780635cbb7caa146101e65780636c2eec281461021657806376487b381461024657610100565b80630f53a470146101055780631da6e17c1461013a5780632be46c3c146101565780632da5d42e14610186575b600080fd5b61011f600480360381019061011a919061245f565b610376565b604051610131969594939291906126ec565b60405180910390f35b610154600480360381019061014f91906128ca565b6107a4565b005b610170600480360381019061016b9190612926565b610b2a565b60405161017d919061297e565b60405180910390f35b6101a0600480360381019061019b9190612999565b610ba1565b6040516101ad919061297e565b60405180910390f35b6101d060048036038101906101cb919061245f565b610c38565b6040516101dd91906129d9565b60405180910390f35b61020060048036038101906101fb919061245f565b610e6d565b60405161020d9190612aaa565b60405180910390f35b610230600480360381019061022b9190612926565b610fc4565b60405161023d9190612acc565b60405180910390f35b610260600480360381019061025b9190612926565b61100c565b005b61027c6004803603810190610277919061245f565b611134565b005b61029860048036038101906102939190612b13565b61149b565b6040516102a89493929190612b40565b60405180910390f35b6102cb60048036038101906102c69190612926565b611590565b005b6102e760048036038101906102e29190612b8c565b6116b8565b005b6102f1611957565b6040516102fe91906129d9565b60405180910390f35b610321600480360381019061031c919061245f565b611ac3565b005b61032b611f6f565b6040516103389190612acc565b60405180910390f35b61035b60048036038101906103569190612926565b611f93565b60405161036d969594939291906126ec565b60405180910390f35b60608060606000806060866000600160008373ffffffffffffffffffffffffffffffffffffffff1673ffffffffffffffffffffffffffffffffffffffff1681526020019081526020016000206003015403610406576040517f08c379a00000000000000000000000000000000000000000000000000000000081526004016103fd90612c7f565b60405180910390fd5b6000600160008a73ffffffffffffffffffffffffffffffffffffffff1673ffffffffffffffffffffffffffffffffffffffff16815260200190815260200160002090508060000181600101826002018360040160009054906101000a900473ffffffffffffffffffffffffffffffffffffffff1684600301548560050185805461048f90612cce565b80601f01602080910402602001604051908101604052809291908181526020018280546104bb90612cce565b80156105085780601f106104dd57610100808354040283529160200191610508565b820191906000526020600020905b8154815290600101906020018083116104eb57829003601f168201915b5050505050955084805461051b90612cce565b80601f016020809104026020016040519081016040528092919081815260200182805461054790612cce565b80156105945780601f1061056957610100808354040283529160200191610594565b820191906000526020600020905b81548152906001019060200180831161057757829003601f168201915b505050505094508380546105a790612cce565b80601f01602080910402602001604051908101604052809291908181526020018280546105d390612cce565b80156106205780601f106105f557610100808354040283529160200191610620565b820191906000526020600020905b81548152906001019060200180831161060357829003601f168201915b5050505050935080805480602002602001604051908101604052809291908181526020016000905b82821015610787578382906000526020600020906004020160405180608001604052908160008201805461067b90612cce565b80601f01602080910402602001604051908101604052809291908181526020018280546106a790612cce565b80156106f45780601f106106c9576101008083540402835291602001916106f4565b820191906000526020600020905b8154815290600101906020018083116106d757829003601f168201915b505050505081526020016001820160009054906101000a900473ffffffffffffffffffffffffffffffffffffffff1673ffffffffffffffffffffffffffffffffffffffff1673ffffffffffffffffffffffffffffffffffffffff168152602001600282015481526020016003820160009054906101000a900460ff16151515158152505081526020019060010190610648565b505050509050975097509750975097509750505091939550919395565b336000600160008373ffffffffffffffffffffffffffffffffffffffff1673ffffffffffffffffffffffffffffffffffffffff168152602001908152602001600020600301540361082a576040517f08c379a000000000000000000000000000000000000000000000000000000000815260040161082190612c7f565b60405180910390fd5b6000600160003373ffffffffffffffffffffffffffffffffffffffff1673ffffffffffffffffffffffffffffffffffffffff16815260200190815260200160002060030154036108af576040517f08c379a00000000000000000000000000000000000000000000000000000000081526004016108a690612c7f565b60405180910390fd5b600060405180608001604052808581526020013373ffffffffffffffffffffffffffffffffffffffff1681526020014281526020018415158152509050600160003373ffffffffffffffffffffffffffffffffffffffff1673ffffffffffffffffffffffffffffffffffffffff168152602001908152602001600020600501819080600181540180825580915050600190039060005260206000209060040201600090919091909150600082015181600001908161096d9190612eab565b5060208201518160010160006101000a81548173ffffffffffffffffffffffffffffffffffffffff021916908373ffffffffffffffffffffffffffffffffffffffff1602179055506040820151816002015560608201518160030160006101000a81548160ff02191690831515021790555050503373ffffffffffffffffffffffffffffffffffffffff167f264ef7c88299d51aa830b1899ba849e40fab5e415251f79c047b86b7b1c542d28585604051610a29929190612f7d565b60405180910390a28215610b245760038190806001815401808255809150506001900390600052602060002090600402016000909190919091506000820151816000019081610a789190612eab565b5060208201518160010160006101000a81548173ffffffffffffffffffffffffffffffffffffffff021916908373ffffffffffffffffffffffffffffffffffffffff1602179055506040820151816002015560608201518160030160006101000a81548160ff02191690831515021790555050507f54b05475d2da7cc5efb2aaef2203d1a4226aa08d7ecb76c2bb50b1501b0c19c184604051610b1b9190612fad565b60405180910390a15b50505050565b60008073ffffffffffffffffffffffffffffffffffffffff16600283604051610b53919061300b565b908152602001604051809103902060009054906101000a900473ffffffffffffffffffffffffffffffffffffffff1673ffffffffffffffffffffffffffffffffffffffff1614159050919050565b6000600160008473ffffffffffffffffffffffffffffffffffffffff1673ffffffffffffffffffffffffffffffffffffffff16815260200190815260200160002060060160008373ffffffffffffffffffffffffffffffffffffffff1673ffffffffffffffffffffffffffffffffffffffff16815260200190815260200160002060009054906101000a900460ff16905092915050565b6060816000600160008373ffffffffffffffffffffffffffffffffffffffff1673ffffffffffffffffffffffffffffffffffffffff1681526020019081526020016000206003015403610cc0576040517f08c379a0000000000000000000000000000000000000000000000000000000008152600401610cb790612c7f565b60405180910390fd5b600160008473ffffffffffffffffffffffffffffffffffffffff1673ffffffffffffffffffffffffffffffffffffffff168152602001908152602001600020600501805480602002602001604051908101604052809291908181526020016000905b82821015610e615783829060005260206000209060040201604051806080016040529081600082018054610d5590612cce565b80601f0160208091040260200160405190810160405280929190818152602001828054610d8190612cce565b8015610dce5780601f10610da357610100808354040283529160200191610dce565b820191906000526020600020905b815481529060010190602001808311610db157829003601f168201915b505050505081526020016001820160009054906101000a900473ffffffffffffffffffffffffffffffffffffffff1673ffffffffffffffffffffffffffffffffffffffff1673ffffffffffffffffffffffffffffffffffffffff168152602001600282015481526020016003820160009054906101000a900460ff16151515158152505081526020019060010190610d22565b50505050915050919050565b6060816000600160008373ffffffffffffffffffffffffffffffffffffffff1673ffffffffffffffffffffffffffffffffffffffff1681526020019081526020016000206003015403610ef5576040517f08c379a0000000000000000000000000000000000000000000000000000000008152600401610eec90612c7f565b60405180910390fd5b600160008473ffffffffffffffffffffffffffffffffffffffff1673ffffffffffffffffffffffffffffffffffffffff168152602001908152602001600020600701805480602002602001604051908101604052809291908181526020018280548015610fb757602002820191906000526020600020905b8160009054906101000a900473ffffffffffffffffffffffffffffffffffffffff1673ffffffffffffffffffffffffffffffffffffffff1681526020019060010190808311610f6d575b5050505050915050919050565b6000600282604051610fd6919061300b565b908152602001604051809103902060009054906101000a900473ffffffffffffffffffffffffffffffffffffffff169050919050565b336000600160008373ffffffffffffffffffffffffffffffffffffffff1673ffffffffffffffffffffffffffffffffffffffff1681526020019081526020016000206003015403611092576040517f08c379a000000000000000000000000000000000000000000000000000000000815260040161108990612c7f565b60405180910390fd5b81600160003373ffffffffffffffffffffffffffffffffffffffff1673ffffffffffffffffffffffffffffffffffffffff16815260200190815260200160002060020190816110e19190612eab565b503373ffffffffffffffffffffffffffffffffffffffff167f3f838a7d0889a59b2445af5389196b3948170278848eb90d8d256ab14aaf4cf0836040516111289190612fad565b60405180910390a25050565b336000600160008373ffffffffffffffffffffffffffffffffffffffff1673ffffffffffffffffffffffffffffffffffffffff16815260200190815260200160002060030154036111ba576040517f08c379a00000000000000000000000000000000000000000000000000000000081526004016111b190612c7f565b60405180910390fd5b816000600160008373ffffffffffffffffffffffffffffffffffffffff1673ffffffffffffffffffffffffffffffffffffffff1681526020019081526020016000206003015403611240576040517f08c379a000000000000000000000000000000000000000000000000000000000815260040161123790612c7f565b60405180910390fd5b600160003373ffffffffffffffffffffffffffffffffffffffff1673ffffffffffffffffffffffffffffffffffffffff16815260200190815260200160002060060160008473ffffffffffffffffffffffffffffffffffffffff1673ffffffffffffffffffffffffffffffffffffffff16815260200190815260200160002060009054906101000a900460ff1661130c576040517f08c379a00000000000000000000000000000000000000000000000000000000081526004016113039061306e565b60405180910390fd5b6000600160003373ffffffffffffffffffffffffffffffffffffffff1673ffffffffffffffffffffffffffffffffffffffff16815260200190815260200160002060060160008573ffffffffffffffffffffffffffffffffffffffff1673ffffffffffffffffffffffffffffffffffffffff16815260200190815260200160002060006101000a81548160ff0219169083151502179055506000600160008573ffffffffffffffffffffffffffffffffffffffff1673ffffffffffffffffffffffffffffffffffffffff16815260200190815260200160002060060160003373ffffffffffffffffffffffffffffffffffffffff1673ffffffffffffffffffffffffffffffffffffffff16815260200190815260200160002060006101000a81548160ff0219169083151502179055508273ffffffffffffffffffffffffffffffffffffffff163373ffffffffffffffffffffffffffffffffffffffff167fa8e30f48064c886d284e961fb10cf21ed57c5f0b0b414f6bc390008552a15f9060405160405180910390a3505050565b600381815481106114ab57600080fd5b90600052602060002090600402016000915090508060000180546114ce90612cce565b80601f01602080910402602001604051908101604052809291908181526020018280546114fa90612cce565b80156115475780601f1061151c57610100808354040283529160200191611547565b820191906000526020600020905b81548152906001019060200180831161152a57829003601f168201915b5050505050908060010160009054906101000a900473ffffffffffffffffffffffffffffffffffffffff16908060020154908060030160009054906101000a900460ff16905084565b336000600160008373ffffffffffffffffffffffffffffffffffffffff1673ffffffffffffffffffffffffffffffffffffffff1681526020019081526020016000206003015403611616576040517f08c379a000000000000000000000000000000000000000000000000000000000815260040161160d90612c7f565b60405180910390fd5b81600160003373ffffffffffffffffffffffffffffffffffffffff1673ffffffffffffffffffffffffffffffffffffffff16815260200190815260200160002060000190816116659190612eab565b503373ffffffffffffffffffffffffffffffffffffffff167f74321da206c1b9fa34367f7ece59ca49371dcd13820b9a5c3767ae1ecceed51a836040516116ac9190612fad565b60405180910390a25050565b6000600160003373ffffffffffffffffffffffffffffffffffffffff1673ffffffffffffffffffffffffffffffffffffffff168152602001908152602001600020600301541461173d576040517f08c379a0000000000000000000000000000000000000000000000000000000008152600401611734906130da565b60405180910390fd5b82600160003373ffffffffffffffffffffffffffffffffffffffff1673ffffffffffffffffffffffffffffffffffffffff168152602001908152602001600020600001908161178c9190612eab565b5081600160003373ffffffffffffffffffffffffffffffffffffffff1673ffffffffffffffffffffffffffffffffffffffff16815260200190815260200160002060010190816117dc9190612eab565b5080600160003373ffffffffffffffffffffffffffffffffffffffff1673ffffffffffffffffffffffffffffffffffffffff168152602001908152602001600020600201908161182c9190612eab565b5033600160003373ffffffffffffffffffffffffffffffffffffffff1673ffffffffffffffffffffffffffffffffffffffff16815260200190815260200160002060040160006101000a81548173ffffffffffffffffffffffffffffffffffffffff021916908373ffffffffffffffffffffffffffffffffffffffff16021790555042600160003373ffffffffffffffffffffffffffffffffffffffff1673ffffffffffffffffffffffffffffffffffffffff1681526020019081526020016000206003018190555033600283604051611906919061300b565b908152602001604051809103902060006101000a81548173ffffffffffffffffffffffffffffffffffffffff021916908373ffffffffffffffffffffffffffffffffffffffff160217905550505050565b60606003805480602002602001604051908101604052809291908181526020016000905b82821015611aba57838290600052602060002090600402016040518060800160405290816000820180546119ae90612cce565b80601f01602080910402602001604051908101604052809291908181526020018280546119da90612cce565b8015611a275780601f106119fc57610100808354040283529160200191611a27565b820191906000526020600020905b815481529060010190602001808311611a0a57829003601f168201915b505050505081526020016001820160009054906101000a900473ffffffffffffffffffffffffffffffffffffffff1673ffffffffffffffffffffffffffffffffffffffff1673ffffffffffffffffffffffffffffffffffffffff168152602001600282015481526020016003820160009054906101000a900460ff1615151515815250508152602001906001019061197b565b50505050905090565b336000600160008373ffffffffffffffffffffffffffffffffffffffff1673ffffffffffffffffffffffffffffffffffffffff1681526020019081526020016000206003015403611b49576040517f08c379a0000000000000000000000000000000000000000000000000000000008152600401611b4090612c7f565b60405180910390fd5b816000600160008373ffffffffffffffffffffffffffffffffffffffff1673ffffffffffffffffffffffffffffffffffffffff1681526020019081526020016000206003015403611bcf576040517f08c379a0000000000000000000000000000000000000000000000000000000008152600401611bc690612c7f565b60405180910390fd5b600160003373ffffffffffffffffffffffffffffffffffffffff1673ffffffffffffffffffffffffffffffffffffffff16815260200190815260200160002060060160008473ffffffffffffffffffffffffffffffffffffffff1673ffffffffffffffffffffffffffffffffffffffff16815260200190815260200160002060009054906101000a900460ff1615611c9c576040517f08c379a0000000000000000000000000000000000000000000000000000000008152600401611c9390613146565b60405180910390fd5b60018060003373ffffffffffffffffffffffffffffffffffffffff1673ffffffffffffffffffffffffffffffffffffffff16815260200190815260200160002060060160008573ffffffffffffffffffffffffffffffffffffffff1673ffffffffffffffffffffffffffffffffffffffff16815260200190815260200160002060006101000a81548160ff021916908315150217905550600160003373ffffffffffffffffffffffffffffffffffffffff1673ffffffffffffffffffffffffffffffffffffffff168152602001908152602001600020600701839080600181540180825580915050600190039060005260206000200160009091909190916101000a81548173ffffffffffffffffffffffffffffffffffffffff021916908373ffffffffffffffffffffffffffffffffffffffff16021790555060018060008573ffffffffffffffffffffffffffffffffffffffff1673ffffffffffffffffffffffffffffffffffffffff16815260200190815260200160002060060160003373ffffffffffffffffffffffffffffffffffffffff1673ffffffffffffffffffffffffffffffffffffffff16815260200190815260200160002060006101000a81548160ff021916908315150217905550600160008473ffffffffffffffffffffffffffffffffffffffff1673ffffffffffffffffffffffffffffffffffffffff168152602001908152602001600020600701339080600181540180825580915050600190039060005260206000200160009091909190916101000a81548173ffffffffffffffffffffffffffffffffffffffff021916908373ffffffffffffffffffffffffffffffffffffffff1602179055508273ffffffffffffffffffffffffffffffffffffffff163373ffffffffffffffffffffffffffffffffffffffff167f6cbc8134e69f02f9dbaa28d8f3d760a490876f55060afa4d6882a86c2590cc7b60405160405180910390a3505050565b60008054906101000a900473ffffffffffffffffffffffffffffffffffffffff1681565b606080606060008060606000600288604051611faf919061300b565b908152602001604051809103902060009054906101000a900473ffffffffffffffffffffffffffffffffffffffff169050600073ffffffffffffffffffffffffffffffffffffffff168173ffffffffffffffffffffffffffffffffffffffff160361204f576040517f08c379a0000000000000000000000000000000000000000000000000000000008152600401612046906131b2565b60405180910390fd5b6000600160008373ffffffffffffffffffffffffffffffffffffffff1673ffffffffffffffffffffffffffffffffffffffff16815260200190815260200160002090508060000181600101826002018360040160009054906101000a900473ffffffffffffffffffffffffffffffffffffffff168460030154856005018580546120d890612cce565b80601f016020809104026020016040519081016040528092919081815260200182805461210490612cce565b80156121515780601f1061212657610100808354040283529160200191612151565b820191906000526020600020905b81548152906001019060200180831161213457829003601f168201915b5050505050955084805461216490612cce565b80601f016020809104026020016040519081016040528092919081815260200182805461219090612cce565b80156121dd5780601f106121b2576101008083540402835291602001916121dd565b820191906000526020600020905b8154815290600101906020018083116121c057829003601f168201915b505050505094508380546121f090612cce565b80601f016020809104026020016040519081016040528092919081815260200182805461221c90612cce565b80156122695780601f1061223e57610100808354040283529160200191612269565b820191906000526020600020905b81548152906001019060200180831161224c57829003601f168201915b5050505050935080805480602002602001604051908101604052809291908181526020016000905b828210156123d057838290600052602060002090600402016040518060800160405290816000820180546122c490612cce565b80601f01602080910402602001604051908101604052809291908181526020018280546122f090612cce565b801561233d5780601f106123125761010080835404028352916020019161233d565b820191906000526020600020905b81548152906001019060200180831161232057829003601f168201915b505050505081526020016001820160009054906101000a900473ffffffffffffffffffffffffffffffffffffffff1673ffffffffffffffffffffffffffffffffffffffff1673ffffffffffffffffffffffffffffffffffffffff168152602001600282015481526020016003820160009054906101000a900460ff16151515158152505081526020019060010190612291565b505050509050975097509750975097509750505091939550919395565b6000604051905090565b600080fd5b600080fd5b600073ffffffffffffffffffffffffffffffffffffffff82169050919050565b600061242c82612401565b9050919050565b61243c81612421565b811461244757600080fd5b50565b60008135905061245981612433565b92915050565b600060208284031215612475576124746123f7565b5b60006124838482850161244a565b91505092915050565b600081519050919050565b600082825260208201905092915050565b60005b838110156124c65780820151818401526020810190506124ab565b60008484015250505050565b6000601f19601f8301169050919050565b60006124ee8261248c565b6124f88185612497565b93506125088185602086016124a8565b612511816124d2565b840191505092915050565b61252581612421565b82525050565b6000819050919050565b61253e8161252b565b82525050565b600081519050919050565b600082825260208201905092915050565b6000819050602082019050919050565b600082825260208201905092915050565b600061258c8261248c565b6125968185612570565b93506125a68185602086016124a8565b6125af816124d2565b840191505092915050565b6125c381612421565b82525050565b6125d28161252b565b82525050565b60008115159050919050565b6125ed816125d8565b82525050565b600060808301600083015184820360008601526126108282612581565b915050602083015161262560208601826125ba565b50604083015161263860408601826125c9565b50606083015161264b60608601826125e4565b508091505092915050565b600061266283836125f3565b905092915050565b6000602082019050919050565b600061268282612544565b61268c818561254f565b93508360208202850161269e85612560565b8060005b858110156126da57848403895281516126bb8582612656565b94506126c68361266a565b925060208a019950506001810190506126a2565b50829750879550505050505092915050565b600060c082019050818103600083015261270681896124e3565b9050818103602083015261271a81886124e3565b9050818103604083015261272e81876124e3565b905061273d606083018661251c565b61274a6080830185612535565b81810360a083015261275c8184612677565b9050979650505050505050565b600080fd5b600080fd5b7f4e487b7100000000000000000000000000000000000000000000000000000000600052604160045260246000fd5b6127ab826124d2565b810181811067ffffffffffffffff821117156127ca576127c9612773565b5b80604052505050565b60006127dd6123ed565b90506127e982826127a2565b919050565b600067ffffffffffffffff82111561280957612808612773565b5b612812826124d2565b9050602081019050919050565b82818337600083830152505050565b600061284161283c846127ee565b6127d3565b90508281526020810184848401111561285d5761285c61276e565b5b61286884828561281f565b509392505050565b600082601f83011261288557612884612769565b5b813561289584826020860161282e565b91505092915050565b6128a7816125d8565b81146128b257600080fd5b50565b6000813590506128c48161289e565b92915050565b600080604083850312156128e1576128e06123f7565b5b600083013567ffffffffffffffff8111156128ff576128fe6123fc565b5b61290b85828601612870565b925050602061291c858286016128b5565b9150509250929050565b60006020828403121561293c5761293b6123f7565b5b600082013567ffffffffffffffff81111561295a576129596123fc565b5b61296684828501612870565b91505092915050565b612978816125d8565b82525050565b6000602082019050612993600083018461296f565b92915050565b600080604083850312156129b0576129af6123f7565b5b60006129be8582860161244a565b92505060206129cf8582860161244a565b9150509250929050565b600060208201905081810360008301526129f38184612677565b905092915050565b600081519050919050565b600082825260208201905092915050565b6000819050602082019050919050565b6000612a3383836125ba565b60208301905092915050565b6000602082019050919050565b6000612a57826129fb565b612a618185612a06565b9350612a6c83612a17565b8060005b83811015612a9d578151612a848882612a27565b9750612a8f83612a3f565b925050600181019050612a70565b5085935050505092915050565b60006020820190508181036000830152612ac48184612a4c565b905092915050565b6000602082019050612ae1600083018461251c565b92915050565b612af08161252b565b8114612afb57600080fd5b50565b600081359050612b0d81612ae7565b92915050565b600060208284031215612b2957612b286123f7565b5b6000612b3784828501612afe565b91505092915050565b60006080820190508181036000830152612b5a81876124e3565b9050612b69602083018661251c565b612b766040830185612535565b612b83606083018461296f565b95945050505050565b600080600060608486031215612ba557612ba46123f7565b5b600084013567ffffffffffffffff811115612bc357612bc26123fc565b5b612bcf86828701612870565b935050602084013567ffffffffffffffff811115612bf057612bef6123fc565b5b612bfc86828701612870565b925050604084013567ffffffffffffffff811115612c1d57612c1c6123fc565b5b612c2986828701612870565b9150509250925092565b7f50726f66696c6520646f65736e27742065786973740000000000000000000000600082015250565b6000612c69601583612497565b9150612c7482612c33565b602082019050919050565b60006020820190508181036000830152612c9881612c5c565b9050919050565b7f4e487b7100000000000000000000000000000000000000000000000000000000600052602260045260246000fd5b60006002820490506001821680612ce657607f821691505b602082108103612cf957612cf8612c9f565b5b50919050565b60008190508160005260206000209050919050565b60006020601f8301049050919050565b600082821b905092915050565b600060088302612d617fffffffffffffffffffffffffffffffffffffffffffffffffffffffffffffffff82612d24565b612d6b8683612d24565b95508019841693508086168417925050509392505050565b6000819050919050565b6000612da8612da3612d9e8461252b565b612d83565b61252b565b9050919050565b6000819050919050565b612dc283612d8d565b612dd6612dce82612daf565b848454612d31565b825550505050565b600090565b612deb612dde565b612df6818484612db9565b505050565b5b81811015612e1a57612e0f600082612de3565b600181019050612dfc565b5050565b601f821115612e5f57612e3081612cff565b612e3984612d14565b81016020851015612e48578190505b612e5c612e5485612d14565b830182612dfb565b50505b505050565b600082821c905092915050565b6000612e8260001984600802612e64565b1980831691505092915050565b6000612e9b8383612e71565b9150826002028217905092915050565b612eb48261248c565b67ffffffffffffffff811115612ecd57612ecc612773565b5b612ed78254612cce565b612ee2828285612e1e565b600060209050601f831160018114612f155760008415612f03578287015190505b612f0d8582612e8f565b865550612f75565b601f198416612f2386612cff565b60005b82811015612f4b57848901518255600182019150602085019450602081019050612f26565b86831015612f685784890151612f64601f891682612e71565b8355505b6001600288020188555050505b505050505050565b60006040820190508181036000830152612f9781856124e3565b9050612fa6602083018461296f565b9392505050565b60006020820190508181036000830152612fc781846124e3565b905092915050565b600081905092915050565b6000612fe58261248c565b612fef8185612fcf565b9350612fff8185602086016124a8565b80840191505092915050565b60006130178284612fda565b915081905092915050565b7f4e6f7420667269656e6473000000000000000000000000000000000000000000600082015250565b6000613058600b83612497565b915061306382613022565b602082019050919050565b600060208201905081810360008301526130878161304b565b9050919050565b7f50726f66696c6520616c72656164792065786973747300000000000000000000600082015250565b60006130c4601683612497565b91506130cf8261308e565b602082019050919050565b600060208201905081810360008301526130f3816130b7565b9050919050565b7f416c726561647920667269656e64730000000000000000000000000000000000600082015250565b6000613130600f83612497565b915061313b826130fa565b602082019050919050565b6000602082019050818103600083015261315f81613123565b9050919050565b7f456d61696c206e6f742072656769737465726564000000000000000000000000600082015250565b600061319c601483612497565b91506131a782613166565b602082019050919050565b600060208201905081810360008301526131cb8161318f565b905091905056fea2646970667358221220325a4a4ab026839cfbc6ddeb64024220813f15ab583d4e55a19b705e8490b9c364736f6c634300081c0033",
  "linkReferences": {},
  "deployedLinkReferences": {}
}