{
  "_format": "hh-sol-artifact-1",
  "contractName": "BlipPosts",
  "sourceName": "contracts/BlipPosts.sol",
  "abi": [
    {
      "anonymous": false,
      "inputs": [
        {
          "indexed": true,
          "internalType": "uint256",
          "name": "postId",
          "type": "uint256"
        },
        {
          "indexed": true,
          "internalType": "address",
          "name": "user",
          "type": "address"
        },
        {
          "indexed": false,
          "internalType": "string",
          "name": "comment",
          "type": "string"
        }
      ],
      "name": "CommentAdded",
      "type": "event"
    },
    {
      "anonymous": false,
      "inputs": [
        {
          "indexed": true,
          "internalType": "uint256",
          "name": "postId",
          "type": "uint256"
        },
        {
          "indexed": true,
          "internalType": "address",
          "name": "owner",
          "type": "address"
        },
        {
          "indexed": false,
          "internalType": "string",
          "name": "text",
          "type": "string"
        },
        {
          "indexed": false,
          "internalType": "string",
          "name": "imageHash",
          "type": "string"
        },
        {
          "indexed": false,
          "internalType": "bool",
          "name": "isPublic",
          "type": "bool"
        }
      ],
      "name": "PostCreated",
      "type": "event"
    },
    {
      "anonymous": false,
      "inputs": [
        {
          "indexed": true,
          "internalType": "uint256",
          "name": "postId",
          "type": "uint256"
        },
        {
          "indexed": true,
          "internalType": "address",
          "name": "user",
          "type": "address"
        }
      ],
      "name": "PostLiked",
      "type": "event"
    },
    {
      "anonymous": false,
      "inputs": [
        {
          "indexed": true,
          "internalType": "uint256",
          "name": "postId",
          "type": "uint256"
        },
        {
          "indexed": true,
          "internalType": "address",
          "name": "user",
          "type": "address"
        }
      ],
      "name": "PostShared",
      "type": "event"
    },
    {
      "inputs": [
        {
          "internalType": "uint256",
          "name": "postId",
          "type": "uint256"
        },
        {
          "internalType": "string",
          "name": "comment",
          "type": "string"
        }
      ],
      "name": "commentOnPost",
      "outputs": [],
      "stateMutability": "nonpayable",
      "type": "function"
    },
    {
      "inputs": [
        {
          "internalType": "string",
          "name": "text",
          "type": "string"
        },
        {
          "internalType": "string",
          "name": "imageHash",
          "type": "string"
        },
        {
          "internalType": "bool",
          "name": "isPublic",
          "type": "bool"
        }
      ],
      "name": "createPost",
      "outputs": [],
      "stateMutability": "nonpayable",
      "type": "function"
    },
    {
      "inputs": [
        {
          "internalType": "uint256",
          "name": "postId",
          "type": "uint256"
        }
      ],
      "name": "getComments",
      "outputs": [
        {
          "components": [
            {
              "internalType": "address",
              "name": "commenter",
              "type": "address"
            },
            {
              "internalType": "string",
              "name": "text",
              "type": "string"
            },
            {
              "internalType": "uint256",
              "name": "timestamp",
              "type": "uint256"
            }
          ],
          "internalType": "struct BlipPosts.Comment[]",
          "name": "",
          "type": "tuple[]"
        }
      ],
      "stateMutability": "view",
      "type": "function"
    },
    {
      "inputs": [
        {
          "internalType": "uint256",
          "name": "postId",
          "type": "uint256"
        }
      ],
      "name": "getLikes",
      "outputs": [
        {
          "internalType": "address[]",
          "name": "",
          "type": "address[]"
        }
      ],
      "stateMutability": "view",
      "type": "function"
    },
    {
      "inputs": [
        {
          "internalType": "address",
          "name": "user",
          "type": "address"
        }
      ],
      "name": "getUserPosts",
      "outputs": [
        {
          "internalType": "uint256[]",
          "name": "",
          "type": "uint256[]"
        }
      ],
      "stateMutability": "view",
      "type": "function"
    },
    {
      "inputs": [
        {
          "internalType": "uint256",
          "name": "postId",
          "type": "uint256"
        }
      ],
      "name": "likePost",
      "outputs": [],
      "stateMutability": "nonpayable",
      "type": "function"
    },
    {
      "inputs": [
        {
          "internalType": "uint256",
          "name": "",
          "type": "uint256"
        },
        {
          "internalType": "uint256",
          "name": "",
          "type": "uint256"
        }
      ],
      "name": "postComments",
      "outputs": [
        {
          "internalType": "address",
          "name": "commenter",
          "type": "address"
        },
        {
          "internalType": "string",
          "name": "text",
          "type": "string"
        },
        {
          "internalType": "uint256",
          "name": "timestamp",
          "type": "uint256"
        }
      ],
      "stateMutability": "view",
      "type": "function"
    },
    {
      "inputs": [
        {
          "internalType": "uint256",
          "name": "",
          "type": "uint256"
        },
        {
          "internalType": "uint256",
          "name": "",
          "type": "uint256"
        }
      ],
      "name": "postLikes",
      "outputs": [
        {
          "internalType": "address",
          "name": "",
          "type": "address"
        }
      ],
      "stateMutability": "view",
      "type": "function"
    },
    {
      "inputs": [
        {
          "internalType": "uint256",
          "name": "",
          "type": "uint256"
        }
      ],
      "name": "posts",
      "outputs": [
        {
          "internalType": "uint256",
          "name": "id",
          "type": "uint256"
        },
        {
          "internalType": "address",
          "name": "owner",
          "type": "address"
        },
        {
          "internalType": "string",
          "name": "text",
          "type": "string"
        },
        {
          "internalType": "string",
          "name": "imageHash",
          "type": "string"
        },
        {
          "internalType": "bool",
          "name": "isPublic",
          "type": "bool"
        },
        {
          "internalType": "uint256",
          "name": "timestamp",
          "type": "uint256"
        },
        {
          "internalType": "uint256",
          "name": "likeCount",
          "type": "uint256"
        },
        {
          "internalType": "uint256",
          "name": "shareCount",
          "type": "uint256"
        }
      ],
      "stateMutability": "view",
      "type": "function"
    },
    {
      "inputs": [
        {
          "internalType": "uint256",
          "name": "postId",
          "type": "uint256"
        }
      ],
      "name": "sharePost",
      "outputs": [],
      "stateMutability": "nonpayable",
      "type": "function"
    },
    {
      "inputs": [
        {
          "internalType": "address",
          "name": "",
          "type": "address"
        },
        {
          "internalType": "uint256",
          "name": "",
          "type": "uint256"
        }
      ],
      "name": "userPosts",
      "outputs": [
        {
          "internalType": "uint256",
          "name": "",
          "type": "uint256"
        }
      ],
      "stateMutability": "view",
      "type": "function"
    }
  ],
  "bytecode": "0x6080604052348015600f57600080fd5b50611db28061001f6000396000f3fe608060405234801561001057600080fd5b50600436106100a95760003560e01c8063725009d311610071578063725009d3146101935780638064d149146101af5780639a2194a9146101df578063a209081e1461020f578063c250bd811461023f578063f5d763201461025b576100a9565b80630b1e7f83146100ae5780630f449d80146100e557806323edf697146101155780635193c94c146101455780636473215414610177575b600080fd5b6100c860048036038101906100c39190610f26565b610277565b6040516100dc98979695949392919061104e565b60405180910390f35b6100ff60048036038101906100fa91906110da565b6103fc565b60405161010c919061111a565b60405180910390f35b61012f600480360381019061012a9190610f26565b61044a565b60405161013c91906112af565b60405180910390f35b61015f600480360381019061015a91906110da565b6105ae565b60405161016e939291906112d1565b60405180910390f35b610191600480360381019061018c9190611444565b61069d565b005b6101ad60048036038101906101a89190610f26565b61085b565b005b6101c960048036038101906101c491906114cc565b610a62565b6040516101d6919061150c565b60405180910390f35b6101f960048036038101906101f49190611527565b610a93565b6040516102069190611603565b60405180910390f35b61022960048036038101906102249190610f26565b610b2a565b60405161023691906116d4565b60405180910390f35b61025960048036038101906102549190611722565b610bcb565b005b61027560048036038101906102709190610f26565b610e17565b005b60016020528060005260406000206000915090508060000154908060010160009054906101000a900473ffffffffffffffffffffffffffffffffffffffff16908060020180546102c6906117dc565b80601f01602080910402602001604051908101604052809291908181526020018280546102f2906117dc565b801561033f5780601f106103145761010080835404028352916020019161033f565b820191906000526020600020905b81548152906001019060200180831161032257829003601f168201915b505050505090806003018054610354906117dc565b80601f0160208091040260200160405190810160405280929190818152602001828054610380906117dc565b80156103cd5780601f106103a2576101008083540402835291602001916103cd565b820191906000526020600020905b8154815290600101906020018083116103b057829003601f168201915b5050505050908060040160009054906101000a900460ff16908060050154908060060154908060070154905088565b6003602052816000526040600020818154811061041857600080fd5b906000526020600020016000915091509054906101000a900473ffffffffffffffffffffffffffffffffffffffff1681565b606060046000838152602001908152602001600020805480602002602001604051908101604052809291908181526020016000905b828210156105a357838290600052602060002090600302016040518060600160405290816000820160009054906101000a900473ffffffffffffffffffffffffffffffffffffffff1673ffffffffffffffffffffffffffffffffffffffff1673ffffffffffffffffffffffffffffffffffffffff168152602001600182018054610508906117dc565b80601f0160208091040260200160405190810160405280929190818152602001828054610534906117dc565b80156105815780601f1061055657610100808354040283529160200191610581565b820191906000526020600020905b81548152906001019060200180831161056457829003601f168201915b505050505081526020016002820154815250508152602001906001019061047f565b505050509050919050565b600460205281600052604060002081815481106105ca57600080fd5b9060005260206000209060030201600091509150508060000160009054906101000a900473ffffffffffffffffffffffffffffffffffffffff1690806001018054610614906117dc565b80601f0160208091040260200160405190810160405280929190818152602001828054610640906117dc565b801561068d5780601f106106625761010080835404028352916020019161068d565b820191906000526020600020905b81548152906001019060200180831161067057829003601f168201915b5050505050908060020154905083565b60008151116106e1576040517f08c379a00000000000000000000000000000000000000000000000000000000081526004016106d890611859565b60405180910390fd5b6000821180156106f357506000548211155b610732576040517f08c379a0000000000000000000000000000000000000000000000000000000008152600401610729906118c5565b60405180910390fd5b6004600083815260200190815260200160002060405180606001604052803373ffffffffffffffffffffffffffffffffffffffff16815260200183815260200142815250908060018154018082558091505060019003906000526020600020906003020160009091909190915060008201518160000160006101000a81548173ffffffffffffffffffffffffffffffffffffffff021916908373ffffffffffffffffffffffffffffffffffffffff16021790555060208201518160010190816107fb9190611a91565b506040820151816002015550503373ffffffffffffffffffffffffffffffffffffffff16827fcc2d7dd2085ae6644799a42c0174adf9afc10a43f26db5eac3ddd1f96d1d64be8360405161084f9190611b63565b60405180910390a35050565b60008111801561086d57506000548111155b6108ac576040517f08c379a00000000000000000000000000000000000000000000000000000000081526004016108a3906118c5565b60405180910390fd5b600060036000838152602001908152602001600020905060005b818054905081101561098a573373ffffffffffffffffffffffffffffffffffffffff168282815481106108fc576108fb611b85565b5b9060005260206000200160009054906101000a900473ffffffffffffffffffffffffffffffffffffffff1673ffffffffffffffffffffffffffffffffffffffff160361097d576040517f08c379a000000000000000000000000000000000000000000000000000000000815260040161097490611c00565b60405180910390fd5b80806001019150506108c6565b5080339080600181540180825580915050600190039060005260206000200160009091909190916101000a81548173ffffffffffffffffffffffffffffffffffffffff021916908373ffffffffffffffffffffffffffffffffffffffff16021790555060018060008481526020019081526020016000206006016000828254610a139190611c4f565b925050819055503373ffffffffffffffffffffffffffffffffffffffff16827fcf765d6f163c9b0d832e2a94f4c8e9bffd32a2c3ca5fdbb8cc67b5fe1441f41360405160405180910390a35050565b60026020528160005260406000208181548110610a7e57600080fd5b90600052602060002001600091509150505481565b6060600260008373ffffffffffffffffffffffffffffffffffffffff1673ffffffffffffffffffffffffffffffffffffffff168152602001908152602001600020805480602002602001604051908101604052809291908181526020018280548015610b1e57602002820191906000526020600020905b815481526020019060010190808311610b0a575b50505050509050919050565b606060036000838152602001908152602001600020805480602002602001604051908101604052809291908181526020018280548015610bbf57602002820191906000526020600020905b8160009054906101000a900473ffffffffffffffffffffffffffffffffffffffff1673ffffffffffffffffffffffffffffffffffffffff1681526020019060010190808311610b75575b50505050509050919050565b600083511180610bdc575060008251115b610c1b576040517f08c379a0000000000000000000000000000000000000000000000000000000008152600401610c1290611ccf565b60405180910390fd5b60008060008154610c2b90611cef565b91905081905590506040518061010001604052808281526020013373ffffffffffffffffffffffffffffffffffffffff1681526020018581526020018481526020018315158152602001428152602001600081526020016000815250600160008381526020019081526020016000206000820151816000015560208201518160010160006101000a81548173ffffffffffffffffffffffffffffffffffffffff021916908373ffffffffffffffffffffffffffffffffffffffff1602179055506040820151816002019081610d009190611a91565b506060820151816003019081610d169190611a91565b5060808201518160040160006101000a81548160ff02191690831515021790555060a0820151816005015560c0820151816006015560e08201518160070155905050600260003373ffffffffffffffffffffffffffffffffffffffff1673ffffffffffffffffffffffffffffffffffffffff1681526020019081526020016000208190806001815401808255809150506001900390600052602060002001600090919091909150553373ffffffffffffffffffffffffffffffffffffffff16817fc0449481752f457f65e9d2e65a285851560dd473d2e10a4b0e1b3b73811c3a15868686604051610e0993929190611d37565b60405180910390a350505050565b600081118015610e2957506000548111155b610e68576040517f08c379a0000000000000000000000000000000000000000000000000000000008152600401610e5f906118c5565b60405180910390fd5b60018060008381526020019081526020016000206007016000828254610e8e9190611c4f565b925050819055503373ffffffffffffffffffffffffffffffffffffffff16817f9ad6b9c25fe64910aa38489f778ed1d1334a3f784d3aeedc050948b26115f86960405160405180910390a350565b6000604051905090565b600080fd5b600080fd5b6000819050919050565b610f0381610ef0565b8114610f0e57600080fd5b50565b600081359050610f2081610efa565b92915050565b600060208284031215610f3c57610f3b610ee6565b5b6000610f4a84828501610f11565b91505092915050565b610f5c81610ef0565b82525050565b600073ffffffffffffffffffffffffffffffffffffffff82169050919050565b6000610f8d82610f62565b9050919050565b610f9d81610f82565b82525050565b600081519050919050565b600082825260208201905092915050565b60005b83811015610fdd578082015181840152602081019050610fc2565b60008484015250505050565b6000601f19601f8301169050919050565b600061100582610fa3565b61100f8185610fae565b935061101f818560208601610fbf565b61102881610fe9565b840191505092915050565b60008115159050919050565b61104881611033565b82525050565b600061010082019050611064600083018b610f53565b611071602083018a610f94565b81810360408301526110838189610ffa565b905081810360608301526110978188610ffa565b90506110a6608083018761103f565b6110b360a0830186610f53565b6110c060c0830185610f53565b6110cd60e0830184610f53565b9998505050505050505050565b600080604083850312156110f1576110f0610ee6565b5b60006110ff85828601610f11565b925050602061111085828601610f11565b9150509250929050565b600060208201905061112f6000830184610f94565b92915050565b600081519050919050565b600082825260208201905092915050565b6000819050602082019050919050565b61116a81610f82565b82525050565b600082825260208201905092915050565b600061118c82610fa3565b6111968185611170565b93506111a6818560208601610fbf565b6111af81610fe9565b840191505092915050565b6111c381610ef0565b82525050565b60006060830160008301516111e16000860182611161565b50602083015184820360208601526111f98282611181565b915050604083015161120e60408601826111ba565b508091505092915050565b600061122583836111c9565b905092915050565b6000602082019050919050565b600061124582611135565b61124f8185611140565b93508360208202850161126185611151565b8060005b8581101561129d578484038952815161127e8582611219565b94506112898361122d565b925060208a01995050600181019050611265565b50829750879550505050505092915050565b600060208201905081810360008301526112c9818461123a565b905092915050565b60006060820190506112e66000830186610f94565b81810360208301526112f88185610ffa565b90506113076040830184610f53565b949350505050565b600080fd5b600080fd5b7f4e487b7100000000000000000000000000000000000000000000000000000000600052604160045260246000fd5b61135182610fe9565b810181811067ffffffffffffffff821117156113705761136f611319565b5b80604052505050565b6000611383610edc565b905061138f8282611348565b919050565b600067ffffffffffffffff8211156113af576113ae611319565b5b6113b882610fe9565b9050602081019050919050565b82818337600083830152505050565b60006113e76113e284611394565b611379565b90508281526020810184848401111561140357611402611314565b5b61140e8482856113c5565b509392505050565b600082601f83011261142b5761142a61130f565b5b813561143b8482602086016113d4565b91505092915050565b6000806040838503121561145b5761145a610ee6565b5b600061146985828601610f11565b925050602083013567ffffffffffffffff81111561148a57611489610eeb565b5b61149685828601611416565b9150509250929050565b6114a981610f82565b81146114b457600080fd5b50565b6000813590506114c6816114a0565b92915050565b600080604083850312156114e3576114e2610ee6565b5b60006114f1858286016114b7565b925050602061150285828601610f11565b9150509250929050565b60006020820190506115216000830184610f53565b92915050565b60006020828403121561153d5761153c610ee6565b5b600061154b848285016114b7565b91505092915050565b600081519050919050565b600082825260208201905092915050565b6000819050602082019050919050565b600061158c83836111ba565b60208301905092915050565b6000602082019050919050565b60006115b082611554565b6115ba818561155f565b93506115c583611570565b8060005b838110156115f65781516115dd8882611580565b97506115e883611598565b9250506001810190506115c9565b5085935050505092915050565b6000602082019050818103600083015261161d81846115a5565b905092915050565b600081519050919050565b600082825260208201905092915050565b6000819050602082019050919050565b600061165d8383611161565b60208301905092915050565b6000602082019050919050565b600061168182611625565b61168b8185611630565b935061169683611641565b8060005b838110156116c75781516116ae8882611651565b97506116b983611669565b92505060018101905061169a565b5085935050505092915050565b600060208201905081810360008301526116ee8184611676565b905092915050565b6116ff81611033565b811461170a57600080fd5b50565b60008135905061171c816116f6565b92915050565b60008060006060848603121561173b5761173a610ee6565b5b600084013567ffffffffffffffff81111561175957611758610eeb565b5b61176586828701611416565b935050602084013567ffffffffffffffff81111561178657611785610eeb565b5b61179286828701611416565b92505060406117a38682870161170d565b9150509250925092565b7f4e487b7100000000000000000000000000000000000000000000000000000000600052602260045260246000fd5b600060028204905060018216806117f457607f821691505b602082108103611807576118066117ad565b5b50919050565b7f436f6d6d656e7420726571756972656400000000000000000000000000000000600082015250565b6000611843601083610fae565b915061184e8261180d565b602082019050919050565b6000602082019050818103600083015261187281611836565b9050919050565b7f496e76616c696420706f73742049440000000000000000000000000000000000600082015250565b60006118af600f83610fae565b91506118ba82611879565b602082019050919050565b600060208201905081810360008301526118de816118a2565b9050919050565b60008190508160005260206000209050919050565b60006020601f8301049050919050565b600082821b905092915050565b6000600883026119477fffffffffffffffffffffffffffffffffffffffffffffffffffffffffffffffff8261190a565b611951868361190a565b95508019841693508086168417925050509392505050565b6000819050919050565b600061198e61198961198484610ef0565b611969565b610ef0565b9050919050565b6000819050919050565b6119a883611973565b6119bc6119b482611995565b848454611917565b825550505050565b600090565b6119d16119c4565b6119dc81848461199f565b505050565b5b81811015611a00576119f56000826119c9565b6001810190506119e2565b5050565b601f821115611a4557611a16816118e5565b611a1f846118fa565b81016020851015611a2e578190505b611a42611a3a856118fa565b8301826119e1565b50505b505050565b600082821c905092915050565b6000611a6860001984600802611a4a565b1980831691505092915050565b6000611a818383611a57565b9150826002028217905092915050565b611a9a82610fa3565b67ffffffffffffffff811115611ab357611ab2611319565b5b611abd82546117dc565b611ac8828285611a04565b600060209050601f831160018114611afb5760008415611ae9578287015190505b611af38582611a75565b865550611b5b565b601f198416611b09866118e5565b60005b82811015611b3157848901518255600182019150602085019450602081019050611b0c565b86831015611b4e5784890151611b4a601f891682611a57565b8355505b6001600288020188555050505b505050505050565b60006020820190508181036000830152611b7d8184610ffa565b905092915050565b7f4e487b7100000000000000000000000000000000000000000000000000000000600052603260045260246000fd5b7f416c7265616479206c696b656400000000000000000000000000000000000000600082015250565b6000611bea600d83610fae565b9150611bf582611bb4565b602082019050919050565b60006020820190508181036000830152611c1981611bdd565b9050919050565b7f4e487b7100000000000000000000000000000000000000000000000000000000600052601160045260246000fd5b6000611c5a82610ef0565b9150611c6583610ef0565b9250828201905080821115611c7d57611c7c611c20565b5b92915050565b7f506f737420636f6e74656e742072657175697265640000000000000000000000600082015250565b6000611cb9601583610fae565b9150611cc482611c83565b602082019050919050565b60006020820190508181036000830152611ce881611cac565b9050919050565b6000611cfa82610ef0565b91507fffffffffffffffffffffffffffffffffffffffffffffffffffffffffffffffff8203611d2c57611d2b611c20565b5b600182019050919050565b60006060820190508181036000830152611d518186610ffa565b90508181036020830152611d658185610ffa565b9050611d74604083018461103f565b94935050505056fea2646970667358221220c5a2b2173006e5d9d9cb0e0a8d69939624f816282ee2a6e3eb0bb6c84f627bd364736f6c634300081c0033",
  "linkReferences": {},
  "deployedLinkReferences": {}
}