{
  "_format": "hh-sol-artifact-1",
  "contractName": "BlipProfile",
  "sourceName": "contracts/BlipProfile.sol",
  "abi": [
    {
      "inputs": [],
      "stateMutability": "nonpayable",
      "type": "constructor"
    },
    {
      "anonymous": false,
      "inputs": [
        {
          "indexed": false,
          "internalType": "string",
          "name": "text",
          "type": "string"
        }
      ],
      "name": "AdminPostAdded",
      "type": "event"
    },
    {
      "anonymous": false,
      "inputs": [
        {
          "indexed": true,
          "internalType": "address",
          "name": "user",
          "type": "address"
        },
        {
          "indexed": false,
          "internalType": "string",
          "name": "newBio",
          "type": "string"
        }
      ],
      "name": "BioUpdated",
      "type": "event"
    },
    {
      "anonymous": false,
      "inputs": [
        {
          "indexed": true,
          "internalType": "address",
          "name": "by",
          "type": "address"
        },
        {
          "indexed": true,
          "internalType": "address",
          "name": "newFriend",
          "type": "address"
        }
      ],
      "name": "FriendAdded",
      "type": "event"
    },
    {
      "anonymous": false,
      "inputs": [
        {
          "indexed": true,
          "internalType": "address",
          "name": "by",
          "type": "address"
        },
        {
          "indexed": true,
          "internalType": "address",
          "name": "exFriend",
          "type": "address"
        }
      ],
      "name": "FriendRemoved",
      "type": "event"
    },
    {
      "anonymous": false,
      "inputs": [
        {
          "indexed": true,
          "internalType": "address",
          "name": "from",
          "type": "address"
        },
        {
          "indexed": true,
          "internalType": "address",
          "name": "to",
          "type": "address"
        }
      ],
      "name": "FriendRequestAccepted",
      "type": "event"
    },
    {
      "anonymous": false,
      "inputs": [
        {
          "indexed": true,
          "internalType": "address",
          "name": "from",
          "type": "address"
        },
        {
          "indexed": true,
          "internalType": "address",
          "name": "to",
          "type": "address"
        }
      ],
      "name": "FriendRequestRejected",
      "type": "event"
    },
    {
      "anonymous": false,
      "inputs": [
        {
          "indexed": true,
          "internalType": "address",
          "name": "from",
          "type": "address"
        },
        {
          "indexed": true,
          "internalType": "address",
          "name": "to",
          "type": "address"
        }
      ],
      "name": "FriendRequestSent",
      "type": "event"
    },
    {
      "anonymous": false,
      "inputs": [
        {
          "indexed": true,
          "internalType": "address",
          "name": "user",
          "type": "address"
        },
        {
          "indexed": false,
          "internalType": "string",
          "name": "newName",
          "type": "string"
        }
      ],
      "name": "NameUpdated",
      "type": "event"
    },
    {
      "anonymous": false,
      "inputs": [
        {
          "indexed": true,
          "internalType": "address",
          "name": "user",
          "type": "address"
        },
        {
          "indexed": false,
          "internalType": "string",
          "name": "text",
          "type": "string"
        },
        {
          "indexed": false,
          "internalType": "bool",
          "name": "isPublic",
          "type": "bool"
        }
      ],
      "name": "PostAdded",
      "type": "event"
    },
    {
      "inputs": [
        {
          "internalType": "address",
          "name": "from",
          "type": "address"
        }
      ],
      "name": "acceptFriendRequest",
      "outputs": [],
      "stateMutability": "nonpayable",
      "type": "function"
    },
    {
      "inputs": [
        {
          "internalType": "address",
          "name": "newFriend",
          "type": "address"
        }
      ],
      "name": "addFriend",
      "outputs": [],
      "stateMutability": "nonpayable",
      "type": "function"
    },
    {
      "inputs": [
        {
          "internalType": "string",
          "name": "text",
          "type": "string"
        },
        {
          "internalType": "bool",
          "name": "isPublic",
          "type": "bool"
        }
      ],
      "name": "addPost",
      "outputs": [],
      "stateMutability": "nonpayable",
      "type": "function"
    },
    {
      "inputs": [],
      "name": "admin",
      "outputs": [
        {
          "internalType": "address",
          "name": "",
          "type": "address"
        }
      ],
      "stateMutability": "view",
      "type": "function"
    },
    {
      "inputs": [
        {
          "internalType": "uint256",
          "name": "",
          "type": "uint256"
        }
      ],
      "name": "adminPosts",
      "outputs": [
        {
          "internalType": "string",
          "name": "text",
          "type": "string"
        },
        {
          "internalType": "address",
          "name": "owner",
          "type": "address"
        },
        {
          "internalType": "uint256",
          "name": "timestamp",
          "type": "uint256"
        },
        {
          "internalType": "bool",
          "name": "isPublic",
          "type": "bool"
        }
      ],
      "stateMutability": "view",
      "type": "function"
    },
    {
      "inputs": [
        {
          "internalType": "string",
          "name": "name",
          "type": "string"
        },
        {
          "internalType": "string",
          "name": "email",
          "type": "string"
        },
        {
          "internalType": "string",
          "name": "bio",
          "type": "string"
        }
      ],
      "name": "createProfile",
      "outputs": [],
      "stateMutability": "nonpayable",
      "type": "function"
    },
    {
      "inputs": [
        {
          "internalType": "string",
          "name": "email",
          "type": "string"
        }
      ],
      "name": "emailExists",
      "outputs": [
        {
          "internalType": "bool",
          "name": "",
          "type": "bool"
        }
      ],
      "stateMutability": "view",
      "type": "function"
    },
    {
      "inputs": [],
      "name": "getAdminPosts",
      "outputs": [
        {
          "components": [
            {
              "internalType": "string",
              "name": "text",
              "type": "string"
            },
            {
              "internalType": "address",
              "name": "owner",
              "type": "address"
            },
            {
              "internalType": "uint256",
              "name": "timestamp",
              "type": "uint256"
            },
            {
              "internalType": "bool",
              "name": "isPublic",
              "type": "bool"
            }
          ],
          "internalType": "struct BlipProfile.Post[]",
          "name": "",
          "type": "tuple[]"
        }
      ],
      "stateMutability": "view",
      "type": "function"
    },
    {
      "inputs": [
        {
          "internalType": "address",
          "name": "user",
          "type": "address"
        }
      ],
      "name": "getFriends",
      "outputs": [
        {
          "internalType": "address[]",
          "name": "",
          "type": "address[]"
        }
      ],
      "stateMutability": "view",
      "type": "function"
    },
    {
      "inputs": [
        {
          "internalType": "address",
          "name": "user",
          "type": "address"
        }
      ],
      "name": "getPosts",
      "outputs": [
        {
          "components": [
            {
              "internalType": "string",
              "name": "text",
              "type": "string"
            },
            {
              "internalType": "address",
              "name": "owner",
              "type": "address"
            },
            {
              "internalType": "uint256",
              "name": "timestamp",
              "type": "uint256"
            },
            {
              "internalType": "bool",
              "name": "isPublic",
              "type": "bool"
            }
          ],
          "internalType": "struct BlipProfile.Post[]",
          "name": "",
          "type": "tuple[]"
        }
      ],
      "stateMutability": "view",
      "type": "function"
    },
    {
      "inputs": [
        {
          "internalType": "address",
          "name": "user",
          "type": "address"
        }
      ],
      "name": "getProfile",
      "outputs": [
        {
          "internalType": "string",
          "name": "name",
          "type": "string"
        },
        {
          "internalType": "string",
          "name": "email",
          "type": "string"
        },
        {
          "internalType": "string",
          "name": "bio",
          "type": "string"
        },
        {
          "internalType": "address",
          "name": "wallet",
          "type": "address"
        },
        {
          "internalType": "uint256",
          "name": "createdAt",
          "type": "uint256"
        },
        {
          "components": [
            {
              "internalType": "string",
              "name": "text",
              "type": "string"
            },
            {
              "internalType": "address",
              "name": "owner",
              "type": "address"
            },
            {
              "internalType": "uint256",
              "name": "timestamp",
              "type": "uint256"
            },
            {
              "internalType": "bool",
              "name": "isPublic",
              "type": "bool"
            }
          ],
          "internalType": "struct BlipProfile.Post[]",
          "name": "posts",
          "type": "tuple[]"
        }
      ],
      "stateMutability": "view",
      "type": "function"
    },
    {
      "inputs": [
        {
          "internalType": "string",
          "name": "email",
          "type": "string"
        }
      ],
      "name": "getProfileByEmail",
      "outputs": [
        {
          "internalType": "string",
          "name": "name",
          "type": "string"
        },
        {
          "internalType": "string",
          "name": "emailOut",
          "type": "string"
        },
        {
          "internalType": "string",
          "name": "bio",
          "type": "string"
        },
        {
          "internalType": "address",
          "name": "wallet",
          "type": "address"
        },
        {
          "internalType": "uint256",
          "name": "createdAt",
          "type": "uint256"
        },
        {
          "components": [
            {
              "internalType": "string",
              "name": "text",
              "type": "string"
            },
            {
              "internalType": "address",
              "name": "owner",
              "type": "address"
            },
            {
              "internalType": "uint256",
              "name": "timestamp",
              "type": "uint256"
            },
            {
              "internalType": "bool",
              "name": "isPublic",
              "type": "bool"
            }
          ],
          "internalType": "struct BlipProfile.Post[]",
          "name": "posts",
          "type": "tuple[]"
        }
      ],
      "stateMutability": "view",
      "type": "function"
    },
    {
      "inputs": [
        {
          "internalType": "string",
          "name": "email",
          "type": "string"
        }
      ],
      "name": "getWalletByEmail",
      "outputs": [
        {
          "internalType": "address",
          "name": "",
          "type": "address"
        }
      ],
      "stateMutability": "view",
      "type": "function"
    },
    {
      "inputs": [
        {
          "internalType": "address",
          "name": "user1",
          "type": "address"
        },
        {
          "internalType": "address",
          "name": "user2",
          "type": "address"
        }
      ],
      "name": "isFriend",
      "outputs": [
        {
          "internalType": "bool",
          "name": "",
          "type": "bool"
        }
      ],
      "stateMutability": "view",
      "type": "function"
    },
    {
      "inputs": [],
      "name": "listFriendRequests",
      "outputs": [
        {
          "internalType": "address[]",
          "name": "",
          "type": "address[]"
        }
      ],
      "stateMutability": "view",
      "type": "function"
    },
    {
      "inputs": [
        {
          "internalType": "address",
          "name": "user",
          "type": "address"
        }
      ],
      "name": "listSentRequests",
      "outputs": [
        {
          "internalType": "address[]",
          "name": "",
          "type": "address[]"
        }
      ],
      "stateMutability": "view",
      "type": "function"
    },
    {
      "inputs": [
        {
          "internalType": "address",
          "name": "from",
          "type": "address"
        }
      ],
      "name": "rejectFriendRequest",
      "outputs": [],
      "stateMutability": "nonpayable",
      "type": "function"
    },
    {
      "inputs": [
        {
          "internalType": "address",
          "name": "exFriend",
          "type": "address"
        }
      ],
      "name": "removeFriend",
      "outputs": [],
      "stateMutability": "nonpayable",
      "type": "function"
    },
    {
      "inputs": [
        {
          "internalType": "address",
          "name": "to",
          "type": "address"
        }
      ],
      "name": "sendFriendRequest",
      "outputs": [],
      "stateMutability": "nonpayable",
      "type": "function"
    },
    {
      "inputs": [
        {
          "internalType": "string",
          "name": "newBio",
          "type": "string"
        }
      ],
      "name": "updateBio",
      "outputs": [],
      "stateMutability": "nonpayable",
      "type": "function"
    },
    {
      "inputs": [
        {
          "internalType": "string",
          "name": "newName",
          "type": "string"
        }
      ],
      "name": "updateName",
      "outputs": [],
      "stateMutability": "nonpayable",
      "type": "function"
    }
  ],
  "bytecode": "0x6080604052348015600f57600080fd5b50336000806101000a81548173ffffffffffffffffffffffffffffffffffffffff021916908373ffffffffffffffffffffffffffffffffffffffff16021790555061462d8061005f6000396000f3fe608060405234801561001057600080fd5b50600436106101375760003560e01c806380cee8a5116100b8578063a9f564661161007c578063a9f564661461038a578063c0015f4f146103a6578063c6426f5d146103c2578063d7a1cfe1146103e0578063f851a440146103fc578063f8f5698c1461041a57610137565b806380cee8a5146102e7578063837b770a1461030357806383d57b081461031f57806384da92a7146103525780639841c82c1461036e57610137565b8063406af5bd116100ff578063406af5bd1461020b5780634caf9d0b1461023b5780635cbb7caa1461026b5780636c2eec281461029b57806376487b38146102cb57610137565b80630f53a4701461013c5780631da6e17c14610171578063253b66b51461018d5780632be46c3c146101ab5780632da5d42e146101db575b600080fd5b6101566004803603810190610151919061367f565b61044f565b6040516101689695949392919061390c565b60405180910390f35b61018b60048036038101906101869190613aea565b61087d565b005b610195610c03565b6040516101a29190613bf5565b60405180910390f35b6101c560048036038101906101c09190613c17565b610d55565b6040516101d29190613c6f565b60405180910390f35b6101f560048036038101906101f09190613c8a565b610dcc565b6040516102029190613c6f565b60405180910390f35b6102256004803603810190610220919061367f565b610e63565b6040516102329190613bf5565b60405180910390f35b6102556004803603810190610250919061367f565b610fb7565b6040516102629190613cca565b60405180910390f35b6102856004803603810190610280919061367f565b6111ec565b6040516102929190613bf5565b60405180910390f35b6102b560048036038101906102b09190613c17565b611343565b6040516102c29190613cec565b60405180910390f35b6102e560048036038101906102e09190613c17565b61138b565b005b61030160048036038101906102fc919061367f565b6114b3565b005b61031d6004803603810190610318919061367f565b61181a565b005b61033960048036038101906103349190613d33565b611d5f565b6040516103499493929190613d60565b60405180910390f35b61036c60048036038101906103679190613c17565b611e54565b005b61038860048036038101906103839190613dac565b611f7c565b005b6103a4600480360381019061039f919061367f565b61221b565b005b6103c060048036038101906103bb919061367f565b612762565b005b6103ca6129ae565b6040516103d79190613cca565b60405180910390f35b6103fa60048036038101906103f5919061367f565b612b1a565b005b610404612fc6565b6040516104119190613cec565b60405180910390f35b610434600480360381019061042f9190613c17565b612fea565b6040516104469695949392919061390c565b60405180910390f35b60608060606000806060866000600160008373ffffffffffffffffffffffffffffffffffffffff1673ffffffffffffffffffffffffffffffffffffffff16815260200190815260200160002060030154036104df576040517f08c379a00000000000000000000000000000000000000000000000000000000081526004016104d690613e9f565b60405180910390fd5b6000600160008a73ffffffffffffffffffffffffffffffffffffffff1673ffffffffffffffffffffffffffffffffffffffff16815260200190815260200160002090508060000181600101826002018360040160009054906101000a900473ffffffffffffffffffffffffffffffffffffffff1684600301548560050185805461056890613eee565b80601f016020809104026020016040519081016040528092919081815260200182805461059490613eee565b80156105e15780601f106105b6576101008083540402835291602001916105e1565b820191906000526020600020905b8154815290600101906020018083116105c457829003601f168201915b505050505095508480546105f490613eee565b80601f016020809104026020016040519081016040528092919081815260200182805461062090613eee565b801561066d5780601f106106425761010080835404028352916020019161066d565b820191906000526020600020905b81548152906001019060200180831161065057829003601f168201915b5050505050945083805461068090613eee565b80601f01602080910402602001604051908101604052809291908181526020018280546106ac90613eee565b80156106f95780601f106106ce576101008083540402835291602001916106f9565b820191906000526020600020905b8154815290600101906020018083116106dc57829003601f168201915b5050505050935080805480602002602001604051908101604052809291908181526020016000905b82821015610860578382906000526020600020906004020160405180608001604052908160008201805461075490613eee565b80601f016020809104026020016040519081016040528092919081815260200182805461078090613eee565b80156107cd5780601f106107a2576101008083540402835291602001916107cd565b820191906000526020600020905b8154815290600101906020018083116107b057829003601f168201915b505050505081526020016001820160009054906101000a900473ffffffffffffffffffffffffffffffffffffffff1673ffffffffffffffffffffffffffffffffffffffff1673ffffffffffffffffffffffffffffffffffffffff168152602001600282015481526020016003820160009054906101000a900460ff16151515158152505081526020019060010190610721565b505050509050975097509750975097509750505091939550919395565b336000600160008373ffffffffffffffffffffffffffffffffffffffff1673ffffffffffffffffffffffffffffffffffffffff1681526020019081526020016000206003015403610903576040517f08c379a00000000000000000000000000000000000000000000000000000000081526004016108fa90613e9f565b60405180910390fd5b6000600160003373ffffffffffffffffffffffffffffffffffffffff1673ffffffffffffffffffffffffffffffffffffffff1681526020019081526020016000206003015403610988576040517f08c379a000000000000000000000000000000000000000000000000000000000815260040161097f90613e9f565b60405180910390fd5b600060405180608001604052808581526020013373ffffffffffffffffffffffffffffffffffffffff1681526020014281526020018415158152509050600160003373ffffffffffffffffffffffffffffffffffffffff1673ffffffffffffffffffffffffffffffffffffffff1681526020019081526020016000206005018190806001815401808255809150506001900390600052602060002090600402016000909190919091506000820151816000019081610a4691906140cb565b5060208201518160010160006101000a81548173ffffffffffffffffffffffffffffffffffffffff021916908373ffffffffffffffffffffffffffffffffffffffff1602179055506040820151816002015560608201518160030160006101000a81548160ff02191690831515021790555050503373ffffffffffffffffffffffffffffffffffffffff167f264ef7c88299d51aa830b1899ba849e40fab5e415251f79c047b86b7b1c542d28585604051610b0292919061419d565b60405180910390a28215610bfd5760068190806001815401808255809150506001900390600052602060002090600402016000909190919091506000820151816000019081610b5191906140cb565b5060208201518160010160006101000a81548173ffffffffffffffffffffffffffffffffffffffff021916908373ffffffffffffffffffffffffffffffffffffffff1602179055506040820151816002015560608201518160030160006101000a81548160ff02191690831515021790555050507f54b05475d2da7cc5efb2aaef2203d1a4226aa08d7ecb76c2bb50b1501b0c19c184604051610bf491906141cd565b60405180910390a15b50505050565b6060336000600160008373ffffffffffffffffffffffffffffffffffffffff1673ffffffffffffffffffffffffffffffffffffffff1681526020019081526020016000206003015403610c8b576040517f08c379a0000000000000000000000000000000000000000000000000000000008152600401610c8290613e9f565b60405180910390fd5b600360003373ffffffffffffffffffffffffffffffffffffffff1673ffffffffffffffffffffffffffffffffffffffff168152602001908152602001600020805480602002602001604051908101604052809291908181526020018280548015610d4a57602002820191906000526020600020905b8160009054906101000a900473ffffffffffffffffffffffffffffffffffffffff1673ffffffffffffffffffffffffffffffffffffffff1681526020019060010190808311610d00575b505050505091505090565b60008073ffffffffffffffffffffffffffffffffffffffff16600283604051610d7e919061422b565b908152602001604051809103902060009054906101000a900473ffffffffffffffffffffffffffffffffffffffff1673ffffffffffffffffffffffffffffffffffffffff1614159050919050565b6000600160008473ffffffffffffffffffffffffffffffffffffffff1673ffffffffffffffffffffffffffffffffffffffff16815260200190815260200160002060060160008373ffffffffffffffffffffffffffffffffffffffff1673ffffffffffffffffffffffffffffffffffffffff16815260200190815260200160002060009054906101000a900460ff16905092915050565b6060816000600160008373ffffffffffffffffffffffffffffffffffffffff1673ffffffffffffffffffffffffffffffffffffffff1681526020019081526020016000206003015403610eeb576040517f08c379a0000000000000000000000000000000000000000000000000000000008152600401610ee290613e9f565b60405180910390fd5b600560008473ffffffffffffffffffffffffffffffffffffffff1673ffffffffffffffffffffffffffffffffffffffff168152602001908152602001600020805480602002602001604051908101604052809291908181526020018280548015610faa57602002820191906000526020600020905b8160009054906101000a900473ffffffffffffffffffffffffffffffffffffffff1673ffffffffffffffffffffffffffffffffffffffff1681526020019060010190808311610f60575b5050505050915050919050565b6060816000600160008373ffffffffffffffffffffffffffffffffffffffff1673ffffffffffffffffffffffffffffffffffffffff168152602001908152602001600020600301540361103f576040517f08c379a000000000000000000000000000000000000000000000000000000000815260040161103690613e9f565b60405180910390fd5b600160008473ffffffffffffffffffffffffffffffffffffffff1673ffffffffffffffffffffffffffffffffffffffff168152602001908152602001600020600501805480602002602001604051908101604052809291908181526020016000905b828210156111e057838290600052602060002090600402016040518060800160405290816000820180546110d490613eee565b80601f016020809104026020016040519081016040528092919081815260200182805461110090613eee565b801561114d5780601f106111225761010080835404028352916020019161114d565b820191906000526020600020905b81548152906001019060200180831161113057829003601f168201915b505050505081526020016001820160009054906101000a900473ffffffffffffffffffffffffffffffffffffffff1673ffffffffffffffffffffffffffffffffffffffff1673ffffffffffffffffffffffffffffffffffffffff168152602001600282015481526020016003820160009054906101000a900460ff161515151581525050815260200190600101906110a1565b50505050915050919050565b6060816000600160008373ffffffffffffffffffffffffffffffffffffffff1673ffffffffffffffffffffffffffffffffffffffff1681526020019081526020016000206003015403611274576040517f08c379a000000000000000000000000000000000000000000000000000000000815260040161126b90613e9f565b60405180910390fd5b600160008473ffffffffffffffffffffffffffffffffffffffff1673ffffffffffffffffffffffffffffffffffffffff16815260200190815260200160002060070180548060200260200160405190810160405280929190818152602001828054801561133657602002820191906000526020600020905b8160009054906101000a900473ffffffffffffffffffffffffffffffffffffffff1673ffffffffffffffffffffffffffffffffffffffff16815260200190600101908083116112ec575b5050505050915050919050565b6000600282604051611355919061422b565b908152602001604051809103902060009054906101000a900473ffffffffffffffffffffffffffffffffffffffff169050919050565b336000600160008373ffffffffffffffffffffffffffffffffffffffff1673ffffffffffffffffffffffffffffffffffffffff1681526020019081526020016000206003015403611411576040517f08c379a000000000000000000000000000000000000000000000000000000000815260040161140890613e9f565b60405180910390fd5b81600160003373ffffffffffffffffffffffffffffffffffffffff1673ffffffffffffffffffffffffffffffffffffffff168152602001908152602001600020600201908161146091906140cb565b503373ffffffffffffffffffffffffffffffffffffffff167f3f838a7d0889a59b2445af5389196b3948170278848eb90d8d256ab14aaf4cf0836040516114a791906141cd565b60405180910390a25050565b336000600160008373ffffffffffffffffffffffffffffffffffffffff1673ffffffffffffffffffffffffffffffffffffffff1681526020019081526020016000206003015403611539576040517f08c379a000000000000000000000000000000000000000000000000000000000815260040161153090613e9f565b60405180910390fd5b816000600160008373ffffffffffffffffffffffffffffffffffffffff1673ffffffffffffffffffffffffffffffffffffffff16815260200190815260200160002060030154036115bf576040517f08c379a00000000000000000000000000000000000000000000000000000000081526004016115b690613e9f565b60405180910390fd5b600160003373ffffffffffffffffffffffffffffffffffffffff1673ffffffffffffffffffffffffffffffffffffffff16815260200190815260200160002060060160008473ffffffffffffffffffffffffffffffffffffffff1673ffffffffffffffffffffffffffffffffffffffff16815260200190815260200160002060009054906101000a900460ff1661168b576040517f08c379a00000000000000000000000000000000000000000000000000000000081526004016116829061428e565b60405180910390fd5b6000600160003373ffffffffffffffffffffffffffffffffffffffff1673ffffffffffffffffffffffffffffffffffffffff16815260200190815260200160002060060160008573ffffffffffffffffffffffffffffffffffffffff1673ffffffffffffffffffffffffffffffffffffffff16815260200190815260200160002060006101000a81548160ff0219169083151502179055506000600160008573ffffffffffffffffffffffffffffffffffffffff1673ffffffffffffffffffffffffffffffffffffffff16815260200190815260200160002060060160003373ffffffffffffffffffffffffffffffffffffffff1673ffffffffffffffffffffffffffffffffffffffff16815260200190815260200160002060006101000a81548160ff0219169083151502179055508273ffffffffffffffffffffffffffffffffffffffff163373ffffffffffffffffffffffffffffffffffffffff167fa8e30f48064c886d284e961fb10cf21ed57c5f0b0b414f6bc390008552a15f9060405160405180910390a3505050565b336000600160008373ffffffffffffffffffffffffffffffffffffffff1673ffffffffffffffffffffffffffffffffffffffff16815260200190815260200160002060030154036118a0576040517f08c379a000000000000000000000000000000000000000000000000000000000815260040161189790613e9f565b60405180910390fd5b816000600160008373ffffffffffffffffffffffffffffffffffffffff1673ffffffffffffffffffffffffffffffffffffffff1681526020019081526020016000206003015403611926576040517f08c379a000000000000000000000000000000000000000000000000000000000815260040161191d90613e9f565b60405180910390fd5b8273ffffffffffffffffffffffffffffffffffffffff163373ffffffffffffffffffffffffffffffffffffffff1603611994576040517f08c379a000000000000000000000000000000000000000000000000000000000815260040161198b906142fa565b60405180910390fd5b600160003373ffffffffffffffffffffffffffffffffffffffff1673ffffffffffffffffffffffffffffffffffffffff16815260200190815260200160002060060160008473ffffffffffffffffffffffffffffffffffffffff1673ffffffffffffffffffffffffffffffffffffffff16815260200190815260200160002060009054906101000a900460ff1615611a61576040517f08c379a0000000000000000000000000000000000000000000000000000000008152600401611a5890614366565b60405180910390fd5b600460003373ffffffffffffffffffffffffffffffffffffffff1673ffffffffffffffffffffffffffffffffffffffff16815260200190815260200160002060008473ffffffffffffffffffffffffffffffffffffffff1673ffffffffffffffffffffffffffffffffffffffff16815260200190815260200160002060009054906101000a900460ff1615611b2b576040517f08c379a0000000000000000000000000000000000000000000000000000000008152600401611b22906143d2565b60405180910390fd5b600360008473ffffffffffffffffffffffffffffffffffffffff1673ffffffffffffffffffffffffffffffffffffffff168152602001908152602001600020339080600181540180825580915050600190039060005260206000200160009091909190916101000a81548173ffffffffffffffffffffffffffffffffffffffff021916908373ffffffffffffffffffffffffffffffffffffffff1602179055506001600460003373ffffffffffffffffffffffffffffffffffffffff1673ffffffffffffffffffffffffffffffffffffffff16815260200190815260200160002060008573ffffffffffffffffffffffffffffffffffffffff1673ffffffffffffffffffffffffffffffffffffffff16815260200190815260200160002060006101000a81548160ff021916908315150217905550600560003373ffffffffffffffffffffffffffffffffffffffff1673ffffffffffffffffffffffffffffffffffffffff168152602001908152602001600020839080600181540180825580915050600190039060005260206000200160009091909190916101000a81548173ffffffffffffffffffffffffffffffffffffffff021916908373ffffffffffffffffffffffffffffffffffffffff1602179055508273ffffffffffffffffffffffffffffffffffffffff163373ffffffffffffffffffffffffffffffffffffffff167f2b4b3b31b7040b3566331c8302dff4a575764757795335d5e9184fd4174c33b260405160405180910390a3505050565b60068181548110611d6f57600080fd5b9060005260206000209060040201600091509050806000018054611d9290613eee565b80601f0160208091040260200160405190810160405280929190818152602001828054611dbe90613eee565b8015611e0b5780601f10611de057610100808354040283529160200191611e0b565b820191906000526020600020905b815481529060010190602001808311611dee57829003601f168201915b5050505050908060010160009054906101000a900473ffffffffffffffffffffffffffffffffffffffff16908060020154908060030160009054906101000a900460ff16905084565b336000600160008373ffffffffffffffffffffffffffffffffffffffff1673ffffffffffffffffffffffffffffffffffffffff1681526020019081526020016000206003015403611eda576040517f08c379a0000000000000000000000000000000000000000000000000000000008152600401611ed190613e9f565b60405180910390fd5b81600160003373ffffffffffffffffffffffffffffffffffffffff1673ffffffffffffffffffffffffffffffffffffffff1681526020019081526020016000206000019081611f2991906140cb565b503373ffffffffffffffffffffffffffffffffffffffff167f74321da206c1b9fa34367f7ece59ca49371dcd13820b9a5c3767ae1ecceed51a83604051611f7091906141cd565b60405180910390a25050565b6000600160003373ffffffffffffffffffffffffffffffffffffffff1673ffffffffffffffffffffffffffffffffffffffff1681526020019081526020016000206003015414612001576040517f08c379a0000000000000000000000000000000000000000000000000000000008152600401611ff89061443e565b60405180910390fd5b82600160003373ffffffffffffffffffffffffffffffffffffffff1673ffffffffffffffffffffffffffffffffffffffff168152602001908152602001600020600001908161205091906140cb565b5081600160003373ffffffffffffffffffffffffffffffffffffffff1673ffffffffffffffffffffffffffffffffffffffff16815260200190815260200160002060010190816120a091906140cb565b5080600160003373ffffffffffffffffffffffffffffffffffffffff1673ffffffffffffffffffffffffffffffffffffffff16815260200190815260200160002060020190816120f091906140cb565b5033600160003373ffffffffffffffffffffffffffffffffffffffff1673ffffffffffffffffffffffffffffffffffffffff16815260200190815260200160002060040160006101000a81548173ffffffffffffffffffffffffffffffffffffffff021916908373ffffffffffffffffffffffffffffffffffffffff16021790555042600160003373ffffffffffffffffffffffffffffffffffffffff1673ffffffffffffffffffffffffffffffffffffffff16815260200190815260200160002060030181905550336002836040516121ca919061422b565b908152602001604051809103902060006101000a81548173ffffffffffffffffffffffffffffffffffffffff021916908373ffffffffffffffffffffffffffffffffffffffff160217905550505050565b336000600160008373ffffffffffffffffffffffffffffffffffffffff1673ffffffffffffffffffffffffffffffffffffffff16815260200190815260200160002060030154036122a1576040517f08c379a000000000000000000000000000000000000000000000000000000000815260040161229890613e9f565b60405180910390fd5b816000600160008373ffffffffffffffffffffffffffffffffffffffff1673ffffffffffffffffffffffffffffffffffffffff1681526020019081526020016000206003015403612327576040517f08c379a000000000000000000000000000000000000000000000000000000000815260040161231e90613e9f565b60405180910390fd5b600460008473ffffffffffffffffffffffffffffffffffffffff1673ffffffffffffffffffffffffffffffffffffffff16815260200190815260200160002060003373ffffffffffffffffffffffffffffffffffffffff1673ffffffffffffffffffffffffffffffffffffffff16815260200190815260200160002060009054906101000a900460ff166123f0576040517f08c379a00000000000000000000000000000000000000000000000000000000081526004016123e7906144aa565b60405180910390fd5b6123fa8333613444565b6000600460008573ffffffffffffffffffffffffffffffffffffffff1673ffffffffffffffffffffffffffffffffffffffff16815260200190815260200160002060003373ffffffffffffffffffffffffffffffffffffffff1673ffffffffffffffffffffffffffffffffffffffff16815260200190815260200160002060006101000a81548160ff02191690831515021790555060018060003373ffffffffffffffffffffffffffffffffffffffff1673ffffffffffffffffffffffffffffffffffffffff16815260200190815260200160002060060160008573ffffffffffffffffffffffffffffffffffffffff1673ffffffffffffffffffffffffffffffffffffffff16815260200190815260200160002060006101000a81548160ff021916908315150217905550600160003373ffffffffffffffffffffffffffffffffffffffff1673ffffffffffffffffffffffffffffffffffffffff168152602001908152602001600020600701839080600181540180825580915050600190039060005260206000200160009091909190916101000a81548173ffffffffffffffffffffffffffffffffffffffff021916908373ffffffffffffffffffffffffffffffffffffffff16021790555060018060008573ffffffffffffffffffffffffffffffffffffffff1673ffffffffffffffffffffffffffffffffffffffff16815260200190815260200160002060060160003373ffffffffffffffffffffffffffffffffffffffff1673ffffffffffffffffffffffffffffffffffffffff16815260200190815260200160002060006101000a81548160ff021916908315150217905550600160008473ffffffffffffffffffffffffffffffffffffffff1673ffffffffffffffffffffffffffffffffffffffff168152602001908152602001600020600701339080600181540180825580915050600190039060005260206000200160009091909190916101000a81548173ffffffffffffffffffffffffffffffffffffffff021916908373ffffffffffffffffffffffffffffffffffffffff1602179055503373ffffffffffffffffffffffffffffffffffffffff168373ffffffffffffffffffffffffffffffffffffffff167f4738efa342d2c6adcb0441cad1723818b7f5b5d6d846c0005945b21d6642e79d60405160405180910390a3505050565b336000600160008373ffffffffffffffffffffffffffffffffffffffff1673ffffffffffffffffffffffffffffffffffffffff16815260200190815260200160002060030154036127e8576040517f08c379a00000000000000000000000000000000000000000000000000000000081526004016127df90613e9f565b60405180910390fd5b600460008373ffffffffffffffffffffffffffffffffffffffff1673ffffffffffffffffffffffffffffffffffffffff16815260200190815260200160002060003373ffffffffffffffffffffffffffffffffffffffff1673ffffffffffffffffffffffffffffffffffffffff16815260200190815260200160002060009054906101000a900460ff166128b1576040517f08c379a00000000000000000000000000000000000000000000000000000000081526004016128a8906144aa565b60405180910390fd5b6128bb8233613444565b6000600460008473ffffffffffffffffffffffffffffffffffffffff1673ffffffffffffffffffffffffffffffffffffffff16815260200190815260200160002060003373ffffffffffffffffffffffffffffffffffffffff1673ffffffffffffffffffffffffffffffffffffffff16815260200190815260200160002060006101000a81548160ff0219169083151502179055503373ffffffffffffffffffffffffffffffffffffffff168273ffffffffffffffffffffffffffffffffffffffff167f450d1f7c66bdb3cc58af2fd886d956f9425da428307309a3472fe0c44a0fb18560405160405180910390a35050565b60606006805480602002602001604051908101604052809291908181526020016000905b82821015612b115783829060005260206000209060040201604051806080016040529081600082018054612a0590613eee565b80601f0160208091040260200160405190810160405280929190818152602001828054612a3190613eee565b8015612a7e5780601f10612a5357610100808354040283529160200191612a7e565b820191906000526020600020905b815481529060010190602001808311612a6157829003601f168201915b505050505081526020016001820160009054906101000a900473ffffffffffffffffffffffffffffffffffffffff1673ffffffffffffffffffffffffffffffffffffffff1673ffffffffffffffffffffffffffffffffffffffff168152602001600282015481526020016003820160009054906101000a900460ff161515151581525050815260200190600101906129d2565b50505050905090565b336000600160008373ffffffffffffffffffffffffffffffffffffffff1673ffffffffffffffffffffffffffffffffffffffff1681526020019081526020016000206003015403612ba0576040517f08c379a0000000000000000000000000000000000000000000000000000000008152600401612b9790613e9f565b60405180910390fd5b816000600160008373ffffffffffffffffffffffffffffffffffffffff1673ffffffffffffffffffffffffffffffffffffffff1681526020019081526020016000206003015403612c26576040517f08c379a0000000000000000000000000000000000000000000000000000000008152600401612c1d90613e9f565b60405180910390fd5b600160003373ffffffffffffffffffffffffffffffffffffffff1673ffffffffffffffffffffffffffffffffffffffff16815260200190815260200160002060060160008473ffffffffffffffffffffffffffffffffffffffff1673ffffffffffffffffffffffffffffffffffffffff16815260200190815260200160002060009054906101000a900460ff1615612cf3576040517f08c379a0000000000000000000000000000000000000000000000000000000008152600401612cea90614366565b60405180910390fd5b60018060003373ffffffffffffffffffffffffffffffffffffffff1673ffffffffffffffffffffffffffffffffffffffff16815260200190815260200160002060060160008573ffffffffffffffffffffffffffffffffffffffff1673ffffffffffffffffffffffffffffffffffffffff16815260200190815260200160002060006101000a81548160ff021916908315150217905550600160003373ffffffffffffffffffffffffffffffffffffffff1673ffffffffffffffffffffffffffffffffffffffff168152602001908152602001600020600701839080600181540180825580915050600190039060005260206000200160009091909190916101000a81548173ffffffffffffffffffffffffffffffffffffffff021916908373ffffffffffffffffffffffffffffffffffffffff16021790555060018060008573ffffffffffffffffffffffffffffffffffffffff1673ffffffffffffffffffffffffffffffffffffffff16815260200190815260200160002060060160003373ffffffffffffffffffffffffffffffffffffffff1673ffffffffffffffffffffffffffffffffffffffff16815260200190815260200160002060006101000a81548160ff021916908315150217905550600160008473ffffffffffffffffffffffffffffffffffffffff1673ffffffffffffffffffffffffffffffffffffffff168152602001908152602001600020600701339080600181540180825580915050600190039060005260206000200160009091909190916101000a81548173ffffffffffffffffffffffffffffffffffffffff021916908373ffffffffffffffffffffffffffffffffffffffff1602179055508273ffffffffffffffffffffffffffffffffffffffff163373ffffffffffffffffffffffffffffffffffffffff167f6cbc8134e69f02f9dbaa28d8f3d760a490876f55060afa4d6882a86c2590cc7b60405160405180910390a3505050565b60008054906101000a900473ffffffffffffffffffffffffffffffffffffffff1681565b606080606060008060606000600288604051613006919061422b565b908152602001604051809103902060009054906101000a900473ffffffffffffffffffffffffffffffffffffffff169050600073ffffffffffffffffffffffffffffffffffffffff168173ffffffffffffffffffffffffffffffffffffffff16036130a6576040517f08c379a000000000000000000000000000000000000000000000000000000000815260040161309d90614516565b60405180910390fd5b6000600160008373ffffffffffffffffffffffffffffffffffffffff1673ffffffffffffffffffffffffffffffffffffffff16815260200190815260200160002090508060000181600101826002018360040160009054906101000a900473ffffffffffffffffffffffffffffffffffffffff1684600301548560050185805461312f90613eee565b80601f016020809104026020016040519081016040528092919081815260200182805461315b90613eee565b80156131a85780601f1061317d576101008083540402835291602001916131a8565b820191906000526020600020905b81548152906001019060200180831161318b57829003601f168201915b505050505095508480546131bb90613eee565b80601f01602080910402602001604051908101604052809291908181526020018280546131e790613eee565b80156132345780601f1061320957610100808354040283529160200191613234565b820191906000526020600020905b81548152906001019060200180831161321757829003601f168201915b5050505050945083805461324790613eee565b80601f016020809104026020016040519081016040528092919081815260200182805461327390613eee565b80156132c05780601f10613295576101008083540402835291602001916132c0565b820191906000526020600020905b8154815290600101906020018083116132a357829003601f168201915b5050505050935080805480602002602001604051908101604052809291908181526020016000905b82821015613427578382906000526020600020906004020160405180608001604052908160008201805461331b90613eee565b80601f016020809104026020016040519081016040528092919081815260200182805461334790613eee565b80156133945780601f1061336957610100808354040283529160200191613394565b820191906000526020600020905b81548152906001019060200180831161337757829003601f168201915b505050505081526020016001820160009054906101000a900473ffffffffffffffffffffffffffffffffffffffff1673ffffffffffffffffffffffffffffffffffffffff1673ffffffffffffffffffffffffffffffffffffffff168152602001600282015481526020016003820160009054906101000a900460ff161515151581525050815260200190600101906132e8565b505050509050975097509750975097509750505091939550919395565b6000600360008373ffffffffffffffffffffffffffffffffffffffff1673ffffffffffffffffffffffffffffffffffffffff168152602001908152602001600020905060005b8180549050811015613607578373ffffffffffffffffffffffffffffffffffffffff168282815481106134c0576134bf614536565b5b9060005260206000200160009054906101000a900473ffffffffffffffffffffffffffffffffffffffff1673ffffffffffffffffffffffffffffffffffffffff16036135fa5781600183805490506135189190614594565b8154811061352957613528614536565b5b9060005260206000200160009054906101000a900473ffffffffffffffffffffffffffffffffffffffff1682828154811061356757613566614536565b5b9060005260206000200160006101000a81548173ffffffffffffffffffffffffffffffffffffffff021916908373ffffffffffffffffffffffffffffffffffffffff160217905550818054806135c0576135bf6145c8565b5b6001900381819060005260206000200160006101000a81549073ffffffffffffffffffffffffffffffffffffffff02191690559055613607565b808060010191505061348a565b50505050565b6000604051905090565b600080fd5b600080fd5b600073ffffffffffffffffffffffffffffffffffffffff82169050919050565b600061364c82613621565b9050919050565b61365c81613641565b811461366757600080fd5b50565b60008135905061367981613653565b92915050565b60006020828403121561369557613694613617565b5b60006136a38482850161366a565b91505092915050565b600081519050919050565b600082825260208201905092915050565b60005b838110156136e65780820151818401526020810190506136cb565b60008484015250505050565b6000601f19601f8301169050919050565b600061370e826136ac565b61371881856136b7565b93506137288185602086016136c8565b613731816136f2565b840191505092915050565b61374581613641565b82525050565b6000819050919050565b61375e8161374b565b82525050565b600081519050919050565b600082825260208201905092915050565b6000819050602082019050919050565b600082825260208201905092915050565b60006137ac826136ac565b6137b68185613790565b93506137c68185602086016136c8565b6137cf816136f2565b840191505092915050565b6137e381613641565b82525050565b6137f28161374b565b82525050565b60008115159050919050565b61380d816137f8565b82525050565b6000608083016000830151848203600086015261383082826137a1565b915050602083015161384560208601826137da565b50604083015161385860408601826137e9565b50606083015161386b6060860182613804565b508091505092915050565b60006138828383613813565b905092915050565b6000602082019050919050565b60006138a282613764565b6138ac818561376f565b9350836020820285016138be85613780565b8060005b858110156138fa57848403895281516138db8582613876565b94506138e68361388a565b925060208a019950506001810190506138c2565b50829750879550505050505092915050565b600060c08201905081810360008301526139268189613703565b9050818103602083015261393a8188613703565b9050818103604083015261394e8187613703565b905061395d606083018661373c565b61396a6080830185613755565b81810360a083015261397c8184613897565b9050979650505050505050565b600080fd5b600080fd5b7f4e487b7100000000000000000000000000000000000000000000000000000000600052604160045260246000fd5b6139cb826136f2565b810181811067ffffffffffffffff821117156139ea576139e9613993565b5b80604052505050565b60006139fd61360d565b9050613a0982826139c2565b919050565b600067ffffffffffffffff821115613a2957613a28613993565b5b613a32826136f2565b9050602081019050919050565b82818337600083830152505050565b6000613a61613a5c84613a0e565b6139f3565b905082815260208101848484011115613a7d57613a7c61398e565b5b613a88848285613a3f565b509392505050565b600082601f830112613aa557613aa4613989565b5b8135613ab5848260208601613a4e565b91505092915050565b613ac7816137f8565b8114613ad257600080fd5b50565b600081359050613ae481613abe565b92915050565b60008060408385031215613b0157613b00613617565b5b600083013567ffffffffffffffff811115613b1f57613b1e61361c565b5b613b2b85828601613a90565b9250506020613b3c85828601613ad5565b9150509250929050565b600081519050919050565b600082825260208201905092915050565b6000819050602082019050919050565b6000613b7e83836137da565b60208301905092915050565b6000602082019050919050565b6000613ba282613b46565b613bac8185613b51565b9350613bb783613b62565b8060005b83811015613be8578151613bcf8882613b72565b9750613bda83613b8a565b925050600181019050613bbb565b5085935050505092915050565b60006020820190508181036000830152613c0f8184613b97565b905092915050565b600060208284031215613c2d57613c2c613617565b5b600082013567ffffffffffffffff811115613c4b57613c4a61361c565b5b613c5784828501613a90565b91505092915050565b613c69816137f8565b82525050565b6000602082019050613c846000830184613c60565b92915050565b60008060408385031215613ca157613ca0613617565b5b6000613caf8582860161366a565b9250506020613cc08582860161366a565b9150509250929050565b60006020820190508181036000830152613ce48184613897565b905092915050565b6000602082019050613d01600083018461373c565b92915050565b613d108161374b565b8114613d1b57600080fd5b50565b600081359050613d2d81613d07565b92915050565b600060208284031215613d4957613d48613617565b5b6000613d5784828501613d1e565b91505092915050565b60006080820190508181036000830152613d7a8187613703565b9050613d89602083018661373c565b613d966040830185613755565b613da36060830184613c60565b95945050505050565b600080600060608486031215613dc557613dc4613617565b5b600084013567ffffffffffffffff811115613de357613de261361c565b5b613def86828701613a90565b935050602084013567ffffffffffffffff811115613e1057613e0f61361c565b5b613e1c86828701613a90565b925050604084013567ffffffffffffffff811115613e3d57613e3c61361c565b5b613e4986828701613a90565b9150509250925092565b7f50726f66696c6520646f65736e27742065786973740000000000000000000000600082015250565b6000613e896015836136b7565b9150613e9482613e53565b602082019050919050565b60006020820190508181036000830152613eb881613e7c565b9050919050565b7f4e487b7100000000000000000000000000000000000000000000000000000000600052602260045260246000fd5b60006002820490506001821680613f0657607f821691505b602082108103613f1957613f18613ebf565b5b50919050565b60008190508160005260206000209050919050565b60006020601f8301049050919050565b600082821b905092915050565b600060088302613f817fffffffffffffffffffffffffffffffffffffffffffffffffffffffffffffffff82613f44565b613f8b8683613f44565b95508019841693508086168417925050509392505050565b6000819050919050565b6000613fc8613fc3613fbe8461374b565b613fa3565b61374b565b9050919050565b6000819050919050565b613fe283613fad565b613ff6613fee82613fcf565b848454613f51565b825550505050565b600090565b61400b613ffe565b614016818484613fd9565b505050565b5b8181101561403a5761402f600082614003565b60018101905061401c565b5050565b601f82111561407f5761405081613f1f565b61405984613f34565b81016020851015614068578190505b61407c61407485613f34565b83018261401b565b50505b505050565b600082821c905092915050565b60006140a260001984600802614084565b1980831691505092915050565b60006140bb8383614091565b9150826002028217905092915050565b6140d4826136ac565b67ffffffffffffffff8111156140ed576140ec613993565b5b6140f78254613eee565b61410282828561403e565b600060209050601f8311600181146141355760008415614123578287015190505b61412d85826140af565b865550614195565b601f19841661414386613f1f565b60005b8281101561416b57848901518255600182019150602085019450602081019050614146565b868310156141885784890151614184601f891682614091565b8355505b6001600288020188555050505b505050505050565b600060408201905081810360008301526141b78185613703565b90506141c66020830184613c60565b9392505050565b600060208201905081810360008301526141e78184613703565b905092915050565b600081905092915050565b6000614205826136ac565b61420f81856141ef565b935061421f8185602086016136c8565b80840191505092915050565b600061423782846141fa565b915081905092915050565b7f4e6f7420667269656e6473000000000000000000000000000000000000000000600082015250565b6000614278600b836136b7565b915061428382614242565b602082019050919050565b600060208201905081810360008301526142a78161426b565b9050919050565b7f43616e6e6f7420667269656e6420796f757273656c6600000000000000000000600082015250565b60006142e46016836136b7565b91506142ef826142ae565b602082019050919050565b60006020820190508181036000830152614313816142d7565b9050919050565b7f416c726561647920667269656e64730000000000000000000000000000000000600082015250565b6000614350600f836136b7565b915061435b8261431a565b602082019050919050565b6000602082019050818103600083015261437f81614343565b9050919050565b7f5265717565737420616c72656164792073656e74000000000000000000000000600082015250565b60006143bc6014836136b7565b91506143c782614386565b602082019050919050565b600060208201905081810360008301526143eb816143af565b9050919050565b7f50726f66696c6520616c72656164792065786973747300000000000000000000600082015250565b60006144286016836136b7565b9150614433826143f2565b602082019050919050565b600060208201905081810360008301526144578161441b565b9050919050565b7f4e6f20726571756573742066726f6d2074686973207573657200000000000000600082015250565b60006144946019836136b7565b915061449f8261445e565b602082019050919050565b600060208201905081810360008301526144c381614487565b9050919050565b7f456d61696c206e6f742072656769737465726564000000000000000000000000600082015250565b60006145006014836136b7565b915061450b826144ca565b602082019050919050565b6000602082019050818103600083015261452f816144f3565b9050919050565b7f4e487b7100000000000000000000000000000000000000000000000000000000600052603260045260246000fd5b7f4e487b7100000000000000000000000000000000000000000000000000000000600052601160045260246000fd5b600061459f8261374b565b91506145aa8361374b565b92508282039050818111156145c2576145c1614565565b5b92915050565b7f4e487b7100000000000000000000000000000000000000000000000000000000600052603160045260246000fdfea26469706673582212205118af01c8d5b09836514703a0f9419cb320e06b552ef0fcd5066221bf5fce4364736f6c634300081c0033",
  "linkReferences": {},
  "deployedLinkReferences": {}
}