{
  "_format": "hh-sol-artifact-1",
  "contractName": "BlipPosts",
  "sourceName": "contracts/BlipPosts.sol",
  "abi": [
    {
      "anonymous": false,
      "inputs": [
        {
          "indexed": true,
          "internalType": "uint256",
          "name": "postId",
          "type": "uint256"
        },
        {
          "indexed": true,
          "internalType": "address",
          "name": "user",
          "type": "address"
        },
        {
          "indexed": false,
          "internalType": "string",
          "name": "comment",
          "type": "string"
        }
      ],
      "name": "CommentAdded",
      "type": "event"
    },
    {
      "anonymous": false,
      "inputs": [
        {
          "indexed": true,
          "internalType": "uint256",
          "name": "postId",
          "type": "uint256"
        },
        {
          "indexed": true,
          "internalType": "address",
          "name": "owner",
          "type": "address"
        },
        {
          "indexed": false,
          "internalType": "string",
          "name": "text",
          "type": "string"
        },
        {
          "indexed": false,
          "internalType": "bool",
          "name": "isPublic",
          "type": "bool"
        }
      ],
      "name": "PostCreated",
      "type": "event"
    },
    {
      "anonymous": false,
      "inputs": [
        {
          "indexed": true,
          "internalType": "uint256",
          "name": "postId",
          "type": "uint256"
        },
        {
          "indexed": true,
          "internalType": "address",
          "name": "user",
          "type": "address"
        }
      ],
      "name": "PostLiked",
      "type": "event"
    },
    {
      "anonymous": false,
      "inputs": [
        {
          "indexed": true,
          "internalType": "uint256",
          "name": "postId",
          "type": "uint256"
        },
        {
          "indexed": true,
          "internalType": "address",
          "name": "user",
          "type": "address"
        }
      ],
      "name": "PostShared",
      "type": "event"
    },
    {
      "inputs": [
        {
          "internalType": "uint256",
          "name": "postId",
          "type": "uint256"
        },
        {
          "internalType": "string",
          "name": "comment",
          "type": "string"
        }
      ],
      "name": "commentOnPost",
      "outputs": [],
      "stateMutability": "nonpayable",
      "type": "function"
    },
    {
      "inputs": [
        {
          "internalType": "string",
          "name": "text",
          "type": "string"
        },
        {
          "internalType": "bool",
          "name": "isPublic",
          "type": "bool"
        }
      ],
      "name": "createPost",
      "outputs": [],
      "stateMutability": "nonpayable",
      "type": "function"
    },
    {
      "inputs": [
        {
          "internalType": "uint256",
          "name": "postId",
          "type": "uint256"
        }
      ],
      "name": "getComments",
      "outputs": [
        {
          "components": [
            {
              "internalType": "address",
              "name": "commenter",
              "type": "address"
            },
            {
              "internalType": "string",
              "name": "text",
              "type": "string"
            },
            {
              "internalType": "uint256",
              "name": "timestamp",
              "type": "uint256"
            }
          ],
          "internalType": "struct BlipPosts.Comment[]",
          "name": "",
          "type": "tuple[]"
        }
      ],
      "stateMutability": "view",
      "type": "function"
    },
    {
      "inputs": [
        {
          "internalType": "uint256",
          "name": "postId",
          "type": "uint256"
        }
      ],
      "name": "getLikes",
      "outputs": [
        {
          "internalType": "address[]",
          "name": "",
          "type": "address[]"
        }
      ],
      "stateMutability": "view",
      "type": "function"
    },
    {
      "inputs": [
        {
          "internalType": "address",
          "name": "user",
          "type": "address"
        }
      ],
      "name": "getUserPosts",
      "outputs": [
        {
          "internalType": "uint256[]",
          "name": "",
          "type": "uint256[]"
        }
      ],
      "stateMutability": "view",
      "type": "function"
    },
    {
      "inputs": [
        {
          "internalType": "uint256",
          "name": "postId",
          "type": "uint256"
        }
      ],
      "name": "likePost",
      "outputs": [],
      "stateMutability": "nonpayable",
      "type": "function"
    },
    {
      "inputs": [
        {
          "internalType": "uint256",
          "name": "",
          "type": "uint256"
        },
        {
          "internalType": "uint256",
          "name": "",
          "type": "uint256"
        }
      ],
      "name": "postComments",
      "outputs": [
        {
          "internalType": "address",
          "name": "commenter",
          "type": "address"
        },
        {
          "internalType": "string",
          "name": "text",
          "type": "string"
        },
        {
          "internalType": "uint256",
          "name": "timestamp",
          "type": "uint256"
        }
      ],
      "stateMutability": "view",
      "type": "function"
    },
    {
      "inputs": [
        {
          "internalType": "uint256",
          "name": "",
          "type": "uint256"
        },
        {
          "internalType": "uint256",
          "name": "",
          "type": "uint256"
        }
      ],
      "name": "postLikes",
      "outputs": [
        {
          "internalType": "address",
          "name": "",
          "type": "address"
        }
      ],
      "stateMutability": "view",
      "type": "function"
    },
    {
      "inputs": [
        {
          "internalType": "uint256",
          "name": "",
          "type": "uint256"
        }
      ],
      "name": "posts",
      "outputs": [
        {
          "internalType": "uint256",
          "name": "id",
          "type": "uint256"
        },
        {
          "internalType": "address",
          "name": "owner",
          "type": "address"
        },
        {
          "internalType": "string",
          "name": "text",
          "type": "string"
        },
        {
          "internalType": "bool",
          "name": "isPublic",
          "type": "bool"
        },
        {
          "internalType": "uint256",
          "name": "timestamp",
          "type": "uint256"
        },
        {
          "internalType": "uint256",
          "name": "likeCount",
          "type": "uint256"
        },
        {
          "internalType": "uint256",
          "name": "shareCount",
          "type": "uint256"
        }
      ],
      "stateMutability": "view",
      "type": "function"
    },
    {
      "inputs": [
        {
          "internalType": "uint256",
          "name": "postId",
          "type": "uint256"
        }
      ],
      "name": "sharePost",
      "outputs": [],
      "stateMutability": "nonpayable",
      "type": "function"
    },
    {
      "inputs": [
        {
          "internalType": "address",
          "name": "",
          "type": "address"
        },
        {
          "internalType": "uint256",
          "name": "",
          "type": "uint256"
        }
      ],
      "name": "userPosts",
      "outputs": [
        {
          "internalType": "uint256",
          "name": "",
          "type": "uint256"
        }
      ],
      "stateMutability": "view",
      "type": "function"
    }
  ],
  "bytecode": "0x6080604052348015600f57600080fd5b50611d1a8061001f6000396000f3fe608060405234801561001057600080fd5b50600436106100a95760003560e01c8063725009d311610071578063725009d3146101925780638064d149146101ae5780639a2194a9146101de5780639ef9fa3a1461020e578063a209081e1461022a578063f5d763201461025a576100a9565b80630b1e7f83146100ae5780630f449d80146100e457806323edf697146101145780635193c94c146101445780636473215414610176575b600080fd5b6100c860048036038101906100c39190610f1c565b610276565b6040516100db9796959493929190611044565b60405180910390f35b6100fe60048036038101906100f991906110ba565b61036d565b60405161010b91906110fa565b60405180910390f35b61012e60048036038101906101299190610f1c565b6103bb565b60405161013b919061128f565b60405180910390f35b61015e600480360381019061015991906110ba565b610573565b60405161016d939291906112b1565b60405180910390f35b610190600480360381019061018b9190611424565b610662565b005b6101ac60048036038101906101a79190610f1c565b610823565b005b6101c860048036038101906101c391906114ac565b610a2c565b6040516101d591906114ec565b60405180910390f35b6101f860048036038101906101f39190611507565b610a5d565b60405161020591906115e3565b60405180910390f35b61022860048036038101906102239190611631565b610af4565b005b610244600480360381019061023f9190610f1c565b610d16565b604051610251919061173c565b60405180910390f35b610274600480360381019061026f9190610f1c565b610e0b565b005b60016020528060005260406000206000915090508060000154908060010160009054906101000a900473ffffffffffffffffffffffffffffffffffffffff16908060020180546102c59061178d565b80601f01602080910402602001604051908101604052809291908181526020018280546102f19061178d565b801561033e5780601f106103135761010080835404028352916020019161033e565b820191906000526020600020905b81548152906001019060200180831161032157829003601f168201915b5050505050908060030160009054906101000a900460ff16908060040154908060050154908060060154905087565b6003602052816000526040600020818154811061038957600080fd5b906000526020600020016000915091509054906101000a900473ffffffffffffffffffffffffffffffffffffffff1681565b606081600081101580156103d157506000548111155b610410576040517f08c379a00000000000000000000000000000000000000000000000000000000081526004016104079061180a565b60405180910390fd5b60046000848152602001908152602001600020805480602002602001604051908101604052809291908181526020016000905b8282101561056757838290600052602060002090600302016040518060600160405290816000820160009054906101000a900473ffffffffffffffffffffffffffffffffffffffff1673ffffffffffffffffffffffffffffffffffffffff1673ffffffffffffffffffffffffffffffffffffffff1681526020016001820180546104cc9061178d565b80601f01602080910402602001604051908101604052809291908181526020018280546104f89061178d565b80156105455780601f1061051a57610100808354040283529160200191610545565b820191906000526020600020905b81548152906001019060200180831161052857829003601f168201915b5050505050815260200160028201548152505081526020019060010190610443565b50505050915050919050565b6004602052816000526040600020818154811061058f57600080fd5b9060005260206000209060030201600091509150508060000160009054906101000a900473ffffffffffffffffffffffffffffffffffffffff16908060010180546105d99061178d565b80601f01602080910402602001604051908101604052809291908181526020018280546106059061178d565b80156106525780601f1061062757610100808354040283529160200191610652565b820191906000526020600020905b81548152906001019060200180831161063557829003601f168201915b5050505050908060020154905083565b816000811015801561067657506000548111155b6106b5576040517f08c379a00000000000000000000000000000000000000000000000000000000081526004016106ac9061180a565b60405180910390fd5b60008251116106f9576040517f08c379a00000000000000000000000000000000000000000000000000000000081526004016106f090611876565b60405180910390fd5b6004600084815260200190815260200160002060405180606001604052803373ffffffffffffffffffffffffffffffffffffffff16815260200184815260200142815250908060018154018082558091505060019003906000526020600020906003020160009091909190915060008201518160000160006101000a81548173ffffffffffffffffffffffffffffffffffffffff021916908373ffffffffffffffffffffffffffffffffffffffff16021790555060208201518160010190816107c29190611a42565b506040820151816002015550503373ffffffffffffffffffffffffffffffffffffffff16837fcc2d7dd2085ae6644799a42c0174adf9afc10a43f26db5eac3ddd1f96d1d64be846040516108169190611b14565b60405180910390a3505050565b806000811015801561083757506000548111155b610876576040517f08c379a000000000000000000000000000000000000000000000000000000000815260040161086d9061180a565b60405180910390fd5b600060036000848152602001908152602001600020905060005b8180549050811015610954573373ffffffffffffffffffffffffffffffffffffffff168282815481106108c6576108c5611b36565b5b9060005260206000200160009054906101000a900473ffffffffffffffffffffffffffffffffffffffff1673ffffffffffffffffffffffffffffffffffffffff1603610947576040517f08c379a000000000000000000000000000000000000000000000000000000000815260040161093e90611bb1565b60405180910390fd5b8080600101915050610890565b5080339080600181540180825580915050600190039060005260206000200160009091909190916101000a81548173ffffffffffffffffffffffffffffffffffffffff021916908373ffffffffffffffffffffffffffffffffffffffff1602179055506001600084815260200190815260200160002060050160008154809291906109de90611c00565b91905055503373ffffffffffffffffffffffffffffffffffffffff16837fcf765d6f163c9b0d832e2a94f4c8e9bffd32a2c3ca5fdbb8cc67b5fe1441f41360405160405180910390a3505050565b60026020528160005260406000208181548110610a4857600080fd5b90600052602060002001600091509150505481565b6060600260008373ffffffffffffffffffffffffffffffffffffffff1673ffffffffffffffffffffffffffffffffffffffff168152602001908152602001600020805480602002602001604051908101604052809291908181526020018280548015610ae857602002820191906000526020600020905b815481526020019060010190808311610ad4575b50505050509050919050565b6000825111610b38576040517f08c379a0000000000000000000000000000000000000000000000000000000008152600401610b2f90611c94565b60405180910390fd5b6000806000815480929190610b4c90611c00565b9190505590506040518060e001604052808281526020013373ffffffffffffffffffffffffffffffffffffffff1681526020018481526020018315158152602001428152602001600081526020016000815250600160008381526020019081526020016000206000820151816000015560208201518160010160006101000a81548173ffffffffffffffffffffffffffffffffffffffff021916908373ffffffffffffffffffffffffffffffffffffffff1602179055506040820151816002019081610c189190611a42565b5060608201518160030160006101000a81548160ff0219169083151502179055506080820151816004015560a0820151816005015560c08201518160060155905050600260003373ffffffffffffffffffffffffffffffffffffffff1673ffffffffffffffffffffffffffffffffffffffff1681526020019081526020016000208190806001815401808255809150506001900390600052602060002001600090919091909150553373ffffffffffffffffffffffffffffffffffffffff16817fd29c05ce35227cd87e52d185ea77a88bf947eb152c22f5206a691fa5c64299d08585604051610d09929190611cb4565b60405180910390a3505050565b60608160008110158015610d2c57506000548111155b610d6b576040517f08c379a0000000000000000000000000000000000000000000000000000000008152600401610d629061180a565b60405180910390fd5b60036000848152602001908152602001600020805480602002602001604051908101604052809291908181526020018280548015610dfe57602002820191906000526020600020905b8160009054906101000a900473ffffffffffffffffffffffffffffffffffffffff1673ffffffffffffffffffffffffffffffffffffffff1681526020019060010190808311610db4575b5050505050915050919050565b8060008110158015610e1f57506000548111155b610e5e576040517f08c379a0000000000000000000000000000000000000000000000000000000008152600401610e559061180a565b60405180910390fd5b600160008381526020019081526020016000206006016000815480929190610e8590611c00565b91905055503373ffffffffffffffffffffffffffffffffffffffff16827f9ad6b9c25fe64910aa38489f778ed1d1334a3f784d3aeedc050948b26115f86960405160405180910390a35050565b6000604051905090565b600080fd5b600080fd5b6000819050919050565b610ef981610ee6565b8114610f0457600080fd5b50565b600081359050610f1681610ef0565b92915050565b600060208284031215610f3257610f31610edc565b5b6000610f4084828501610f07565b91505092915050565b610f5281610ee6565b82525050565b600073ffffffffffffffffffffffffffffffffffffffff82169050919050565b6000610f8382610f58565b9050919050565b610f9381610f78565b82525050565b600081519050919050565b600082825260208201905092915050565b60005b83811015610fd3578082015181840152602081019050610fb8565b60008484015250505050565b6000601f19601f8301169050919050565b6000610ffb82610f99565b6110058185610fa4565b9350611015818560208601610fb5565b61101e81610fdf565b840191505092915050565b60008115159050919050565b61103e81611029565b82525050565b600060e082019050611059600083018a610f49565b6110666020830189610f8a565b81810360408301526110788188610ff0565b90506110876060830187611035565b6110946080830186610f49565b6110a160a0830185610f49565b6110ae60c0830184610f49565b98975050505050505050565b600080604083850312156110d1576110d0610edc565b5b60006110df85828601610f07565b92505060206110f085828601610f07565b9150509250929050565b600060208201905061110f6000830184610f8a565b92915050565b600081519050919050565b600082825260208201905092915050565b6000819050602082019050919050565b61114a81610f78565b82525050565b600082825260208201905092915050565b600061116c82610f99565b6111768185611150565b9350611186818560208601610fb5565b61118f81610fdf565b840191505092915050565b6111a381610ee6565b82525050565b60006060830160008301516111c16000860182611141565b50602083015184820360208601526111d98282611161565b91505060408301516111ee604086018261119a565b508091505092915050565b600061120583836111a9565b905092915050565b6000602082019050919050565b600061122582611115565b61122f8185611120565b93508360208202850161124185611131565b8060005b8581101561127d578484038952815161125e85826111f9565b94506112698361120d565b925060208a01995050600181019050611245565b50829750879550505050505092915050565b600060208201905081810360008301526112a9818461121a565b905092915050565b60006060820190506112c66000830186610f8a565b81810360208301526112d88185610ff0565b90506112e76040830184610f49565b949350505050565b600080fd5b600080fd5b7f4e487b7100000000000000000000000000000000000000000000000000000000600052604160045260246000fd5b61133182610fdf565b810181811067ffffffffffffffff821117156113505761134f6112f9565b5b80604052505050565b6000611363610ed2565b905061136f8282611328565b919050565b600067ffffffffffffffff82111561138f5761138e6112f9565b5b61139882610fdf565b9050602081019050919050565b82818337600083830152505050565b60006113c76113c284611374565b611359565b9050828152602081018484840111156113e3576113e26112f4565b5b6113ee8482856113a5565b509392505050565b600082601f83011261140b5761140a6112ef565b5b813561141b8482602086016113b4565b91505092915050565b6000806040838503121561143b5761143a610edc565b5b600061144985828601610f07565b925050602083013567ffffffffffffffff81111561146a57611469610ee1565b5b611476858286016113f6565b9150509250929050565b61148981610f78565b811461149457600080fd5b50565b6000813590506114a681611480565b92915050565b600080604083850312156114c3576114c2610edc565b5b60006114d185828601611497565b92505060206114e285828601610f07565b9150509250929050565b60006020820190506115016000830184610f49565b92915050565b60006020828403121561151d5761151c610edc565b5b600061152b84828501611497565b91505092915050565b600081519050919050565b600082825260208201905092915050565b6000819050602082019050919050565b600061156c838361119a565b60208301905092915050565b6000602082019050919050565b600061159082611534565b61159a818561153f565b93506115a583611550565b8060005b838110156115d65781516115bd8882611560565b97506115c883611578565b9250506001810190506115a9565b5085935050505092915050565b600060208201905081810360008301526115fd8184611585565b905092915050565b61160e81611029565b811461161957600080fd5b50565b60008135905061162b81611605565b92915050565b6000806040838503121561164857611647610edc565b5b600083013567ffffffffffffffff81111561166657611665610ee1565b5b611672858286016113f6565b92505060206116838582860161161c565b9150509250929050565b600081519050919050565b600082825260208201905092915050565b6000819050602082019050919050565b60006116c58383611141565b60208301905092915050565b6000602082019050919050565b60006116e98261168d565b6116f38185611698565b93506116fe836116a9565b8060005b8381101561172f57815161171688826116b9565b9750611721836116d1565b925050600181019050611702565b5085935050505092915050565b6000602082019050818103600083015261175681846116de565b905092915050565b7f4e487b7100000000000000000000000000000000000000000000000000000000600052602260045260246000fd5b600060028204905060018216806117a557607f821691505b6020821081036117b8576117b761175e565b5b50919050565b7f496e76616c696420706f73742049440000000000000000000000000000000000600082015250565b60006117f4600f83610fa4565b91506117ff826117be565b602082019050919050565b60006020820190508181036000830152611823816117e7565b9050919050565b7f436f6d6d656e7420726571756972656400000000000000000000000000000000600082015250565b6000611860601083610fa4565b915061186b8261182a565b602082019050919050565b6000602082019050818103600083015261188f81611853565b9050919050565b60008190508160005260206000209050919050565b60006020601f8301049050919050565b600082821b905092915050565b6000600883026118f87fffffffffffffffffffffffffffffffffffffffffffffffffffffffffffffffff826118bb565b61190286836118bb565b95508019841693508086168417925050509392505050565b6000819050919050565b600061193f61193a61193584610ee6565b61191a565b610ee6565b9050919050565b6000819050919050565b61195983611924565b61196d61196582611946565b8484546118c8565b825550505050565b600090565b611982611975565b61198d818484611950565b505050565b5b818110156119b1576119a660008261197a565b600181019050611993565b5050565b601f8211156119f6576119c781611896565b6119d0846118ab565b810160208510156119df578190505b6119f36119eb856118ab565b830182611992565b50505b505050565b600082821c905092915050565b6000611a19600019846008026119fb565b1980831691505092915050565b6000611a328383611a08565b9150826002028217905092915050565b611a4b82610f99565b67ffffffffffffffff811115611a6457611a636112f9565b5b611a6e825461178d565b611a798282856119b5565b600060209050601f831160018114611aac5760008415611a9a578287015190505b611aa48582611a26565b865550611b0c565b601f198416611aba86611896565b60005b82811015611ae257848901518255600182019150602085019450602081019050611abd565b86831015611aff5784890151611afb601f891682611a08565b8355505b6001600288020188555050505b505050505050565b60006020820190508181036000830152611b2e8184610ff0565b905092915050565b7f4e487b7100000000000000000000000000000000000000000000000000000000600052603260045260246000fd5b7f416c7265616479206c696b656400000000000000000000000000000000000000600082015250565b6000611b9b600d83610fa4565b9150611ba682611b65565b602082019050919050565b60006020820190508181036000830152611bca81611b8e565b9050919050565b7f4e487b7100000000000000000000000000000000000000000000000000000000600052601160045260246000fd5b6000611c0b82610ee6565b91507fffffffffffffffffffffffffffffffffffffffffffffffffffffffffffffffff8203611c3d57611c3c611bd1565b5b600182019050919050565b7f506f737420746578742072657175697265640000000000000000000000000000600082015250565b6000611c7e601283610fa4565b9150611c8982611c48565b602082019050919050565b60006020820190508181036000830152611cad81611c71565b9050919050565b60006040820190508181036000830152611cce8185610ff0565b9050611cdd6020830184611035565b939250505056fea2646970667358221220df09b1a8bab2ffb1d136a26ca838b27f8d029d9bcc97dd11419a64faf25a3a9064736f6c634300081c0033",
  "linkReferences": {},
  "deployedLinkReferences": {}
}