{
  "_format": "hh-sol-artifact-1",
  "contractName": "BlipProfile",
  "sourceName": "contracts/BlipProfile.sol",
  "abi": [
    {
      "inputs": [],
      "stateMutability": "nonpayable",
      "type": "constructor"
    },
    {
      "anonymous": false,
      "inputs": [
        {
          "indexed": false,
          "internalType": "string",
          "name": "text",
          "type": "string"
        }
      ],
      "name": "AdminPostAdded",
      "type": "event"
    },
    {
      "anonymous": false,
      "inputs": [
        {
          "indexed": true,
          "internalType": "address",
          "name": "user",
          "type": "address"
        },
        {
          "indexed": false,
          "internalType": "string",
          "name": "newBio",
          "type": "string"
        }
      ],
      "name": "BioUpdated",
      "type": "event"
    },
    {
      "anonymous": false,
      "inputs": [
        {
          "indexed": true,
          "internalType": "address",
          "name": "by",
          "type": "address"
        },
        {
          "indexed": true,
          "internalType": "address",
          "name": "newFriend",
          "type": "address"
        }
      ],
      "name": "FriendAdded",
      "type": "event"
    },
    {
      "anonymous": false,
      "inputs": [
        {
          "indexed": true,
          "internalType": "address",
          "name": "by",
          "type": "address"
        },
        {
          "indexed": true,
          "internalType": "address",
          "name": "exFriend",
          "type": "address"
        }
      ],
      "name": "FriendRemoved",
      "type": "event"
    },
    {
      "anonymous": false,
      "inputs": [
        {
          "indexed": true,
          "internalType": "address",
          "name": "from",
          "type": "address"
        },
        {
          "indexed": true,
          "internalType": "address",
          "name": "to",
          "type": "address"
        }
      ],
      "name": "FriendRequestAccepted",
      "type": "event"
    },
    {
      "anonymous": false,
      "inputs": [
        {
          "indexed": true,
          "internalType": "address",
          "name": "from",
          "type": "address"
        },
        {
          "indexed": true,
          "internalType": "address",
          "name": "to",
          "type": "address"
        }
      ],
      "name": "FriendRequestRejected",
      "type": "event"
    },
    {
      "anonymous": false,
      "inputs": [
        {
          "indexed": true,
          "internalType": "address",
          "name": "from",
          "type": "address"
        },
        {
          "indexed": true,
          "internalType": "address",
          "name": "to",
          "type": "address"
        }
      ],
      "name": "FriendRequestSent",
      "type": "event"
    },
    {
      "anonymous": false,
      "inputs": [
        {
          "indexed": true,
          "internalType": "address",
          "name": "user",
          "type": "address"
        },
        {
          "indexed": false,
          "internalType": "string",
          "name": "newName",
          "type": "string"
        }
      ],
      "name": "NameUpdated",
      "type": "event"
    },
    {
      "anonymous": false,
      "inputs": [
        {
          "indexed": true,
          "internalType": "address",
          "name": "user",
          "type": "address"
        },
        {
          "indexed": false,
          "internalType": "string",
          "name": "text",
          "type": "string"
        },
        {
          "indexed": false,
          "internalType": "bool",
          "name": "isPublic",
          "type": "bool"
        }
      ],
      "name": "PostAdded",
      "type": "event"
    },
    {
      "inputs": [
        {
          "internalType": "address",
          "name": "from",
          "type": "address"
        }
      ],
      "name": "acceptFriendRequest",
      "outputs": [],
      "stateMutability": "nonpayable",
      "type": "function"
    },
    {
      "inputs": [
        {
          "internalType": "address",
          "name": "newFriend",
          "type": "address"
        }
      ],
      "name": "addFriend",
      "outputs": [],
      "stateMutability": "nonpayable",
      "type": "function"
    },
    {
      "inputs": [
        {
          "internalType": "string",
          "name": "text",
          "type": "string"
        },
        {
          "internalType": "bool",
          "name": "isPublic",
          "type": "bool"
        }
      ],
      "name": "addPost",
      "outputs": [],
      "stateMutability": "nonpayable",
      "type": "function"
    },
    {
      "inputs": [],
      "name": "admin",
      "outputs": [
        {
          "internalType": "address",
          "name": "",
          "type": "address"
        }
      ],
      "stateMutability": "view",
      "type": "function"
    },
    {
      "inputs": [
        {
          "internalType": "uint256",
          "name": "",
          "type": "uint256"
        }
      ],
      "name": "adminPosts",
      "outputs": [
        {
          "internalType": "string",
          "name": "text",
          "type": "string"
        },
        {
          "internalType": "address",
          "name": "owner",
          "type": "address"
        },
        {
          "internalType": "uint256",
          "name": "timestamp",
          "type": "uint256"
        },
        {
          "internalType": "bool",
          "name": "isPublic",
          "type": "bool"
        }
      ],
      "stateMutability": "view",
      "type": "function"
    },
    {
      "inputs": [
        {
          "internalType": "string",
          "name": "name",
          "type": "string"
        },
        {
          "internalType": "string",
          "name": "email",
          "type": "string"
        },
        {
          "internalType": "string",
          "name": "bio",
          "type": "string"
        }
      ],
      "name": "createProfile",
      "outputs": [],
      "stateMutability": "nonpayable",
      "type": "function"
    },
    {
      "inputs": [
        {
          "internalType": "string",
          "name": "email",
          "type": "string"
        }
      ],
      "name": "emailExists",
      "outputs": [
        {
          "internalType": "bool",
          "name": "",
          "type": "bool"
        }
      ],
      "stateMutability": "view",
      "type": "function"
    },
    {
      "inputs": [],
      "name": "getAdminPosts",
      "outputs": [
        {
          "components": [
            {
              "internalType": "string",
              "name": "text",
              "type": "string"
            },
            {
              "internalType": "address",
              "name": "owner",
              "type": "address"
            },
            {
              "internalType": "uint256",
              "name": "timestamp",
              "type": "uint256"
            },
            {
              "internalType": "bool",
              "name": "isPublic",
              "type": "bool"
            }
          ],
          "internalType": "struct BlipProfile.Post[]",
          "name": "",
          "type": "tuple[]"
        }
      ],
      "stateMutability": "view",
      "type": "function"
    },
    {
      "inputs": [
        {
          "internalType": "address",
          "name": "user",
          "type": "address"
        }
      ],
      "name": "getFriends",
      "outputs": [
        {
          "internalType": "address[]",
          "name": "",
          "type": "address[]"
        }
      ],
      "stateMutability": "view",
      "type": "function"
    },
    {
      "inputs": [
        {
          "internalType": "address",
          "name": "user",
          "type": "address"
        }
      ],
      "name": "getPosts",
      "outputs": [
        {
          "components": [
            {
              "internalType": "string",
              "name": "text",
              "type": "string"
            },
            {
              "internalType": "address",
              "name": "owner",
              "type": "address"
            },
            {
              "internalType": "uint256",
              "name": "timestamp",
              "type": "uint256"
            },
            {
              "internalType": "bool",
              "name": "isPublic",
              "type": "bool"
            }
          ],
          "internalType": "struct BlipProfile.Post[]",
          "name": "",
          "type": "tuple[]"
        }
      ],
      "stateMutability": "view",
      "type": "function"
    },
    {
      "inputs": [
        {
          "internalType": "address",
          "name": "user",
          "type": "address"
        }
      ],
      "name": "getProfile",
      "outputs": [
        {
          "internalType": "string",
          "name": "name",
          "type": "string"
        },
        {
          "internalType": "string",
          "name": "email",
          "type": "string"
        },
        {
          "internalType": "string",
          "name": "bio",
          "type": "string"
        },
        {
          "internalType": "address",
          "name": "wallet",
          "type": "address"
        },
        {
          "internalType": "uint256",
          "name": "createdAt",
          "type": "uint256"
        },
        {
          "components": [
            {
              "internalType": "string",
              "name": "text",
              "type": "string"
            },
            {
              "internalType": "address",
              "name": "owner",
              "type": "address"
            },
            {
              "internalType": "uint256",
              "name": "timestamp",
              "type": "uint256"
            },
            {
              "internalType": "bool",
              "name": "isPublic",
              "type": "bool"
            }
          ],
          "internalType": "struct BlipProfile.Post[]",
          "name": "posts",
          "type": "tuple[]"
        }
      ],
      "stateMutability": "view",
      "type": "function"
    },
    {
      "inputs": [
        {
          "internalType": "string",
          "name": "email",
          "type": "string"
        }
      ],
      "name": "getProfileByEmail",
      "outputs": [
        {
          "internalType": "string",
          "name": "name",
          "type": "string"
        },
        {
          "internalType": "string",
          "name": "emailOut",
          "type": "string"
        },
        {
          "internalType": "string",
          "name": "bio",
          "type": "string"
        },
        {
          "internalType": "address",
          "name": "wallet",
          "type": "address"
        },
        {
          "internalType": "uint256",
          "name": "createdAt",
          "type": "uint256"
        },
        {
          "components": [
            {
              "internalType": "string",
              "name": "text",
              "type": "string"
            },
            {
              "internalType": "address",
              "name": "owner",
              "type": "address"
            },
            {
              "internalType": "uint256",
              "name": "timestamp",
              "type": "uint256"
            },
            {
              "internalType": "bool",
              "name": "isPublic",
              "type": "bool"
            }
          ],
          "internalType": "struct BlipProfile.Post[]",
          "name": "posts",
          "type": "tuple[]"
        }
      ],
      "stateMutability": "view",
      "type": "function"
    },
    {
      "inputs": [
        {
          "internalType": "string",
          "name": "email",
          "type": "string"
        }
      ],
      "name": "getWalletByEmail",
      "outputs": [
        {
          "internalType": "address",
          "name": "",
          "type": "address"
        }
      ],
      "stateMutability": "view",
      "type": "function"
    },
    {
      "inputs": [
        {
          "internalType": "address",
          "name": "user1",
          "type": "address"
        },
        {
          "internalType": "address",
          "name": "user2",
          "type": "address"
        }
      ],
      "name": "isFriend",
      "outputs": [
        {
          "internalType": "bool",
          "name": "",
          "type": "bool"
        }
      ],
      "stateMutability": "view",
      "type": "function"
    },
    {
      "inputs": [],
      "name": "listFriendRequests",
      "outputs": [
        {
          "internalType": "address[]",
          "name": "",
          "type": "address[]"
        }
      ],
      "stateMutability": "view",
      "type": "function"
    },
    {
      "inputs": [
        {
          "internalType": "address",
          "name": "from",
          "type": "address"
        }
      ],
      "name": "rejectFriendRequest",
      "outputs": [],
      "stateMutability": "nonpayable",
      "type": "function"
    },
    {
      "inputs": [
        {
          "internalType": "address",
          "name": "exFriend",
          "type": "address"
        }
      ],
      "name": "removeFriend",
      "outputs": [],
      "stateMutability": "nonpayable",
      "type": "function"
    },
    {
      "inputs": [
        {
          "internalType": "address",
          "name": "to",
          "type": "address"
        }
      ],
      "name": "sendFriendRequest",
      "outputs": [],
      "stateMutability": "nonpayable",
      "type": "function"
    },
    {
      "inputs": [
        {
          "internalType": "string",
          "name": "newBio",
          "type": "string"
        }
      ],
      "name": "updateBio",
      "outputs": [],
      "stateMutability": "nonpayable",
      "type": "function"
    },
    {
      "inputs": [
        {
          "internalType": "string",
          "name": "newName",
          "type": "string"
        }
      ],
      "name": "updateName",
      "outputs": [],
      "stateMutability": "nonpayable",
      "type": "function"
    }
  ],
  "bytecode": "0x6080604052348015600f57600080fd5b50336000806101000a81548173ffffffffffffffffffffffffffffffffffffffff021916908373ffffffffffffffffffffffffffffffffffffffff1602179055506143fe8061005f6000396000f3fe608060405234801561001057600080fd5b506004361061012c5760003560e01c8063837b770a116100ad578063c0015f4f11610071578063c0015f4f1461036b578063c6426f5d14610387578063d7a1cfe1146103a5578063f851a440146103c1578063f8f5698c146103df5761012c565b8063837b770a146102c857806383d57b08146102e457806384da92a7146103175780639841c82c14610333578063a9f564661461034f5761012c565b80634caf9d0b116100f45780634caf9d0b146102005780635cbb7caa146102305780636c2eec281461026057806376487b381461029057806380cee8a5146102ac5761012c565b80630f53a470146101315780631da6e17c14610166578063253b66b5146101825780632be46c3c146101a05780632da5d42e146101d0575b600080fd5b61014b60048036038101906101469190613450565b610414565b60405161015d969594939291906136dd565b60405180910390f35b610180600480360381019061017b91906138bb565b610842565b005b61018a610bc8565b60405161019791906139c6565b60405180910390f35b6101ba60048036038101906101b591906139e8565b610d1a565b6040516101c79190613a40565b60405180910390f35b6101ea60048036038101906101e59190613a5b565b610d91565b6040516101f79190613a40565b60405180910390f35b61021a60048036038101906102159190613450565b610e28565b6040516102279190613a9b565b60405180910390f35b61024a60048036038101906102459190613450565b61105d565b60405161025791906139c6565b60405180910390f35b61027a600480360381019061027591906139e8565b6111b4565b6040516102879190613abd565b60405180910390f35b6102aa60048036038101906102a591906139e8565b6111fc565b005b6102c660048036038101906102c19190613450565b611324565b005b6102e260048036038101906102dd9190613450565b61168b565b005b6102fe60048036038101906102f99190613b04565b611b30565b60405161030e9493929190613b31565b60405180910390f35b610331600480360381019061032c91906139e8565b611c25565b005b61034d60048036038101906103489190613b7d565b611d4d565b005b61036960048036038101906103649190613450565b611fec565b005b61038560048036038101906103809190613450565b612533565b005b61038f61277f565b60405161039c9190613a9b565b60405180910390f35b6103bf60048036038101906103ba9190613450565b6128eb565b005b6103c9612d97565b6040516103d69190613abd565b60405180910390f35b6103f960048036038101906103f491906139e8565b612dbb565b60405161040b969594939291906136dd565b60405180910390f35b60608060606000806060866000600160008373ffffffffffffffffffffffffffffffffffffffff1673ffffffffffffffffffffffffffffffffffffffff16815260200190815260200160002060030154036104a4576040517f08c379a000000000000000000000000000000000000000000000000000000000815260040161049b90613c70565b60405180910390fd5b6000600160008a73ffffffffffffffffffffffffffffffffffffffff1673ffffffffffffffffffffffffffffffffffffffff16815260200190815260200160002090508060000181600101826002018360040160009054906101000a900473ffffffffffffffffffffffffffffffffffffffff1684600301548560050185805461052d90613cbf565b80601f016020809104026020016040519081016040528092919081815260200182805461055990613cbf565b80156105a65780601f1061057b576101008083540402835291602001916105a6565b820191906000526020600020905b81548152906001019060200180831161058957829003601f168201915b505050505095508480546105b990613cbf565b80601f01602080910402602001604051908101604052809291908181526020018280546105e590613cbf565b80156106325780601f1061060757610100808354040283529160200191610632565b820191906000526020600020905b81548152906001019060200180831161061557829003601f168201915b5050505050945083805461064590613cbf565b80601f016020809104026020016040519081016040528092919081815260200182805461067190613cbf565b80156106be5780601f10610693576101008083540402835291602001916106be565b820191906000526020600020905b8154815290600101906020018083116106a157829003601f168201915b5050505050935080805480602002602001604051908101604052809291908181526020016000905b82821015610825578382906000526020600020906004020160405180608001604052908160008201805461071990613cbf565b80601f016020809104026020016040519081016040528092919081815260200182805461074590613cbf565b80156107925780601f1061076757610100808354040283529160200191610792565b820191906000526020600020905b81548152906001019060200180831161077557829003601f168201915b505050505081526020016001820160009054906101000a900473ffffffffffffffffffffffffffffffffffffffff1673ffffffffffffffffffffffffffffffffffffffff1673ffffffffffffffffffffffffffffffffffffffff168152602001600282015481526020016003820160009054906101000a900460ff161515151581525050815260200190600101906106e6565b505050509050975097509750975097509750505091939550919395565b336000600160008373ffffffffffffffffffffffffffffffffffffffff1673ffffffffffffffffffffffffffffffffffffffff16815260200190815260200160002060030154036108c8576040517f08c379a00000000000000000000000000000000000000000000000000000000081526004016108bf90613c70565b60405180910390fd5b6000600160003373ffffffffffffffffffffffffffffffffffffffff1673ffffffffffffffffffffffffffffffffffffffff168152602001908152602001600020600301540361094d576040517f08c379a000000000000000000000000000000000000000000000000000000000815260040161094490613c70565b60405180910390fd5b600060405180608001604052808581526020013373ffffffffffffffffffffffffffffffffffffffff1681526020014281526020018415158152509050600160003373ffffffffffffffffffffffffffffffffffffffff1673ffffffffffffffffffffffffffffffffffffffff1681526020019081526020016000206005018190806001815401808255809150506001900390600052602060002090600402016000909190919091506000820151816000019081610a0b9190613e9c565b5060208201518160010160006101000a81548173ffffffffffffffffffffffffffffffffffffffff021916908373ffffffffffffffffffffffffffffffffffffffff1602179055506040820151816002015560608201518160030160006101000a81548160ff02191690831515021790555050503373ffffffffffffffffffffffffffffffffffffffff167f264ef7c88299d51aa830b1899ba849e40fab5e415251f79c047b86b7b1c542d28585604051610ac7929190613f6e565b60405180910390a28215610bc25760058190806001815401808255809150506001900390600052602060002090600402016000909190919091506000820151816000019081610b169190613e9c565b5060208201518160010160006101000a81548173ffffffffffffffffffffffffffffffffffffffff021916908373ffffffffffffffffffffffffffffffffffffffff1602179055506040820151816002015560608201518160030160006101000a81548160ff02191690831515021790555050507f54b05475d2da7cc5efb2aaef2203d1a4226aa08d7ecb76c2bb50b1501b0c19c184604051610bb99190613f9e565b60405180910390a15b50505050565b6060336000600160008373ffffffffffffffffffffffffffffffffffffffff1673ffffffffffffffffffffffffffffffffffffffff1681526020019081526020016000206003015403610c50576040517f08c379a0000000000000000000000000000000000000000000000000000000008152600401610c4790613c70565b60405180910390fd5b600360003373ffffffffffffffffffffffffffffffffffffffff1673ffffffffffffffffffffffffffffffffffffffff168152602001908152602001600020805480602002602001604051908101604052809291908181526020018280548015610d0f57602002820191906000526020600020905b8160009054906101000a900473ffffffffffffffffffffffffffffffffffffffff1673ffffffffffffffffffffffffffffffffffffffff1681526020019060010190808311610cc5575b505050505091505090565b60008073ffffffffffffffffffffffffffffffffffffffff16600283604051610d439190613ffc565b908152602001604051809103902060009054906101000a900473ffffffffffffffffffffffffffffffffffffffff1673ffffffffffffffffffffffffffffffffffffffff1614159050919050565b6000600160008473ffffffffffffffffffffffffffffffffffffffff1673ffffffffffffffffffffffffffffffffffffffff16815260200190815260200160002060060160008373ffffffffffffffffffffffffffffffffffffffff1673ffffffffffffffffffffffffffffffffffffffff16815260200190815260200160002060009054906101000a900460ff16905092915050565b6060816000600160008373ffffffffffffffffffffffffffffffffffffffff1673ffffffffffffffffffffffffffffffffffffffff1681526020019081526020016000206003015403610eb0576040517f08c379a0000000000000000000000000000000000000000000000000000000008152600401610ea790613c70565b60405180910390fd5b600160008473ffffffffffffffffffffffffffffffffffffffff1673ffffffffffffffffffffffffffffffffffffffff168152602001908152602001600020600501805480602002602001604051908101604052809291908181526020016000905b828210156110515783829060005260206000209060040201604051806080016040529081600082018054610f4590613cbf565b80601f0160208091040260200160405190810160405280929190818152602001828054610f7190613cbf565b8015610fbe5780601f10610f9357610100808354040283529160200191610fbe565b820191906000526020600020905b815481529060010190602001808311610fa157829003601f168201915b505050505081526020016001820160009054906101000a900473ffffffffffffffffffffffffffffffffffffffff1673ffffffffffffffffffffffffffffffffffffffff1673ffffffffffffffffffffffffffffffffffffffff168152602001600282015481526020016003820160009054906101000a900460ff16151515158152505081526020019060010190610f12565b50505050915050919050565b6060816000600160008373ffffffffffffffffffffffffffffffffffffffff1673ffffffffffffffffffffffffffffffffffffffff16815260200190815260200160002060030154036110e5576040517f08c379a00000000000000000000000000000000000000000000000000000000081526004016110dc90613c70565b60405180910390fd5b600160008473ffffffffffffffffffffffffffffffffffffffff1673ffffffffffffffffffffffffffffffffffffffff1681526020019081526020016000206007018054806020026020016040519081016040528092919081815260200182805480156111a757602002820191906000526020600020905b8160009054906101000a900473ffffffffffffffffffffffffffffffffffffffff1673ffffffffffffffffffffffffffffffffffffffff168152602001906001019080831161115d575b5050505050915050919050565b60006002826040516111c69190613ffc565b908152602001604051809103902060009054906101000a900473ffffffffffffffffffffffffffffffffffffffff169050919050565b336000600160008373ffffffffffffffffffffffffffffffffffffffff1673ffffffffffffffffffffffffffffffffffffffff1681526020019081526020016000206003015403611282576040517f08c379a000000000000000000000000000000000000000000000000000000000815260040161127990613c70565b60405180910390fd5b81600160003373ffffffffffffffffffffffffffffffffffffffff1673ffffffffffffffffffffffffffffffffffffffff16815260200190815260200160002060020190816112d19190613e9c565b503373ffffffffffffffffffffffffffffffffffffffff167f3f838a7d0889a59b2445af5389196b3948170278848eb90d8d256ab14aaf4cf0836040516113189190613f9e565b60405180910390a25050565b336000600160008373ffffffffffffffffffffffffffffffffffffffff1673ffffffffffffffffffffffffffffffffffffffff16815260200190815260200160002060030154036113aa576040517f08c379a00000000000000000000000000000000000000000000000000000000081526004016113a190613c70565b60405180910390fd5b816000600160008373ffffffffffffffffffffffffffffffffffffffff1673ffffffffffffffffffffffffffffffffffffffff1681526020019081526020016000206003015403611430576040517f08c379a000000000000000000000000000000000000000000000000000000000815260040161142790613c70565b60405180910390fd5b600160003373ffffffffffffffffffffffffffffffffffffffff1673ffffffffffffffffffffffffffffffffffffffff16815260200190815260200160002060060160008473ffffffffffffffffffffffffffffffffffffffff1673ffffffffffffffffffffffffffffffffffffffff16815260200190815260200160002060009054906101000a900460ff166114fc576040517f08c379a00000000000000000000000000000000000000000000000000000000081526004016114f39061405f565b60405180910390fd5b6000600160003373ffffffffffffffffffffffffffffffffffffffff1673ffffffffffffffffffffffffffffffffffffffff16815260200190815260200160002060060160008573ffffffffffffffffffffffffffffffffffffffff1673ffffffffffffffffffffffffffffffffffffffff16815260200190815260200160002060006101000a81548160ff0219169083151502179055506000600160008573ffffffffffffffffffffffffffffffffffffffff1673ffffffffffffffffffffffffffffffffffffffff16815260200190815260200160002060060160003373ffffffffffffffffffffffffffffffffffffffff1673ffffffffffffffffffffffffffffffffffffffff16815260200190815260200160002060006101000a81548160ff0219169083151502179055508273ffffffffffffffffffffffffffffffffffffffff163373ffffffffffffffffffffffffffffffffffffffff167fa8e30f48064c886d284e961fb10cf21ed57c5f0b0b414f6bc390008552a15f9060405160405180910390a3505050565b336000600160008373ffffffffffffffffffffffffffffffffffffffff1673ffffffffffffffffffffffffffffffffffffffff1681526020019081526020016000206003015403611711576040517f08c379a000000000000000000000000000000000000000000000000000000000815260040161170890613c70565b60405180910390fd5b816000600160008373ffffffffffffffffffffffffffffffffffffffff1673ffffffffffffffffffffffffffffffffffffffff1681526020019081526020016000206003015403611797576040517f08c379a000000000000000000000000000000000000000000000000000000000815260040161178e90613c70565b60405180910390fd5b8273ffffffffffffffffffffffffffffffffffffffff163373ffffffffffffffffffffffffffffffffffffffff1603611805576040517f08c379a00000000000000000000000000000000000000000000000000000000081526004016117fc906140cb565b60405180910390fd5b600160003373ffffffffffffffffffffffffffffffffffffffff1673ffffffffffffffffffffffffffffffffffffffff16815260200190815260200160002060060160008473ffffffffffffffffffffffffffffffffffffffff1673ffffffffffffffffffffffffffffffffffffffff16815260200190815260200160002060009054906101000a900460ff16156118d2576040517f08c379a00000000000000000000000000000000000000000000000000000000081526004016118c990614137565b60405180910390fd5b600460003373ffffffffffffffffffffffffffffffffffffffff1673ffffffffffffffffffffffffffffffffffffffff16815260200190815260200160002060008473ffffffffffffffffffffffffffffffffffffffff1673ffffffffffffffffffffffffffffffffffffffff16815260200190815260200160002060009054906101000a900460ff161561199c576040517f08c379a0000000000000000000000000000000000000000000000000000000008152600401611993906141a3565b60405180910390fd5b600360008473ffffffffffffffffffffffffffffffffffffffff1673ffffffffffffffffffffffffffffffffffffffff168152602001908152602001600020339080600181540180825580915050600190039060005260206000200160009091909190916101000a81548173ffffffffffffffffffffffffffffffffffffffff021916908373ffffffffffffffffffffffffffffffffffffffff1602179055506001600460003373ffffffffffffffffffffffffffffffffffffffff1673ffffffffffffffffffffffffffffffffffffffff16815260200190815260200160002060008573ffffffffffffffffffffffffffffffffffffffff1673ffffffffffffffffffffffffffffffffffffffff16815260200190815260200160002060006101000a81548160ff0219169083151502179055508273ffffffffffffffffffffffffffffffffffffffff163373ffffffffffffffffffffffffffffffffffffffff167f2b4b3b31b7040b3566331c8302dff4a575764757795335d5e9184fd4174c33b260405160405180910390a3505050565b60058181548110611b4057600080fd5b9060005260206000209060040201600091509050806000018054611b6390613cbf565b80601f0160208091040260200160405190810160405280929190818152602001828054611b8f90613cbf565b8015611bdc5780601f10611bb157610100808354040283529160200191611bdc565b820191906000526020600020905b815481529060010190602001808311611bbf57829003601f168201915b5050505050908060010160009054906101000a900473ffffffffffffffffffffffffffffffffffffffff16908060020154908060030160009054906101000a900460ff16905084565b336000600160008373ffffffffffffffffffffffffffffffffffffffff1673ffffffffffffffffffffffffffffffffffffffff1681526020019081526020016000206003015403611cab576040517f08c379a0000000000000000000000000000000000000000000000000000000008152600401611ca290613c70565b60405180910390fd5b81600160003373ffffffffffffffffffffffffffffffffffffffff1673ffffffffffffffffffffffffffffffffffffffff1681526020019081526020016000206000019081611cfa9190613e9c565b503373ffffffffffffffffffffffffffffffffffffffff167f74321da206c1b9fa34367f7ece59ca49371dcd13820b9a5c3767ae1ecceed51a83604051611d419190613f9e565b60405180910390a25050565b6000600160003373ffffffffffffffffffffffffffffffffffffffff1673ffffffffffffffffffffffffffffffffffffffff1681526020019081526020016000206003015414611dd2576040517f08c379a0000000000000000000000000000000000000000000000000000000008152600401611dc99061420f565b60405180910390fd5b82600160003373ffffffffffffffffffffffffffffffffffffffff1673ffffffffffffffffffffffffffffffffffffffff1681526020019081526020016000206000019081611e219190613e9c565b5081600160003373ffffffffffffffffffffffffffffffffffffffff1673ffffffffffffffffffffffffffffffffffffffff1681526020019081526020016000206001019081611e719190613e9c565b5080600160003373ffffffffffffffffffffffffffffffffffffffff1673ffffffffffffffffffffffffffffffffffffffff1681526020019081526020016000206002019081611ec19190613e9c565b5033600160003373ffffffffffffffffffffffffffffffffffffffff1673ffffffffffffffffffffffffffffffffffffffff16815260200190815260200160002060040160006101000a81548173ffffffffffffffffffffffffffffffffffffffff021916908373ffffffffffffffffffffffffffffffffffffffff16021790555042600160003373ffffffffffffffffffffffffffffffffffffffff1673ffffffffffffffffffffffffffffffffffffffff1681526020019081526020016000206003018190555033600283604051611f9b9190613ffc565b908152602001604051809103902060006101000a81548173ffffffffffffffffffffffffffffffffffffffff021916908373ffffffffffffffffffffffffffffffffffffffff160217905550505050565b336000600160008373ffffffffffffffffffffffffffffffffffffffff1673ffffffffffffffffffffffffffffffffffffffff1681526020019081526020016000206003015403612072576040517f08c379a000000000000000000000000000000000000000000000000000000000815260040161206990613c70565b60405180910390fd5b816000600160008373ffffffffffffffffffffffffffffffffffffffff1673ffffffffffffffffffffffffffffffffffffffff16815260200190815260200160002060030154036120f8576040517f08c379a00000000000000000000000000000000000000000000000000000000081526004016120ef90613c70565b60405180910390fd5b600460008473ffffffffffffffffffffffffffffffffffffffff1673ffffffffffffffffffffffffffffffffffffffff16815260200190815260200160002060003373ffffffffffffffffffffffffffffffffffffffff1673ffffffffffffffffffffffffffffffffffffffff16815260200190815260200160002060009054906101000a900460ff166121c1576040517f08c379a00000000000000000000000000000000000000000000000000000000081526004016121b89061427b565b60405180910390fd5b6121cb8333613215565b6000600460008573ffffffffffffffffffffffffffffffffffffffff1673ffffffffffffffffffffffffffffffffffffffff16815260200190815260200160002060003373ffffffffffffffffffffffffffffffffffffffff1673ffffffffffffffffffffffffffffffffffffffff16815260200190815260200160002060006101000a81548160ff02191690831515021790555060018060003373ffffffffffffffffffffffffffffffffffffffff1673ffffffffffffffffffffffffffffffffffffffff16815260200190815260200160002060060160008573ffffffffffffffffffffffffffffffffffffffff1673ffffffffffffffffffffffffffffffffffffffff16815260200190815260200160002060006101000a81548160ff021916908315150217905550600160003373ffffffffffffffffffffffffffffffffffffffff1673ffffffffffffffffffffffffffffffffffffffff168152602001908152602001600020600701839080600181540180825580915050600190039060005260206000200160009091909190916101000a81548173ffffffffffffffffffffffffffffffffffffffff021916908373ffffffffffffffffffffffffffffffffffffffff16021790555060018060008573ffffffffffffffffffffffffffffffffffffffff1673ffffffffffffffffffffffffffffffffffffffff16815260200190815260200160002060060160003373ffffffffffffffffffffffffffffffffffffffff1673ffffffffffffffffffffffffffffffffffffffff16815260200190815260200160002060006101000a81548160ff021916908315150217905550600160008473ffffffffffffffffffffffffffffffffffffffff1673ffffffffffffffffffffffffffffffffffffffff168152602001908152602001600020600701339080600181540180825580915050600190039060005260206000200160009091909190916101000a81548173ffffffffffffffffffffffffffffffffffffffff021916908373ffffffffffffffffffffffffffffffffffffffff1602179055503373ffffffffffffffffffffffffffffffffffffffff168373ffffffffffffffffffffffffffffffffffffffff167f4738efa342d2c6adcb0441cad1723818b7f5b5d6d846c0005945b21d6642e79d60405160405180910390a3505050565b336000600160008373ffffffffffffffffffffffffffffffffffffffff1673ffffffffffffffffffffffffffffffffffffffff16815260200190815260200160002060030154036125b9576040517f08c379a00000000000000000000000000000000000000000000000000000000081526004016125b090613c70565b60405180910390fd5b600460008373ffffffffffffffffffffffffffffffffffffffff1673ffffffffffffffffffffffffffffffffffffffff16815260200190815260200160002060003373ffffffffffffffffffffffffffffffffffffffff1673ffffffffffffffffffffffffffffffffffffffff16815260200190815260200160002060009054906101000a900460ff16612682576040517f08c379a00000000000000000000000000000000000000000000000000000000081526004016126799061427b565b60405180910390fd5b61268c8233613215565b6000600460008473ffffffffffffffffffffffffffffffffffffffff1673ffffffffffffffffffffffffffffffffffffffff16815260200190815260200160002060003373ffffffffffffffffffffffffffffffffffffffff1673ffffffffffffffffffffffffffffffffffffffff16815260200190815260200160002060006101000a81548160ff0219169083151502179055503373ffffffffffffffffffffffffffffffffffffffff168273ffffffffffffffffffffffffffffffffffffffff167f450d1f7c66bdb3cc58af2fd886d956f9425da428307309a3472fe0c44a0fb18560405160405180910390a35050565b60606005805480602002602001604051908101604052809291908181526020016000905b828210156128e257838290600052602060002090600402016040518060800160405290816000820180546127d690613cbf565b80601f016020809104026020016040519081016040528092919081815260200182805461280290613cbf565b801561284f5780601f106128245761010080835404028352916020019161284f565b820191906000526020600020905b81548152906001019060200180831161283257829003601f168201915b505050505081526020016001820160009054906101000a900473ffffffffffffffffffffffffffffffffffffffff1673ffffffffffffffffffffffffffffffffffffffff1673ffffffffffffffffffffffffffffffffffffffff168152602001600282015481526020016003820160009054906101000a900460ff161515151581525050815260200190600101906127a3565b50505050905090565b336000600160008373ffffffffffffffffffffffffffffffffffffffff1673ffffffffffffffffffffffffffffffffffffffff1681526020019081526020016000206003015403612971576040517f08c379a000000000000000000000000000000000000000000000000000000000815260040161296890613c70565b60405180910390fd5b816000600160008373ffffffffffffffffffffffffffffffffffffffff1673ffffffffffffffffffffffffffffffffffffffff16815260200190815260200160002060030154036129f7576040517f08c379a00000000000000000000000000000000000000000000000000000000081526004016129ee90613c70565b60405180910390fd5b600160003373ffffffffffffffffffffffffffffffffffffffff1673ffffffffffffffffffffffffffffffffffffffff16815260200190815260200160002060060160008473ffffffffffffffffffffffffffffffffffffffff1673ffffffffffffffffffffffffffffffffffffffff16815260200190815260200160002060009054906101000a900460ff1615612ac4576040517f08c379a0000000000000000000000000000000000000000000000000000000008152600401612abb90614137565b60405180910390fd5b60018060003373ffffffffffffffffffffffffffffffffffffffff1673ffffffffffffffffffffffffffffffffffffffff16815260200190815260200160002060060160008573ffffffffffffffffffffffffffffffffffffffff1673ffffffffffffffffffffffffffffffffffffffff16815260200190815260200160002060006101000a81548160ff021916908315150217905550600160003373ffffffffffffffffffffffffffffffffffffffff1673ffffffffffffffffffffffffffffffffffffffff168152602001908152602001600020600701839080600181540180825580915050600190039060005260206000200160009091909190916101000a81548173ffffffffffffffffffffffffffffffffffffffff021916908373ffffffffffffffffffffffffffffffffffffffff16021790555060018060008573ffffffffffffffffffffffffffffffffffffffff1673ffffffffffffffffffffffffffffffffffffffff16815260200190815260200160002060060160003373ffffffffffffffffffffffffffffffffffffffff1673ffffffffffffffffffffffffffffffffffffffff16815260200190815260200160002060006101000a81548160ff021916908315150217905550600160008473ffffffffffffffffffffffffffffffffffffffff1673ffffffffffffffffffffffffffffffffffffffff168152602001908152602001600020600701339080600181540180825580915050600190039060005260206000200160009091909190916101000a81548173ffffffffffffffffffffffffffffffffffffffff021916908373ffffffffffffffffffffffffffffffffffffffff1602179055508273ffffffffffffffffffffffffffffffffffffffff163373ffffffffffffffffffffffffffffffffffffffff167f6cbc8134e69f02f9dbaa28d8f3d760a490876f55060afa4d6882a86c2590cc7b60405160405180910390a3505050565b60008054906101000a900473ffffffffffffffffffffffffffffffffffffffff1681565b606080606060008060606000600288604051612dd79190613ffc565b908152602001604051809103902060009054906101000a900473ffffffffffffffffffffffffffffffffffffffff169050600073ffffffffffffffffffffffffffffffffffffffff168173ffffffffffffffffffffffffffffffffffffffff1603612e77576040517f08c379a0000000000000000000000000000000000000000000000000000000008152600401612e6e906142e7565b60405180910390fd5b6000600160008373ffffffffffffffffffffffffffffffffffffffff1673ffffffffffffffffffffffffffffffffffffffff16815260200190815260200160002090508060000181600101826002018360040160009054906101000a900473ffffffffffffffffffffffffffffffffffffffff16846003015485600501858054612f0090613cbf565b80601f0160208091040260200160405190810160405280929190818152602001828054612f2c90613cbf565b8015612f795780601f10612f4e57610100808354040283529160200191612f79565b820191906000526020600020905b815481529060010190602001808311612f5c57829003601f168201915b50505050509550848054612f8c90613cbf565b80601f0160208091040260200160405190810160405280929190818152602001828054612fb890613cbf565b80156130055780601f10612fda57610100808354040283529160200191613005565b820191906000526020600020905b815481529060010190602001808311612fe857829003601f168201915b5050505050945083805461301890613cbf565b80601f016020809104026020016040519081016040528092919081815260200182805461304490613cbf565b80156130915780601f1061306657610100808354040283529160200191613091565b820191906000526020600020905b81548152906001019060200180831161307457829003601f168201915b5050505050935080805480602002602001604051908101604052809291908181526020016000905b828210156131f857838290600052602060002090600402016040518060800160405290816000820180546130ec90613cbf565b80601f016020809104026020016040519081016040528092919081815260200182805461311890613cbf565b80156131655780601f1061313a57610100808354040283529160200191613165565b820191906000526020600020905b81548152906001019060200180831161314857829003601f168201915b505050505081526020016001820160009054906101000a900473ffffffffffffffffffffffffffffffffffffffff1673ffffffffffffffffffffffffffffffffffffffff1673ffffffffffffffffffffffffffffffffffffffff168152602001600282015481526020016003820160009054906101000a900460ff161515151581525050815260200190600101906130b9565b505050509050975097509750975097509750505091939550919395565b6000600360008373ffffffffffffffffffffffffffffffffffffffff1673ffffffffffffffffffffffffffffffffffffffff168152602001908152602001600020905060005b81805490508110156133d8578373ffffffffffffffffffffffffffffffffffffffff1682828154811061329157613290614307565b5b9060005260206000200160009054906101000a900473ffffffffffffffffffffffffffffffffffffffff1673ffffffffffffffffffffffffffffffffffffffff16036133cb5781600183805490506132e99190614365565b815481106132fa576132f9614307565b5b9060005260206000200160009054906101000a900473ffffffffffffffffffffffffffffffffffffffff1682828154811061333857613337614307565b5b9060005260206000200160006101000a81548173ffffffffffffffffffffffffffffffffffffffff021916908373ffffffffffffffffffffffffffffffffffffffff1602179055508180548061339157613390614399565b5b6001900381819060005260206000200160006101000a81549073ffffffffffffffffffffffffffffffffffffffff021916905590556133d8565b808060010191505061325b565b50505050565b6000604051905090565b600080fd5b600080fd5b600073ffffffffffffffffffffffffffffffffffffffff82169050919050565b600061341d826133f2565b9050919050565b61342d81613412565b811461343857600080fd5b50565b60008135905061344a81613424565b92915050565b600060208284031215613466576134656133e8565b5b60006134748482850161343b565b91505092915050565b600081519050919050565b600082825260208201905092915050565b60005b838110156134b757808201518184015260208101905061349c565b60008484015250505050565b6000601f19601f8301169050919050565b60006134df8261347d565b6134e98185613488565b93506134f9818560208601613499565b613502816134c3565b840191505092915050565b61351681613412565b82525050565b6000819050919050565b61352f8161351c565b82525050565b600081519050919050565b600082825260208201905092915050565b6000819050602082019050919050565b600082825260208201905092915050565b600061357d8261347d565b6135878185613561565b9350613597818560208601613499565b6135a0816134c3565b840191505092915050565b6135b481613412565b82525050565b6135c38161351c565b82525050565b60008115159050919050565b6135de816135c9565b82525050565b600060808301600083015184820360008601526136018282613572565b915050602083015161361660208601826135ab565b50604083015161362960408601826135ba565b50606083015161363c60608601826135d5565b508091505092915050565b600061365383836135e4565b905092915050565b6000602082019050919050565b600061367382613535565b61367d8185613540565b93508360208202850161368f85613551565b8060005b858110156136cb57848403895281516136ac8582613647565b94506136b78361365b565b925060208a01995050600181019050613693565b50829750879550505050505092915050565b600060c08201905081810360008301526136f781896134d4565b9050818103602083015261370b81886134d4565b9050818103604083015261371f81876134d4565b905061372e606083018661350d565b61373b6080830185613526565b81810360a083015261374d8184613668565b9050979650505050505050565b600080fd5b600080fd5b7f4e487b7100000000000000000000000000000000000000000000000000000000600052604160045260246000fd5b61379c826134c3565b810181811067ffffffffffffffff821117156137bb576137ba613764565b5b80604052505050565b60006137ce6133de565b90506137da8282613793565b919050565b600067ffffffffffffffff8211156137fa576137f9613764565b5b613803826134c3565b9050602081019050919050565b82818337600083830152505050565b600061383261382d846137df565b6137c4565b90508281526020810184848401111561384e5761384d61375f565b5b613859848285613810565b509392505050565b600082601f8301126138765761387561375a565b5b813561388684826020860161381f565b91505092915050565b613898816135c9565b81146138a357600080fd5b50565b6000813590506138b58161388f565b92915050565b600080604083850312156138d2576138d16133e8565b5b600083013567ffffffffffffffff8111156138f0576138ef6133ed565b5b6138fc85828601613861565b925050602061390d858286016138a6565b9150509250929050565b600081519050919050565b600082825260208201905092915050565b6000819050602082019050919050565b600061394f83836135ab565b60208301905092915050565b6000602082019050919050565b600061397382613917565b61397d8185613922565b935061398883613933565b8060005b838110156139b95781516139a08882613943565b97506139ab8361395b565b92505060018101905061398c565b5085935050505092915050565b600060208201905081810360008301526139e08184613968565b905092915050565b6000602082840312156139fe576139fd6133e8565b5b600082013567ffffffffffffffff811115613a1c57613a1b6133ed565b5b613a2884828501613861565b91505092915050565b613a3a816135c9565b82525050565b6000602082019050613a556000830184613a31565b92915050565b60008060408385031215613a7257613a716133e8565b5b6000613a808582860161343b565b9250506020613a918582860161343b565b9150509250929050565b60006020820190508181036000830152613ab58184613668565b905092915050565b6000602082019050613ad2600083018461350d565b92915050565b613ae18161351c565b8114613aec57600080fd5b50565b600081359050613afe81613ad8565b92915050565b600060208284031215613b1a57613b196133e8565b5b6000613b2884828501613aef565b91505092915050565b60006080820190508181036000830152613b4b81876134d4565b9050613b5a602083018661350d565b613b676040830185613526565b613b746060830184613a31565b95945050505050565b600080600060608486031215613b9657613b956133e8565b5b600084013567ffffffffffffffff811115613bb457613bb36133ed565b5b613bc086828701613861565b935050602084013567ffffffffffffffff811115613be157613be06133ed565b5b613bed86828701613861565b925050604084013567ffffffffffffffff811115613c0e57613c0d6133ed565b5b613c1a86828701613861565b9150509250925092565b7f50726f66696c6520646f65736e27742065786973740000000000000000000000600082015250565b6000613c5a601583613488565b9150613c6582613c24565b602082019050919050565b60006020820190508181036000830152613c8981613c4d565b9050919050565b7f4e487b7100000000000000000000000000000000000000000000000000000000600052602260045260246000fd5b60006002820490506001821680613cd757607f821691505b602082108103613cea57613ce9613c90565b5b50919050565b60008190508160005260206000209050919050565b60006020601f8301049050919050565b600082821b905092915050565b600060088302613d527fffffffffffffffffffffffffffffffffffffffffffffffffffffffffffffffff82613d15565b613d5c8683613d15565b95508019841693508086168417925050509392505050565b6000819050919050565b6000613d99613d94613d8f8461351c565b613d74565b61351c565b9050919050565b6000819050919050565b613db383613d7e565b613dc7613dbf82613da0565b848454613d22565b825550505050565b600090565b613ddc613dcf565b613de7818484613daa565b505050565b5b81811015613e0b57613e00600082613dd4565b600181019050613ded565b5050565b601f821115613e5057613e2181613cf0565b613e2a84613d05565b81016020851015613e39578190505b613e4d613e4585613d05565b830182613dec565b50505b505050565b600082821c905092915050565b6000613e7360001984600802613e55565b1980831691505092915050565b6000613e8c8383613e62565b9150826002028217905092915050565b613ea58261347d565b67ffffffffffffffff811115613ebe57613ebd613764565b5b613ec88254613cbf565b613ed3828285613e0f565b600060209050601f831160018114613f065760008415613ef4578287015190505b613efe8582613e80565b865550613f66565b601f198416613f1486613cf0565b60005b82811015613f3c57848901518255600182019150602085019450602081019050613f17565b86831015613f595784890151613f55601f891682613e62565b8355505b6001600288020188555050505b505050505050565b60006040820190508181036000830152613f8881856134d4565b9050613f976020830184613a31565b9392505050565b60006020820190508181036000830152613fb881846134d4565b905092915050565b600081905092915050565b6000613fd68261347d565b613fe08185613fc0565b9350613ff0818560208601613499565b80840191505092915050565b60006140088284613fcb565b915081905092915050565b7f4e6f7420667269656e6473000000000000000000000000000000000000000000600082015250565b6000614049600b83613488565b915061405482614013565b602082019050919050565b600060208201905081810360008301526140788161403c565b9050919050565b7f43616e6e6f7420667269656e6420796f757273656c6600000000000000000000600082015250565b60006140b5601683613488565b91506140c08261407f565b602082019050919050565b600060208201905081810360008301526140e4816140a8565b9050919050565b7f416c726561647920667269656e64730000000000000000000000000000000000600082015250565b6000614121600f83613488565b915061412c826140eb565b602082019050919050565b6000602082019050818103600083015261415081614114565b9050919050565b7f5265717565737420616c72656164792073656e74000000000000000000000000600082015250565b600061418d601483613488565b915061419882614157565b602082019050919050565b600060208201905081810360008301526141bc81614180565b9050919050565b7f50726f66696c6520616c72656164792065786973747300000000000000000000600082015250565b60006141f9601683613488565b9150614204826141c3565b602082019050919050565b60006020820190508181036000830152614228816141ec565b9050919050565b7f4e6f20726571756573742066726f6d2074686973207573657200000000000000600082015250565b6000614265601983613488565b91506142708261422f565b602082019050919050565b6000602082019050818103600083015261429481614258565b9050919050565b7f456d61696c206e6f742072656769737465726564000000000000000000000000600082015250565b60006142d1601483613488565b91506142dc8261429b565b602082019050919050565b60006020820190508181036000830152614300816142c4565b9050919050565b7f4e487b7100000000000000000000000000000000000000000000000000000000600052603260045260246000fd5b7f4e487b7100000000000000000000000000000000000000000000000000000000600052601160045260246000fd5b60006143708261351c565b915061437b8361351c565b925082820390508181111561439357614392614336565b5b92915050565b7f4e487b7100000000000000000000000000000000000000000000000000000000600052603160045260246000fdfea2646970667358221220ae3716901e8409f352ec05ce948ae01df0a65db6aa58ccc96f424e633bf42a3c64736f6c634300081c0033",
  "linkReferences": {},
  "deployedLinkReferences": {}
}